:020000040800F2
:10000000400A002001010008D1400008B336000872
:10001000CD400008090F000803460008000000005A
:100020000000000000000000000000005141000836
:10003000750F000800000000D5400008534100087B
:100040001B0100081B0100081B0100081B01000820
:100050001B0100081B0100081B0100081B01000810
:100060001B0100081B0100081B010008650F0008A8
:100070001B0100081B0100081B0100081B010008F0
:100080001B0100081B0100081B0100081B010008E0
:100090001B0100081B0100081B0100081B010008D0
:1000A0001B0100081B0100081B0100081B010008C0
:1000B0001B0100081B0100081B0100081B010008B0
:1000C0001B0100081B0100081B0100081B010008A0
:1000D0001B0100081B0100081B0100081B01000890
:1000E0001B0100081B0100081B010008DFF80CD0F1
:1000F00000F062FC0048004751550008400A00200B
:100100000648804706480047FEE7FEE7FEE7FEE7B1
:10011000FEE7FEE7FEE7FEE7FEE7FEE7EB4100084D
:10012000ED000008202A04DB203A21FA02F0002129
:10013000704721FA02F3D040C2F1200291400843F7
:1001400019467047D2B201E000F8012B491EFBD2DC
:1001500070470022F6E710B513460A4604461946D2
:10016000FFF7F0FF204610BDF0B480EA0102D40F83
:100170004200B2EB410F02D20246084611464A0045
:1001800042D0C30DDDB2C1F3C752AD1A202D35DA0E
:10019000C1F3160141F4000204B15242C5F1200638
:1001A00002FA06F12A411044B3EBD05F23D0C4B168
:1001B000012DA0EBC35009DCF0BC4FF0004202EA75
:1001C000C352DBB200F5000000F0B5BA400000F108
:1001D000807000EBC350A0F1807040EAD1704900FC
:1001E00009E0490841EAC071A0EBC35000F50000E6
:1001F000400800EBC350F0BC00F094BA6142012209
:1002000002EB4101001BF6E7F0BC704781F00041B2
:10021000AAE780F00040A7E780EA010210B502F0EB
:100220000043400022D04A001FD0010E01EB1261B2
:10023000C0F35600C2F3560240F4000042F400023C
:10024000A0FB022000047F39140400D0401C50EAB7
:10025000124001D44000491EC2B20C0604EBD0107B
:10026000401C4008802A02D003E0002010BD20F08E
:100270000100002900DA0020184310BD30B480EAE4
:10028000010202F0004530F0004221F0004013D09E
:1002900090B1C30DD40DC2F31601C0F31600E41AD9
:1002A00041F4000140F400027D34914201D3641C0A
:1002B00000E04900002C02DA30BC002070474FF407
:1002C00000000023914201D3891A034340084FEAFA
:1002D0004101F7D151B1914202D14FF0004105E007
:1002E00002D24FF0010101E06FF0010103EBC450B5
:1002F000284430BC00F016BA2DE9FE4F804681EA52
:100300000300C00F0C46009021F0004123F000458F
:10031000B8EB0200A94105D24046214690461C4652
:100320000B46024623F00040104347D0270DC7F389
:100330000A00C3F30A510290401A019040286BDA78
:10034000C3F3130040F4801B0098924620B10023B1
:10035000D2EB030A63EB0B0B01985946C0F1400244
:10036000504600F0BEF906460D4650465946019AE1
:1003700000F0C6F910EB08006141002487EA115231
:1003800084EAE7731A4340D0009A62B3019A012AC3
:100390004FEA075215DC001B61EB02014FF00042EF
:1003A00002EA0752CDE90042001C41F580113246B5
:1003B0002B4600F0FDF903B0BDE8F08F4046214622
:1003C000F9E7001B61EB0201001C41F580130018E6
:1003D0005B412018A2F5001747EB030140EAD570F6
:1003E000B6196D4111E06D084FEA360645EAC07551
:1003F0004FEA0752001B61EB0201001C41F580111E
:1004000049084FEA30000019514132462B4603B0EB
:10041000BDE8F04F00F0BDB9009801224000002374
:10042000D0EB020263EBE073009821464FEAE074E0
:10043000B8EB000061EB0401E9E783F000435BE700
:1004400081F0004158E72DE9FE4F81EA030404F0F2
:10045000004421F0004100944FF0000B23F00043D2
:1004600050EA01045ED052EA03045BD0C3F30A549D
:10047000C1F30A552C44A4F2F3340194A0FB0254B6
:10048000C1F3130141F48011C3F3130343F4801348
:1004900001FB024400FB034E840A970A44EA81549C
:1004A00047EA8357A4FB076802958D0A05FB078579
:1004B0004FEA932C04FB0C542705029D4FEA065883
:1004C00047EA1637B5EB08056EEB070C870E920E60
:1004D00047EA811742EA8312A7FB0201B6EB0B0140
:1004E00064EB00042B0D43EA0C335E1844EB1C5004
:1004F000DA465146E7FB0201C5F313044FEA0B331A
:1005000043EA14534FEA0432019C43EA0603A4F180
:100510000C040294009CCDE900B400F049F903B04A
:10052000BDE8F08F00200146F9E7C10F80EAE070D6
:100530000844CA079623002100F0FDB80EB5C10F8C
:1005400080EAE0700844CA07002140F233438DE896
:100550000E000A460B4600F02BF903B000BD00F078
:10056000004220F00040C10DC0F3160040F400002E
:100570007F2901DA00207047962903DCC1F196013A
:10058000C84001E096398840002AF4D040427047C4
:1005900070B5C1F30A5201F000450024C1F3130104
:1005A00040F2FF3341F480119A4201DA002070BD1D
:1005B00040F233439A42A2F2334203DC5242FFF745
:1005C000B1FD00E090402C43F1D0404270BD00F0FE
:1005D000004230F000400AD0C10D01F56071C0F357
:1005E000160042EA0151C20840071143704700203B
:1005F0000146704701F0004330B421F0004150EA59
:10060000010206D00A0DA2F56072C1F31301002A9F
:1006100002DC30BC00207047440F44EAC104C10032
:10062000E01830BC00EBC25000F07CB8002801DBC1
:10063000C0F10040002901DBC1F100418142704757
:10064000002801DBC0F10040002901DBC1F10041BD
:100650008842704730B50B46014600202022012415
:1006600009E021FA02F59D4205D303FA02F5491B80
:1006700004FA02F52844151EA2F10102F1DC30BD96
:100680002DE9F05F0546002092469B4688460646C7
:10069000814640241BE02846414647462246FFF754
:1006A00041FD53465A46C01A914110D3114618468F
:1006B000224600F016F82D1A67EB01084F46224635
:1006C0000120002100F00DF817EB00094E41201E1B
:1006D000A4F10104DFDC484631462A464346BDE822
:1006E000F09F202A04DB203A00FA02F10020704734
:1006F0009140C2F1200320FA03F319439040704760
:10070000202A06DBCB17203A41FA02F043EAE073D5
:1007100006E041FA02F3D040C2F1200291400843C2
:10072000194670470029A8BF7047401C490008BF00
:1007300020F00100704710B4B0FA80FC00FA0CF011
:1007400050EA010404BF10BC704749B1CCF1200449
:1007500021FA04F411FA0CF118BF012121430843D6
:10076000A3EB0C01CB1D4FEA00614FEA102042BF02
:10077000002010BC704700EBC35010440029A4BFF8
:1007800010BC7047401C490008BF20F0010010BC9D
:10079000704710B5141E73F1000408DA401C41F1D3
:1007A000000192185B411A4301D120F0010010BDF5
:1007B0002DE9F04D92469B4611B1B1FA81F202E06B
:1007C000B0FA80F220329046FFF78BFF04460F46C6
:1007D00040EA0A0041EA0B0153465A46084313D047
:1007E000114653EA010019D0C8F140025046FFF704
:1007F00099FC05460E46504659464246FFF771FFA2
:10080000084305D0012004E020463946BDE8F08DBC
:100810000020054346EAE0762C4337430A986305F7
:10082000E40AA0EB08000022FD0A44EA47540A301B
:1008300002D500200146E9E7010510196941DDE90B
:10084000084500196941BDE8F04DA2E72DE9F04DDA
:1008500081EA030404F0004B21F0004514464FF0F8
:10086000000A23F0004150EA050220D054EA0102B8
:100870001DD0C5F30A570246C5F31303C1F3130095
:10088000C1F30A5640F4801543F48013A7EB060821
:10089000101BD64608F2FD3873EB050002D308F1B1
:1008A000010801E092185B41B8F1000F03DA002063
:1008B0000146BDE8F08D00204FF4801106468446C5
:1008C0000EE0171B73EB050705D3121B63EB050343
:1008D00006434CEA010C49084FEA300092185B418C
:1008E00050EA0107EDD152EA030012D082EA040077
:1008F00083EA0501084305D0101BAB4106D2012253
:10090000002306E000224FF0004302E06FF00102F6
:1009100053101AEB06004CEB085110EB0A0041EBA8
:100920000B01BDE8F04DFFF734BF70B521F0004377
:1009300003430CD0C1F30A550024D5EB040564EB46
:100940000403D617AD1AB34102DB0020014670BD87
:10095000201841EB025170BDC1F30A52C1F31301DB
:1009600040F2FF3341F480119A4202DA002001463E
:10097000704740F233439A42A2F2334202DC5242C1
:10098000FFF7D0BBFFF7ADBE30B5041E71F1000418
:1009900004DB4FF00044404264EB0101141E73F18C
:1009A000000405DB1C464FF00043524263EB040396
:1009B000994208BF904230BD064C074D06E0E06802
:1009C00040F0010394E8070098471034AC42F6D396
:1009D000FFF790FBF858000818590008420005D0AE
:1009E000C0F3C7525242914201DC0020704700EB35
:1009F000C15070472DE9F04D00231A461B1A8A4159
:100A000003DB00200146BDE8F08DC1F30A52C1F3BB
:100A1000130141F480154FF0000BD10702D10018EB
:100A20006D41521E0027044640F2FF11384601EB8B
:100A3000620A3E468046024600204FF48011FFF7CE
:100A400071FBC2197141BB1846EB0100B4EB030CFA
:100A500075EB000C04D3E41A65EB000517460E464F
:100A6000241908F101006D4180463428E3DDF919AD
:100A700046EB0600091BA84103D24FF0FF32134694
:100A800001E0002213461BEB070046EB0A51BDE8CC
:100A9000F04DFFF77EBE70B50446002520688068E3
:100AA00000F0010018B32068806820F00100216880
:100AB000886001F063FA054613E001F05FFA401B1D
:100AC00002280ED92068806800F0010048B1A06AB1
:100AD00040F01000A062E06A40F00100E0620120F6
:100AE00070BD2068806800F001000028E5D100207A
:100AF000F6E700002DE9F05F5E4A911E881E03F0C4
:100B0000A0F85C4A921D911E881E03F0BCF859495A
:100B1000091FB1F90000FFF708FD044621465648B9
:100B200000F0F4F954498868FFF719FD00B2514903
:100B3000091F0880B1F90200FFF7F7FC04462146BF
:100B40004D48183000F0E2F94B49086AFFF707FDFD
:100B500000B24849091F4880B1F90400FFF7E5FCDD
:100B6000044621464448303000F0D0F94249886BB1
:100B7000FFF7F5FC00B23F49091F8880B1F9060074
:100B8000FFF7DCFC06464FF033323C4BFFF75BFCD3
:100B9000804689463A49B1F90000FFF7CFFC064686
:100BA0004FF03332374BFFF74EFC824642464B46FE
:100BB000FFF7A2FB0446FFF7EBFC00B22D49091F2B
:100BC000C8800846C0882E4908802A49091FB1F903
:100BD0000800FFF7B3FC06464FF03332274BFFF710
:100BE00032FC04460D462649B1F90200FFF7A6FC87
:100BF00006464FF03332234BFFF725FC8046224652
:100C00002B46FFF779FB8246FFF7C2FC00B2194979
:100C1000091F088108460089194948801549091F9C
:100C2000B1F90A00FFF78AFC06464FF03332134B46
:100C3000FFF709FC04460D461149B1F90400FFF71E
:100C40007DFC06464FF033320E4BFFF7FCFB80462F
:100C500022462B46FFF750FB8246FFF799FC00B275
:100C60000449091F48810846408905498880BDE834
:100C7000F09F0000FC050020A00000203333C33F9C
:100C80007C0000203333EB3FF0B58BB01E251821DC
:100C900005A8FFF75EFA052677420020039004902E
:100CA000019002900A2000F0BFFFFFF723FF69A028
:100CB00003F0AAFC7348B0F9001073A003F0A4FC81
:100CC0007048B0F9021073A003F09EFC6D48B0F9B3
:100CD000041073A003F098FC6A48B0F9061073A0E2
:100CE00003F092FC6748B0F9081073A003F08CFC85
:100CF0006448B0F90A1073A003F086FC3AE000BF24
:100D00006048C088BDF80C10401A00B2ADF804006D
:100D10005C480089BDF80E10401A00B2ADF806001C
:100D200058484089BDF81010401A00B2ADF80800CC
:100D30005448C088ADF80C0052480089ADF80E0048
:100D400050484089ADF81000BDF9040010F1050FBE
:100D50000BDBBDF90400052807DCBDF9060010F126
:100D6000050F02DBBDF8060008B1012000E00020FD
:100D70000128C5DC281EA5F10101CDB2BFD1002498
:100D80002EE00A2000F050FFFFF7B4FE642C25DBB4
:100D90003C49B1F900100598084405903949B1F96A
:100DA00002100698084406903648B0F90400A0F5F1
:100DB00080400799084407903249B1F90610089815
:100DC000084408902F49B1F908100998084409907F
:100DD0002C49B1F90A100A9808440A90601C84B2A0
:100DE000B4F5B27FCDDB002009E005A951F8201051
:100DF000091209B2364A22F81010411CC8B206285E
:100E0000F3DB34A003F000FC1E48B0F900101EA074
:100E100003F0FAFB1B48B0F902101EA003F0F4FB2C
:100E20001848B0F904101EA003F0EEFB1548B0F905
:100E300006101EA003F0E8FB1248B0F908101EA02F
:100E400003F0E2FB0F48B0F90A101EA003F0DCFB30
:100E50000BB0F0BD3D3D3D3D3D3D3D3D3D3D3D3D4E
:100E60004D505520496E697469616C2056616C75EE
:100E700065203D3D3D3D3D3D3D3D3D3D3D3D3D3D97
:100E80000D0A0000F8050020616363583D25640DDC
:100E90000A000000616363593D25640D0A000000EB
:100EA0006163635A3D25640D0A0000006779726F23
:100EB000583D25640D0A00006779726F593D25641D
:100EC0000D0A00006779726F5A3D25640D0A000013
:100ED000100600203D3D3D3D3D3D3D3D3D3D3D3D00
:100EE0004D5055205468652066696C746572656460
:100EF0002076616C7565203D3D3D3D3D3D3D3D3D70
:100F00003D3D3D3D3D0D0A0000BFFEE72DE9F041AE
:100F100004460D4621692068FFF726F96060616983
:100F20006068FFF721F9064631466068FFF7A6F9C9
:100F3000E0602846A168FFF769F90746E168FFF716
:100F40006BF90646A168FFF70FF9A0604FF07E50DD
:100F5000E168FFF75BF906466168FFF75DF920601D
:100F6000BDE8F08110B5024800F05CFD10BD000046
:100F700020010020704772B600BFFEE707B59CB0A5
:100F80004FF07C511E98FFF747F90A90FE488068A1
:100F90000690FD48006805900699FFF73DF9089016
:100FA000F948C0680690F848406805900699FFF730
:100FB00033F907900899FFF729F94FF0804109901C
:100FC000FFF72AF91990F048C0680690EE4880684B
:100FD00005900699FFF720F90890EB4840680690C5
:100FE000E948006805900699FFF716F907900899F7
:100FF000FFF7BAF84FF080410990FFF70DF91A900A
:10100000E14880680590E048806804900599FFF702
:1010100003F90790DC4840680590DB48406804907D
:101020000599FFF7F9F806900799FFF79DF84FF03B
:1010300080410890FFF7F0F84FF07E510990FFF7DC
:10104000E8F81B90D148B0F904000490FFF76DFA5E
:101050000690CE48B0F904000490FFF766FA0590B8
:101060000699FFF7D9F80890C848B0F90200029035
:10107000FFF75BFA0490C548B0F902000290FFF751
:1010800054FA03900499FFF7C7F80690BF48B0F9E7
:1010900000000290FFF749FA0490BC48B0F9000044
:1010A0000290FFF742FA03900499FFF7B5F8059014
:1010B0000699FFF759F807900899FFF755F8099036
:1010C00003F00AF80B901C98B0F900000890FFF7A5
:1010D0002CFA09900B99FFF79FF816901C98B0F91D
:1010E00002000890FFF721FA09900B99FFF794F896
:1010F00017901C98B0F904000890FFF716FA0990B1
:101100000B99FFF789F818901A980790189806908D
:101110000799FFF781F809901B9807901798069098
:101120000799FFF779F808900999FFF76FF8109081
:101130001B980790169806900799FFF76DF809908D
:1011400019980790189806900799FFF765F8089086
:101150000999FFF75BF81190199807901798069076
:101160000799FFF759F809901A9807901698069072
:101170000799FFF751F808900999FFF747F812907F
:1011800010980890824801680898FFF745F8099080
:1011900080480068014608900998FEF7E5FF7D4900
:1011A0000860119808907A4801680898FFF734F8A9
:1011B000099078484068014608900998FEF7D4FFE6
:1011C0007449486012980890714801680898FFF7C0
:1011D00023F809906F488068014608900998FEF747
:1011E000C3FF6C4988601098014606906A48006801
:1011F000FFF712F808901C98B0F906000590FFF769
:1012000094F966490690FFF707F807900899FEF7EA
:10121000ABFF09905F480068014608900998FEF707
:10122000A3FF13901198014606905B480068FEF7F3
:10123000F3FF08901C98B0F908000590FFF775F9C6
:1012400056490690FEF7E8FF07900899FEF78CFFD5
:10125000099050484068014608900998FEF784FFBD
:1012600014901298014606904B480068FEF7D4FF90
:1012700008901C98B0F90A000590FFF756F9474905
:101280000690FEF7C9FF07900899FEF76DFF0990D9
:1012900040488068014608900998FEF765FF159060
:1012A000159806903848C06805900699FEF7B4FF77
:1012B0000890149804903448806803900499FEF7CD
:1012C000ABFF06903048406880F0004004901398CF
:1012D000014603900498FEF79FFF05900699FEF7DC
:1012E00095FF07900899FEF791FF09900A99FEF77C
:1012F00093FF0F90159806902348806805900699F3
:10130000FEF78AFF0890149804901F48C068039065
:101310000499FEF781FF0690139804901A4800681C
:1013200003900499FEF778FF05900699FEF76EFF8B
:1013300007900899FEF718FF09900A99FEF76CFFCD
:101340000E90159806901048406805900699FEF793
:1013500063FF0890149804900B4800680390049968
:10136000FEF75AFF0690139804900748C068039050
:101370000499FEF751FF05900699FEF7F5FE0790D8
:101380000899FEF743FF0BE090000020F8050020CD
:101390008C00002030060020880000202E9E8B3A12
:1013A00009900A99FEF738FF0D9015980690C248EB
:1013B000006805900699FEF72FFF08901498049096
:1013C000BD48406803900499FEF726FF0690BA488E
:1013D000806880F0004004901398014603900498C0
:1013E000FEF71AFF05900699FEF7BEFE07900899D2
:1013F000FEF7BAFE09900A99FEF70EFF0C90AE4870
:10140000006809900F99FEF7AFFEAB4908600846E7
:10141000406809900E99FEF7A7FEA7494860084664
:10142000806809900D99FEF79FFEA34988600846E1
:10143000C06809900C99FEF797FE9F49C86008465E
:10144000C06806900846C06805900699FEF7E4FE5D
:1014500008909948806804909748806803900499A0
:10146000FEF7DAFE06909448406802909248406881
:1014700001900299FEF7D0FE04908F480068029018
:101480008D48006801900299FEF7C6FE039004990A
:10149000FEF76AFE05900699FEF766FE079008992A
:1014A000FEF762FE099002F017FE0B90824800687A
:1014B00009900B99FEF7B0FE7F4908600846406826
:1014C00009900B99FEF7A8FE7B49486008468068A2
:1014D00009900B99FEF7A0FE774988600846C0681E
:1014E00009900B99FEF798FE7349C860084640685A
:1014F000014602904FF08040FEF78EFE03906E484A
:10150000C068014602900398FEF786FE05906A487F
:101510000068014602904FF08040FEF77DFE039088
:1015200065488068014602900398FEF775FE0490B6
:101530000599FEF76BFE09905F480068014602902E
:101540004FF08040FEF768FE03905B48406801461C
:1015500002900398FEF760FE0590574880680146A8
:1015600002904FF08040FEF757FE03905248C0684B
:10157000014602900398FEF74FFE04900599FEF78E
:10158000F3FD08904C488068014602904FF080407F
:10159000FEF742FE03904848806801460290039897
:1015A000FEF73AFE059044484068014601904FF02E
:1015B0008040FEF731FE02903F48406801460190AE
:1015C0000298FEF729FE4FF07E510390FEF721FEB0
:1015D00004900599FEF71AFE07901C98B0F90A00CE
:1015E0000490FEF7A2FF35490590FEF715FE069020
:1015F0004FF07E510698FFF723F804D33049069840
:10160000FFF714F80DD21E990698FEF705FE059017
:101610001D988068014604900598FEF7A5FD1D9968
:1016200088600998FEF7D3FFCDE9000103F01CFDA7
:101630004FF00052234BCDE90201FEF704FFCDE944
:101640000401FEF7D7FF1D990860DDE9071003F0DC
:1016500043FE1D490590FEF7DFFD1D9948601C986B
:10166000B0F904000290FEF760FF03900799FEF7BF
:10167000D3FD05901C98B0F902000090FEF755FFCD
:1016800001900899FEF7C8FD03901C98B0F900007E
:101690000090FEF74AFF01900999FEF7BDFD029008
:1016A0000399FEF761FD04900599FEF75DFD07497A
:1016B00008601FB000BD000090000020F6FF793DDB
:1016C000000080BFDCA54C40E12E65428400002074
:1016D00038B5024600230020009000BF92F8240095
:1016E000012801D1022038BD012082F8240000BF6A
:1016F0004868072812D21068406B0C79641E04EB0E
:1017000084051F24AC40A0430D796D1E05EB8505B3
:101710000C68AC4020431468606327E048680D28DB
:1017200012D21068006B0C79E41F04EB84051F24AF
:10173000AC40A0430D79ED1F05EB85050C68AC406E
:1017400020431468206311E01068C06A0C790D3CD6
:1017500004EB84051F24AC40A0430D790D3D05EB3F
:1017600085050C68AC4020431468E06208680A28CC
:1017700012D31068C0680C780A3C04EB44050724B7
:10178000AC40A0430D780A3D05EB45058C68AC40A4
:1017900020431468E0600FE0106800690C7804EBE7
:1017A00044050724AC40A0430D7805EB45058C6843
:1017B000AC402043146820610868102802D00868F3
:1017C000112827D1174C1068A0421ED110688068DC
:1017D00000F40000F0B91068806840F4000014685C
:1017E000A0600868102815D10F4800680F4CB0FBA6
:1017F000F4F000EB80004000009002E00098401EF2
:10180000009000980028F9D104E0906A40F0200090
:101810009062012300BF002082F8240000BF184618
:1018200061E70000002401400C00002040420F004E
:101830002DE9F0410446002700250026A84614B9EA
:101840000120BDE8F081A06810B1207D00B100BF8B
:10185000A06A30B90020E06284F82400204600F03D
:1018600089F82046FFF717F90746A06A00F0100034
:10187000002873D1002F71D1A06A20F4885040F065
:101880000200A062E16960680843217B40EA4100F0
:101890000643A068B0F5807F02D0A068012802D17D
:1018A0004FF4807000E000200543207D012811D115
:1018B000207B38B9A069401E4FF4006141EA4030F6
:1018C000054307E0A06A40F02000A062E06A40F013
:1018D0000100E0622068406820F4694028432168E4
:1018E000486020688068214908403043216888604A
:1018F000A068B0F5807F02D0A068012802D14FF423
:10190000807000E00020B0F5807F03D1208A401E67
:101910004FEA00582068C06A20F4700040EA0800CE
:101920002168C8622068806811490840B04208D127
:101930000020E062A06A20F0020040F00100A062F6
:1019400011E0A06A20F0020040F01000A062E06AFE
:1019500040F00100E062012705E0FFE7A06A40F0E7
:101960001000A062012738466BE70000FDF7E1FF99
:10197000FE0E1FFF10B586B00446002002900390B3
:10198000049005902249206888423ED100BF21483A
:10199000806940F400701F4988610846806900F43E
:1019A0000070019000BF00BF00BF0846806940F092
:1019B000080088610846806900F00800019000BFB7
:1019C00000BF012002900320039002A9124800F0FA
:1019D0003FF9124812490860002048600021104871
:1019E00081608021C160490001618900416120213D
:1019F00081610902C16100F0E3F808B1FFF7BBFAA9
:101A000000BF07482062446200BF06B010BD00005E
:101A10000024014000100240000C01400800024078
:101A20002001002070B50446E06B05682068066858
:101A300094F84010042088402840002846D006F042
:101A40000400002842D02068006800F0200028B977
:101A50002068006820F00400216808605749206869
:101A6000884201D1042027E054491431206888427B
:101A700001D1402020E0514928312068884201D11D
:101A8000001519E04D493C312068884202D14FF4DD
:101A9000804011E0494950312068884202D14FF41A
:101AA000802009E0454964312068884202D14FF422
:101AB000800001E04FF08060404908394860E06AEA
:101AC00000287AD02046E16A884776E094F84010F2
:101AD000022088402840A0B306F0020088B32068A6
:101AE000006800F0200040B92068006820F00A007B
:101AF00021680860012084F821003049206888426C
:101B000001D1022028E02D4914312068884201D1FA
:101B1000202021E0294928312068884201D1401540
:101B20001AE026493C312068884202D14FF4005027
:101B300012E0224950312068884203D14FF400302E
:101B40000AE017E01D4964312068884202D14FF451
:101B5000001001E04FF0007018490839486000BFDC
:101B6000002084F8200000BFA06A30B32046A16A9C
:101B7000884722E094F84010082088402840E0B1CF
:101B800006F00800C8B12068006820F00E00216847
:101B9000086094F8401001208840E16B4860012003
:101BA000A06384F8210000BF002084F8200000BF5B
:101BB000206B10B12046216B884770BD08000240A1
:101BC0000146002209B901207047164B0868C01A67
:101BD0001423B0FBF3F08000086412480838C8638F
:101BE000022081F821000868026843F6F070824301
:101BF000D1E901031843CB6818430B6918434B69BB
:101C000018438B691843CB69184302430868026084
:101C100000208863012081F82100002081F8200045
:101C200000BFD1E70800024070B5044600F0A6F9F5
:101C300006462546681C10B104480078054400BFDC
:101C400000F09CF9801BA842FAD370BD0800002068
:101C50002DE9F8470346002294466EE14FF0010853
:101C600008FA02F4D1F8008008EA0400A0427DD10D
:101C7000DFF8DCA2D1F80480A8EB0A09D0453AD0FD
:101C800014DCB8F1030F50D009DCB8F1000F31D0EB
:101C9000B8F1010F1CD0B8F1020F49D120E0B8F122
:101CA000110F18D0B8F1120F42D11EE0B9F5881FFC
:101CB00025D006DCB9F5803F20D0B9F5801F37D19B
:101CC0001AE0B9F5001F18D0B9F5041F30D117E09C
:101CD000D1F80CC02DE0D1F80C8008F1040C28E0FC
:101CE000D1F80C8008F1080C23E0D1F80C8008F141
:101CF0000C0C1EE000BF00BF00BF00BF00BF00BF54
:101D0000D1F80880B8F1000F02D14FF0040C0BE0BD
:101D1000D1F80880B8F1010F03D14FF0080C1C6115
:101D200002E04FF0080C5C6103E04FF0000C00E0B3
:101D300000BF00BFFF2801D8984601E003F1040866
:101D40004646FF2802D84FEA820803E0A2F10808BD
:101D50004FEA88084746D6F800804FF00F0909FA85
:101D600007F928EA09080CFA07F900E088E048EAD0
:101D70000908C6F80080D1F8048008F08058B8F14E
:101D8000805F7DD100BFDFF8CC81D8F8188048F0A3
:101D90000108DFF8C091C9F81880C846D8F8188043
:101DA00008F00108CDF8008000BF00BF4FEAB93845
:101DB0004FEA920958F829504FEA82784FEA187989
:101DC0004FF00F0808FA09F825EA0805DFF88881BE
:101DD000434502D14FF0000816E0DFF8808143450B
:101DE00002D14FF001080FE0DFF87481434502D1C2
:101DF0004FF0020808E0DFF86C81434502D14FF054
:101E0000030801E04FF004084FEA82794FEA19799C
:101E100008FA09F848EA0505DFF84C814FEA92090B
:101E200048F82950D1F8048008F48018B8F5801FCC
:101E30000AD1DFF83881D8F8008048EA0008DFF8D6
:101E40002C91C9F8008009E0DFF82081D8F80080E3
:101E500028EA0008DFF81491C9F80080D1F804805E
:101E600008F40018B8F5001F10D1DFF8008108F160
:101E70000408D8F8008048EA0008DFF8F09000E095
:101E80005AE009F10409C9F800800DE0DFF8DC80B0
:101E900008F10408D8F8008028EA0008DFF8CC90A0
:101EA00009F10409C9F80080D1F8048008F4003869
:101EB000B8F5003F0ED1DFF8B480A8F10408D8F8D7
:101EC000008048EA0008DFF8A490A9F10409C9F8E5
:101ED00000800DE0DFF89480A8F10408D8F80080B5
:101EE00028EA0008DFF88490A9F10409C9F8008005
:101EF000D1F8048008F48038B8F5803F0ED1DFF8BF
:101F00006C80A8F10808D8F8008048EA0008DFF8DB
:101F10005C90A9F10809C9F800800DE0DFF84C8059
:101F2000A8F10808D8F8008028EA0008DFF83C90FB
:101F3000A9F10809C9F80080521CD1F8008028FADC
:101F400002F8B8F1000F7FF489AEBDE8F887000011
:101F5000000011100010024000080140000C014078
:101F60000010014000140140080001400804014035
:101F70000AB1016101E00B04036170470148006888
:101F8000704700000000002070B504460CB9012025
:101F900070BD94F83D0028B9002084F83C0020462C
:101FA00000F03EFB242084F83D002068006820F00B
:101FB0000100216808602068006840F40040216842
:101FC00008602068006820F400402168086000F084
:101FD00097FD05465C496068884206D85B488542A3
:101FE00001D2012007E0002005E05948854201D2D6
:101FF000012000E00020012800D1C9E75548B5FBC9
:10200000F0F62068406820F03F00304321684860C7
:102010004D496068884201D8701C07E04FF4967003
:1020200070434FF47A71B0FBF1F0401C2168096AEB
:1020300021F03F01084321680862434960688842F3
:1020400014D8681E61684900B0FBF1F0401CC0F371
:102050000B00042801D204203DE0681E616849009D
:10206000B0FBF1F0401CC0F30B0034E0A06838B9BD
:10207000681E616801EB4101B0FBF1F0401C0AE011
:10208000681E616801EBC10202EB0111B0FBF1F0C7
:10209000401C40F48040C0F30B0008B901201AE056
:1020A000A06848B9681E616801EB4101B0FBF1F01E
:1020B000401CC0F30B000CE0681E616801EBC1021C
:1020C00002EB0111B0FBF1F0401CC0F30B0040F437
:1020D000804040F400402168C9694CF6FF7291438A
:1020E00008432168C861D4E90701084321680968E9
:1020F00021F0C001084321680860D4E903100843B7
:102100002168896848F2FF3291430843216888605A
:10211000D4E9050108432168C96821F0FF0108439B
:102120002168C8602068006840F0010021680860EC
:1021300000202064202084F83D000020206384F8E3
:102140003E0000BF24E70000A086010080841E003E
:1021500000093D0040420F002DE9FE4F04460F46A6
:1021600090469946DDE90CAB0E9E00200290FFF7E9
:1021700005FF054694F83D00202872D1192301225D
:10218000CA492046009501F008FC10B10220BDE8C4
:10219000FE8F00BF94F83C00012801D10220F6E731
:1021A000012084F83C0000BF2068006800F00100B6
:1021B00028B92068006840F00100216808602068A4
:1021C000006820F4006021680860222084F83D0047
:1021D000402084F83E0000202064C4F824A0A4F825
:1021E0002AB0608D2085B248E0624B4642463946AF
:1021F0002046CDE9006501F07DFA08B10120C6E76F
:10220000208D88B900BF00200190206840690190AE
:1022100020688069019000BF00BF2068006840F41A
:102220000070216808604BE0208D01281AD12068D9
:10223000006820F480602168086072B600BF00204A
:10224000019020684069019020688069019000BF7A
:1022500000BF2068006840F400702168086062B622
:102260002EE020E1208D022819D12068006840F47A
:1022700000602168086072B600BF002001902068ED
:102280004069019020688069019000BF00BF20680C
:10229000006820F480602168086062B610E0206861
:1022A000006840F480602168086000BF0020019051
:1022B00020684069019020688069019000BF00BFDC
:1022C000E2E0208D03287DD8208D012815D12A46F3
:1022D0003146204601F03DFC08B1012057E7206857
:1022E0000069616A0870606A401C6062208D401E4F
:1022F0002085608D401E6085C6E0208D02282CD18F
:10230000334600226B492046009501F046FB08B198
:1023100001203CE772B62068006840F40070216834
:10232000086020680069616A0870606A401C606229
:10233000208D401E2085608D401E608562B620681D
:102340000069616A0870606A401C6062208D401EEE
:102350002085608D401E608596E0334600225549F9
:102360002046009501F019FB08B101200FE7206815
:10237000006820F480602168086072B620680069F7
:10238000616A0870606A401C6062208D401E208572
:10239000608D401E6085484800681921B0FBF1F04F
:1023A0004FF47A71B0FBF1F0C0EBC00000EB80009D
:1023B000029000BF0298401E02900298A8B9002027
:1023C000206300E039E0202084F83D00002084F8FC
:1023D0003E00206C40F02000206462B600BF002068
:1023E00084F83C0000BF0120D1E620684069C0F3BA
:1023F00080000028DED02068006840F4007021686A
:10240000086020680069616A0870606A401C606248
:10241000208D401E2085608D401E608562B620683C
:102420000069616A0870606A401C6062208D401E0D
:102430002085608D401E608526E02A463146204674
:1024400001F087FB08B10120A1E620680069616AFC
:102450000870606A401C6062208D401E2085608D7F
:10246000401E608520684069C0F3800060B120682C
:102470000069616A0870606A401C6062208D401EBD
:102480002085608D401E6085208D00287FF419AF67
:10249000202084F83D00002084F83E0000BF84F82E
:1024A0003C0000BF73E6022071E60000020010004D
:1024B0000000FFFF040001000C0000202DE9FC5F7C
:1024C00004460F4690469946DDE90CAB0E9EFFF799
:1024D00055FD054694F83D0020287DD119230122A1
:1024E0004D492046009501F058FA10B10220BDE890
:1024F000FC9F00BF94F83C00012801D10220F6E7C0
:10250000012084F83C0000BF2068006800F0010052
:1025100028B92068006840F0010021680860206840
:10252000006820F4006021680860212084F83D00E4
:10253000402084F83E0000202064C4F824A0A4F8C1
:102540002AB0608D20853548E0624B4642463946C8
:102550002046CDE9006501F07DF908B10120C6E70C
:1025600031E02A463146204601F038FB50B1206C5C
:10257000042805D12068006840F4007021680860D4
:102580000120B4E7606A007821680861606A401C35
:102590006062208D401E2085608D401E6085206811
:1025A0004069C0F3800070B1208D60B1606A00782E
:1025B00021680861606A401C6062208D401E208591
:1025C000608D401E6085208D0028CAD12A46314684
:1025D000204601F0AFF900E01CE050B1206C042867
:1025E00005D12068006840F400702168086001206F
:1025F0007DE72068006840F40070216808602020B2
:1026000084F83D00002084F83E0000BF84F83C00C0
:1026100000BF6CE702206AE7020010000000FFFF25
:1026200010B586B0044600200290039004900590F7
:1026300015492068884225D100BF1448806940F0C0
:102640000800124988610846806900F0080001907E
:1026500000BF00BFC020029012200390032005900D
:1026600002A90B48FFF7F4FA00BF0848C06940F41C
:1026700000100649C8610846C06900F400100190C6
:1026800000BF00BF06B010BD005400400010024063
:10269000000C0140034800680349097808440149D7
:1026A00008607047000000200800002010B50848AE
:1026B000006840F0100006490860032000F0A8F808
:1026C0000F2000F007F800F02BF8002010BD0000EC
:1026D0000020024070B504460E4800784FF47A712D
:1026E000B1FBF0F00C490968B1FBF0F5284600F0A9
:1026F00091FC08B1012070BD102C07D200222146A8
:10270000501E00F047F80548046001E00120F2E7A0
:102710000020F0E7080000200C000020040000204A
:1027200008B500BF1148806940F001000F49886179
:102730000846806900F00100009000BF00BF00BFA4
:102740000846C06940F08050C8610846C06900F082
:102750008050009000BF00BF00BF0549486820F0CE
:10276000E06040F00070486000BF08BD001002400B
:102770000000014001460846002809DB00F01F0365
:1027800001229A4043099B0003F1E023C3F8002192
:1027900000BF70472DE9F05F80460D4616460027C2
:1027A00001F06AFF074639462A46334601F0070022
:1027B000C0F1070ABAF1040F02D94FF0040A01E090
:1027C000C0F1070AD14600F1040ABAF1070F02D29C
:1027D0004FF0000A01E0A0F1030AD4464FF0010ACD
:1027E0000AFA09FAAAF1010A0AEA020A0AFA0CFA32
:1027F0004FF0010B0BFA0CFBABF1010B0BEA030BD7
:102800004AEA0B042146404601F03EFFBDE8F09F36
:1028100000BF00F00702064B19684FF6FF0319408E
:10282000044B0B4343EA0221014B196000BF704780
:102830000CED00E00000FA05F8B50446002600257E
:10284000207800F0010000286BD000274348C069C1
:1028500000F0805070B900BF4048C06940F080501F
:102860003E49C8610846C06900F08050009000BF32
:1028700000BF01273A48006800F48070B0B93848BA
:10288000006840F4807036490860FFF777FB064621
:1028900006E0FFF773FB801B642801D90320F8BD15
:1028A0002F48006800F480700028F2D02B48006A9E
:1028B00000F440752DB3A08800F44070A84220D0E9
:1028C0002648006A20F4407501202649086000204F
:1028D00008602248056205F0010090B1FFF74EFB49
:1028E000064608E0FFF74AFB801B41F28831884228
:1028F00001D90320D3E71948006A00F0020000283C
:10290000F0D01648006A20F440706168084313490B
:102910000862012F04D10846C06920F08050C861C8
:1029200000BF207800F00200022807D10B48406861
:1029300020F44040A168084308494860207800F02E
:102940001000102807D10548406820F48000E16895
:102950000843024948600020A1E70000001002403F
:10296000007000404004424270B504460D460CB968
:10297000012070BD5A48006800F00700A8420ED23E
:102980005748006820F0070028435549086008466A
:10299000006800F00700A84201D00120E9E7207894
:1029A00000F0020002281DD1207800F00400042865
:1029B00005D14C48406840F4E0604A4948602078BE
:1029C00000F00800082805D14648406840F46050EF
:1029D000444948604348406820F0F000A16808433B
:1029E00040494860207800F0010078B36068012811
:1029F00006D13C48006800F4003090B90120B8E7E7
:102A00006068022806D13748006800F0007040B9BD
:102A10000120AEE73348006800F0020008B9012049
:102A2000A7E73048406820F00300616808432D495B
:102A30004860FFF7A3FA064609E0FFF79FFA801BFC
:102A400041F28831884202D9032092E707E0254805
:102A5000406800F00C006168B0EB810FEDD12048B8
:102A6000006800F00700A8420ED91D48006820F059
:102A7000070028431A4908600846006800F007006C
:102A8000A84201D0012074E7207800F00400042857
:102A900007D11448406820F4E060E1680843114918
:102AA0004860207800F00800082808D10D484068E8
:102AB00020F46050216940EAC1000A49486000F0F2
:102AC0003FF808494968C1F30311074A515CC840FF
:102AD0000649086006480068FFF7FCFD002048E74B
:102AE00000200240001002408E5800080C00002018
:102AF0000400002001480068704700000C0000201E
:102B000000B5FFF7F7FF04494968C1F30221034A02
:102B1000515CC84000BD0000001002409E580008F3
:102B200000B5FFF7E7FF04494968C1F3C221034A32
:102B3000515CC84000BD0000001002409E580008D3
:102B400070B500210022002400230020134D696885
:102B500001F00C05F5B1042D02D0082D19D101E0CA
:102B60000F4819E00F4DC1F38346AB5D01F480358A
:102B700055B10A4D6D68C5F340450B4E725D084D69
:102B80005D43B5FBF2F402E0084D03FB05F420467B
:102B900002E000BF024800BF00BF70BD001002404D
:102BA00000127A007C5800088C58000800093D008B
:102BB000F8B504460CB90120F8BD207800F00100FA
:102BC000002878D0F848406800F00C0004280CD0A9
:102BD000F548406800F00C00082811D1F248406820
:102BE00000F48030B0F5803F0AD1EF48006800F46F
:102BF000003000285FD0606800285CD10120DBE74E
:102C000000BF6068B0F5803F06D1E748006840F437
:102C10008030E549086028E0606858B9E2480068FB
:102C200020F48030E04908600846006820F48020E5
:102C300008601AE06068B0F5A02F0BD1DA48006890
:102C400040F48020D84908600846006840F480308D
:102C500008600AE0D448006820F48030D249086057
:102C60000846006820F48020086000BF606888B1D2
:102C7000FFF784F9054606E0FFF780F9401B64285A
:102C800001D9032098E7C848006800F40030002804
:102C9000F2D010E0FFF772F9054606E0FFF76EF993
:102CA000401B642801D9032086E7BF48006800F470
:102CB00000300028F2D1207800F00200022857D11D
:102CC000B948406800F00C0050B1B748406800F0C7
:102CD0000C00082818D1B448406800F4803098B936
:102CE000B148006800F0020020B12069012801D03D
:102CF000012061E7AC48006820F0F800616940EA13
:102D0000C100A949086033E02069E8B10120A74962
:102D10000860FFF733F9054606E0FFF72FF9401B7F
:102D2000022801D9032047E79F48006800F002000D
:102D30000028F2D09C48006820F0F800616940EA61
:102D4000C1009949086013E0002098490860FFF726
:102D500015F9054606E0FFF711F9401B022801D9D5
:102D6000032029E79048006800F002000028F2D113
:102D7000207800F0080008282DD1A069B8B1012002
:102D80008B490860FFF7FAF8054606E0FFF7F6F80A
:102D9000401B022801D903200EE78348406A00F057
:102DA00002000028F2D0012001F0BEF913E000205B
:102DB0007F490860FFF7E2F8054606E0FFF7DEF816
:102DC000401B022801D90320F6E67748406A00F04C
:102DD00002000028F2D1207800F00400042873D10A
:102DE00000277148C06900F0805070B900BF6E487C
:102DF000C06940F080506C49C8610846C06900F065
:102E00008050009000BF00BF01276A48006800F4AE
:102E10008070B0B96748006840F480706549086008
:102E2000FFF7ACF8054606E0FFF7A8F8401B64285A
:102E300001D90320C0E65F48006800F480700028D4
:102E4000F2D000BFE068012806D15748006A40F080
:102E500001005549086227E0E06858B95248006A05
:102E600020F00100504908620846006A20F0040082
:102E7000086219E0E06805280BD14B48006A40F071
:102E80000400494908620846006A40F001000862EF
:102E90000AE04548006A20F00100434908620846FC
:102EA000006A20F00400086200BFE068A0B1FFF7EC
:102EB00065F8054609E0FFF761F8401B41F28831EB
:102EC000884202D9032077E622E03748006A00F002
:102ED00002000028EFD012E0FFF750F8054608E0A6
:102EE000FFF74CF8401B41F28831884201D903209A
:102EF00062E62D48006A00F002000028F0D1012FA0
:102F000005D12948C06920F080502749C86100BF19
:102F1000E069C8B32448406800F00C00082860D07D
:102F2000E069022848D1002020490866FFF726F80A
:102F3000054606E0FFF722F8401B022801D90320CE
:102F40003AE61948006800F000700028F2D1206AC3
:102F5000B0F5803F07D11448406820F40030A168E4
:102F6000084311494860D4E9080108430E494968FB
:102F700021F4741108430C49486001200B4908668C
:102F8000FEF7FCFF054607E03DE0FEF7F7FF401BBC
:102F9000022801D903200FE60348006800F0007002
:102FA0000028F2D02FE00000001002400000424252
:102FB0008004424200700040002014490866FEF779
:102FC000DDFF054606E0FEF7D9FF401B022801D9C8
:102FD0000320F1E50E48006800F000700028F2D1EF
:102FE00011E0E069012800D1E6E50948466806F4E9
:102FF0008031206A814204D106F47011606A8142F6
:1030000001D00120D8E50020D6E5000000004242B2
:103010000010024070B504462546681EB0F1807F5E
:1030200001D301200FE0681E4FF0E02148610F211D
:103030004FF0FF3001F028FB00204FF0E0218861C5
:1030400007200861002070BD30B502460B4600BF66
:1030500092F83C00012801D1022030BD012082F805
:103060003C0000BF022082F83D00106844681068F0
:10307000816824F070041868044310684460104D9F
:103080001068A8420BD01068B0F1804F07D00D4DEA
:103090001068A84203D00C4D1068A84205D121F059
:1030A00080015868014310688160012082F83D006A
:1030B00000BF002082F83C0000BF00BFCDE7000049
:1030C000002C0140000400400008004010B50446F8
:1030D0000CB9012010BD94F83D0028B9002084F8F7
:1030E0003C00204600F026F8022084F83D00211D17
:1030F000206801F07BF8012084F8460000BF84F8C6
:103100003E0001213F20015540200155412001553D
:1031100000BF00BF012084F8420043200155442035
:1031200001554520015500BF012084F83D000020D5
:10313000D0E7000008B50168B1F1804F0DD100BFA4
:103140000649C96941F00101044AD1611146C969C2
:1031500001F00101009100BF00BF08BD0010024056
:103160002DE9F04104460D46002700BF94F83C00CD
:10317000012802D10220BDE8F081012084F83C0042
:1031800000BF022084F83D002068866826F077069C
:1031900026F47F46206886602868502833D00CDCEF
:1031A000202850D004DC00284BD0102851D149E011
:1031B000302849D040284CD139E060282DD07028E3
:1031C00007D0B0F5805F03D0B0F5005F41D10DE0CE
:1031D00041E0D5E902136A68206801F052F82068DE
:1031E000866846F077062068866034E0D5E90213E9
:1031F0006A68206801F045F82068806840F48040E3
:103200002168886027E0EA686968206801F00AF9A7
:103210005021206801F040F81DE0EA6869682068E4
:1032200001F013F96021206801F036F813E0EA6834
:103230006968206801F0F6F84021206801F02CF858
:1032400009E000BF00BF00BF2968206801F024F832
:1032500001E0012700BF00BF012084F83D0000BF4E
:10326000002084F83C0000BF384684E710B586B0E3
:103270000446002002900390049005902068B0F16D
:10328000804F16D100BF0C48806940F004000A4905
:1032900088610846806900F00400019000BF00BF0B
:1032A0000F20029002200390059002A90348FEF728
:1032B000CFFC06B010BD0000001002400008014025
:1032C0002DE9F04104460D461646002700BF94F84C
:1032D0003C00012802D10220BDE8F081012084F8E1
:1032E0003C0000BF36B1042E1BD0082E31D00C2E6E
:1032F0005ED145E02946206800F0D8FF206880694B
:1033000040F00800216888612068806920F004008E
:10331000216888612068806929690843216888617B
:1033200048E02946206800F0F1FF2068806940F4F9
:103330000060216888612068806920F480602168CD
:10334000886120688069296940EA012021688861D4
:1033500030E02946206801F00DF82068C06940F08F
:1033600008002168C8612068C06920F00400216855
:10337000C8612068C069296908432168C86119E0EB
:103380002946206801F02AF82068C06940F40060EE
:103390002168C8612068C06920F480602168C86124
:1033A0002068C069296940EA01202168C86101E0FC
:1033B000012700BF00BF00BF002084F83C0000BF11
:1033C000384689E710B504460CB9012010BD94F8C1
:1033D0003D0028B9002084F83C00204600F025F884
:1033E000022084F83D00211D206800F0FFFE01202E
:1033F00084F8460000BF84F83E0001213F200155BB
:10340000402001554120015500BF00BF012084F834
:10341000420043200155442001554520015500BF7D
:10342000012084F83D000020D0E7704770B50446C5
:103430000D4615B994F83E000BE0042D02D13F2053
:10344000005D06E0082D02D14020005D01E0412032
:10345000005D012801D0012070BD1DB9022084F853
:103460003E000EE0042D03D102213F20015508E06B
:10347000082D03D102214020015502E00221412004
:10348000015501222946206800F0EAFE194920680A
:10349000884201D1012000E0002028B12068406C62
:1034A00040F40040216848641249206888420BD0EB
:1034B0002068B0F1804F07D00F492068884203D0C0
:1034C0000E49206888420CD12068806800F0070609
:1034D000062E0CD02068006840F0010021680860CA
:1034E00005E02068006840F00100216808600020C5
:1034F000B2E70000002C014000040040000800403A
:1035000010B504460CB9012010BDA06900B100E05F
:1035100000BF94F8410028B9002084F840002046FC
:1035200000F02AF8242084F841002068C06820F4C4
:1035300000502168C860204600F09CFF20680069A8
:1035400020F49040216808612068406920F02A003A
:10355000216848612068C06840F400502168C86054
:1035600000206064202084F8410084F8420000209C
:10357000606300BFC8E7000010B586B004460020B5
:1035800002900390049005901A49206888422ED139
:1035900000BF1948C06940F480201749C861084637
:1035A000C06900F48020019000BF00BF00BF084642
:1035B000806940F0080088610846806900F00800D2
:1035C000019000BF00BF0815029002200390032065
:1035D000059002A90948FEF73BFB4FF400600290FA
:1035E00000200390049002A90448FEF731FB06B0C6
:1035F00010BD00000048004000100240000C0140D7
:103600002DE9F84F04460E46174699464FF0000A3A
:1036100094F8410020284AD106B117B90120BDE82D
:10362000F88F00206064212084F84100FEF7A6FC9A
:103630008246A784E784A068B0F5805F04D1206942
:1036400010B90025B04602E035464FF000081BE0F7
:103650005346002280212046CDF8009000F088FFDC
:1036600008B10320DBE745B9B8F80000C0F3080053
:103670002168486008F1020803E028782168486062
:103680006D1CE08C401EE084E08C0028E0D15346A5
:10369000002240212046CDF8009000F069FF08B1DB
:1036A0000320BCE7202084F841000020B7E7022077
:1036B000B5E700BFFEE7014608684069C0F3802017
:1036C000B0B16FF480600A68506100200863202068
:1036D00081F83D00002081F83E00086C40F00400B5
:1036E000086400BF002081F83C0000BF0120704743
:1036F0000020FCE72DE9F84304460F46154699469D
:10370000DDE908862068006840F480602168086070
:103710002068006840F480702168086043460022F9
:103720004FF001112046009600F037F960B1206893
:10373000006800F48070B0F5807F02D14FF4007013
:1037400020640320BDE8F88307F0FE0021680861CB
:10375000334642463E49204600F07EF908B101203A
:10376000F0E700BF002000902068406900902068CA
:103770008069009000BF00BF32464146204600F0FD
:103780002DFA50B1206C042805D12068006840F45F
:103790000070216808600120D4E7B9F1010F03D15E
:1037A000E8B22168086117E0C5F3072021680861C5
:1037B00032464146204600F011FA50B1206C0428F0
:1037C00005D12068006840F400702168086001207D
:1037D000B8E7E8B22168086132464146204600F069
:1037E000FDF950B1206C042805D12068006840F430
:1037F0000070216808600120A4E72068006840F498
:10380000807021680860434600224FF00111204675
:10381000009600F0C2F858B12068006800F480708B
:10382000B0F5807F02D14FF400702064032089E757
:10383000F8B240F00100216808613346424604496D
:10384000204600F009F908B101207BE7002079E764
:10385000020001002DE9F8430446884615469946C2
:10386000DDE908672068006840F48070216808601E
:10387000334600224FF001112046009700F08DF8EA
:1038800060B12068006800F48070B0F5807F02D1DC
:103890004FF4007020640320BDE8F88308F0FE00B8
:1038A000216808613B4632462149204600F0D4F8A1
:1038B00008B10120F0E700BF0020009020684069B7
:1038C000009020688069009000BF00BF3A463146F2
:1038D000204600F083F950B1206C042805D12068FF
:1038E000006840F40070216808600120D4E7B9F155
:1038F000010F03D1E8B22168086117E0C5F3072082
:10390000216808613A463146204600F067F950B117
:10391000206C042805D12068006840F400702168FC
:1039200008600120B8E7E8B2216808610020B3E729
:103930000200010070B504460D46164625E02046FB
:10394000FFF7B9FE08B1012070BD681CE8B1FEF7B1
:1039500015FB801BA84200D8BDB920684069C0F3A0
:10396000800090B900202063202084F83D000020D2
:1039700084F83E00206C40F02000206400BF00204E
:1039800084F83C0000BF0120DEE720684069C0F3F6
:1039900080000028D3D00020D6E72DE9F04104466E
:1039A0000D4617461E46DDF8188038E0701CA8B397
:1039B000FEF7E4FAA0EB0800B04200D876BBC5F3EE
:1039C000074001280AD120684069A9B20840A9B27D
:1039D000884201D101200BE0002009E020688069C5
:1039E000A9B20840A9B2884201D1012000E000201C
:1039F000B84214D100202063202084F83D0000202C
:103A000084F83E00206C40F02000206400BF0020BD
:103A100084F83C0000BF0120BDE8F081FFE7C5F35A
:103A2000074001280AD120684069A9B20840A9B21C
:103A3000884201D101200BE0002009E02068806964
:103A4000A9B20840A9B2884201D1012000E00020BB
:103A5000B842ABD00020DFE72DE9F04104460D4627
:103A600016461F4658E020684069C0F38020E8B140
:103A70002068006840F40070216808606FF480607E
:103A80002168486100202063202084F83D00002048
:103A900084F83E00206C40F00400206400BF002049
:103AA00084F83C0000BF0120BDE8F081701C90B399
:103AB000FEF764FAC01BB04200D866BBC5F30740EE
:103AC00001280AD120684069A9B20840A9B28842F9
:103AD00001D101200BE0002009E020688069A9B233
:103AE0000840A9B2884201D1012000E0002090B92D
:103AF00000202063202084F83D00002084F83E0050
:103B0000206C40F02000206400BF002084F83C00BE
:103B100000BF0120C8E7FFE7C5F3074001280AD12D
:103B200020684069A9B20840A9B2884201D10120A9
:103B30000BE0002009E020688069A9B20840A9B222
:103B4000884201D1012000E0002000288BD0002015
:103B5000AAE770B504460D46164637E0206840696E
:103B6000C0F30010A0B16FF0100021684861002080
:103B70002063202084F83D00002084F83E00206C63
:103B8000206400BF002084F83C0000BF012070BD0D
:103B9000FEF7F4F9801BA84200D8BDB9206840693F
:103BA000C0F3801090B900202063202084F83D00ED
:103BB000002084F83E00206C40F02000206400BF0C
:103BC000002084F83C0000BF0120E0E72068406945
:103BD000C0F380100028C1D00020D8E770B504469B
:103BE0000D46164625E02046FFF765FD08B1012089
:103BF00070BD681CE8B1FEF7C1F9801BA84200D86F
:103C0000BDB920684069C0F3C01090B9002020639E
:103C1000202084F83D00002084F83E00206C40F015
:103C20002000206400BF002084F83C0000BF012079
:103C3000DEE720684069C0F3C0100028D3D0002020
:103C4000D6E77CB504460D461646062269463B205B
:103C500000F084F89DF801009DF8001040EA012072
:103C600000B220809DF803009DF8021040EA012078
:103C700000B228809DF805009DF8041040EA01205C
:103C800000B230807CBD7CB504460D461646062247
:103C90006946432000F062F89DF801009DF800108D
:103CA00040EA012000B220809DF803009DF8021038
:103CB00040EA012000B228809DF805009DF804101C
:103CC00040EA012000B230807CBD08B500200090A1
:103CD00080216B2000F056F86420FDF7A5FF00213D
:103CE0006B2000F04FF8032000F06AF8002000F08D
:103CF0005FF80021382000F045F80021232000F073
:103D000041F800216A2000F03DF86946752000F076
:103D100011F89DF8000068280BD101216B2000F0FC
:103D200031F84FF4FA7000F070F800216C2000F0C8
:103D300029F808BD3EB504460D464FF0FF3001217D
:103D40000B462246CDE900510290D0210248FEF7F1
:103D500003FA00203EBD000070010020FEB50446BD
:103D60000D4616464FF0FF3001232246D021CDE903
:103D7000005602900248FEF7EFF90020FEBD000059
:103D80007001002013B584B004464FF0FF300121CC
:103D900005AA0B46CDE9002102902246D021034816
:103DA000FEF78CFB002006B010BD00007001002063
:103DB00010B50446E006010E1C20FFF7E3FF10BD1E
:103DC00010B50446E006010E1B20FFF7DBFF10BD17
:103DD00070B504460025BC2C01DB012510E0622CE7
:103DE00001DB02250CE02A2C01DB032508E0142C62
:103DF00001DB042504E00A2C01DB052500E0062593
:103E000029461A20FFF7BEFF70BD70B50446002595
:103E1000B4F57A7F02DD4FF47A7402E0042C00DA04
:103E200004244FF47A7090FBF4F0401EC5B229468A
:103E30001920FFF7A7FF264604EBD671C1F34F0008
:103E4000FFF7C6FF70BD00000EB500200090019086
:103E50000290134813490860002112488160012133
:103E60000173002101754FF46021C16100200D49EB
:103E7000486001210B480161FDF7DAFC08B1FDF74C
:103E80007AF80820009001200190002002906946F5
:103E90000448FDF71DFC08B1FDF76DF80EBD0000EC
:103EA00000240140F000002008B500BF0A48406926
:103EB00040F00100084948610846406900F00100EF
:103EC000009000BF00BF002206210B20FEF762FC1D
:103ED0000B20FEF74FFC08BD0010024000B585B076
:103EE0000020019002900390049000BF2448806954
:103EF00040F01000224988610846806900F01000F7
:103F0000009000BF00BF00BF0846806940F020005D
:103F100088610846806900F02000009000BF00BF63
:103F200000BF0846806940F0040088610846806947
:103F300000F00400009000BF00BF00BF0846806989
:103F400040F0080088610846806900F00800009091
:103F500000BF00BF012240F206310A48FEF708F810
:103F600040F20630019001200290002003900220D0
:103F7000049001A90348FDF76BFE05B000BD0000E9
:103F800000100240000C014010B50B480B490860BE
:103F90000B484860002109488160C1604FF48041AE
:103FA0000161002141618161C1610162FDF7ECFFA6
:103FB00008B1FCF7E0FF10BD005400407001002084
:103FC000A086010000B58DB0002009900A900B90EA
:103FD0000C90079008901C216846FCF7BAF84FF047
:103FE00080402B49086007204860002128488160F4
:103FF00040F2E731C160002101618161FFF766F89D
:1040000008B1FCF7B8FF4FF48050099009A9204887
:10401000FFF7A6F808B1FCF7AEFF1D48FFF7D2F98D
:1040200008B1FCF7A8FF00200790089007A91848DE
:10403000FFF70AF808B1FCF79EFF6020009000200F
:10404000019002900490002269461148FFF738F968
:1040500008B1FCF790FF042269460D48FFF730F9DC
:1040600008B1FCF788FF082269460948FFF728F9DC
:1040700008B1FCF780FF0C2269460548FFF720F9DC
:1040800008B1FCF778FF0248FFF7F0F80DB000BD6B
:10409000C401002010B50B480B4908604FF4E13013
:1040A0004860002108488160C16001610C214161C4
:1040B00000218161C161FFF723FA08B1FCF75BFFC2
:1040C00010BD0000004800400C02002000BFFEE7C9
:1040D00000BFFEE7704700002DE9F05F04464FF097
:1040E0007F594FF07C512046FCF796F882462546D2
:1040F0002E460C48A0EB6606354629465046FCF78E
:104100008BF883462946FCF787F880464946FCF73A
:1041100080F807462946FCF77FF805462846BDE8A3
:10412000F09F0000DF59375F08B508490968C908E2
:104130004FF47A72B1FBF2F14143009100BF00BF2E
:1041400000994A1E00920029F9D108BD0C000020F8
:10415000704710B5FEF79EFA01F0B8FA012801D0B9
:1041600001F09AFA10BD00B593B0282109A8FBF719
:10417000F0FF142104A8FBF7ECFF00200090019051
:10418000029003900120099000040A9000200B90F7
:1041900001200D9002201090C10311914FF4E01105
:1041A000129109A8FEF704FD08B1FCF7E4FE0F2008
:1041B000049002200590002006904FF48060079044
:1041C00000200890022104A8FEF7CEFB08B1FCF7FE
:1041D000D2FE02200090800302906846FEF72CFB7E
:1041E00008B1FCF7C8FE13B000BD704710B50268F7
:1041F000184B984208D0B0F1804F05D0164B98422A
:1042000002D0164B984203D122F070024B681A4339
:10421000104B984208D0B0F1804F05D00E4B984219
:1042200002D00E4B984203D122F44072CB681A435D
:1042300022F080034C6943EA040202608B68C36287
:104240000B688362034B984201D10B69036301231E
:10425000436110BD002C01400004004000080040F4
:1042600030B501F01F05012404FA05F3046A9C43EC
:104270000462046A01F01F0502FA05F52C4304628A
:1042800030BD30B50C46816821F47F4142EA0325F8
:1042900025432943816030BD0A46816821F07001C1
:1042A00042F00703194381607047000030B5026A8D
:1042B000056A25F0010505624368846924F07004ED
:1042C00024F003040D682C4322F002028D682A4377
:1042D0000D4DA84206D100BF22F00802CD682A4346
:1042E00022F00402084DA84207D123F4807323F47E
:1042F00000734D692B438D692B43436084614D6886
:104300004563026230BD0000002C014030B5026AF6
:10431000056A25F0100505624368846924F4E044C9
:1043200024F440740D6844EA052422F020028D68CC
:1043300042EA05120E4DA84207D100BF22F08002CA
:10434000CD6842EA051222F04002094DA84209D187
:1043500023F4806323F400634D6943EA85038D6988
:1043600043EA8503436084614D688563026230BD22
:10437000002C014030B5026A056A25F4807505629B
:104380004368C46924F0700424F003040D682C43CE
:1043900022F400728D6842EA05220F4DA84207D12F
:1043A00000BF22F40062CD6842EA052222F4806256
:1043B000094DA84209D123F4805323F400534D69D9
:1043C00043EA05138D6943EA05134360C4614D68F0
:1043D000C563026230BD0000002C014030B5036AA5
:1043E000056A25F4805505624468C26922F4E042FA
:1043F00022F440720D6842EA052223F400538D68CE
:1044000043EA0533064DA84204D124F480444D69A3
:1044100044EA85144460C2614D680564036230BD9E
:10442000002C014030B50B461446026A056A25F09F
:1044300001050562816921F0F00141EA041122F0D1
:104440000A021A438161026230BD30B50B46144640
:10445000026A056A25F010050562816921F4704140
:1044600041EA043122F0A00242EA031281610262B1
:1044700030BD000070B504462168096921F440513F
:10448000E2681143226811612269A16811436269DF
:1044900041EA02052168C96841F20C62914329434F
:1044A0002268D1602168496921F44071A2691143F1
:1044B000226851612D4A2168914202D1FEF730FBFA
:1044C00001E0FEF71DFB00EBC00101EB001162688B
:1044D0009200B1FBF2F100EBC00202EB0012636844
:1044E0009B00B2FBF3F26423B2FBF3F202EBC203D4
:1044F00003EB0212A1EB8201322202EB01116422D2
:10450000B1FBF2F101F0F00100EBC00202EB00128E
:1045100063689B00B2FBF3F26423B2FBF3F201EB9E
:10452000021200EBC00101EB001163689B00B1FBBC
:10453000F3F100EBC00303EB00136668B600B3FBB6
:10454000F6F36426B3FBF6F303EBC30606EB0313A3
:10455000A1EB8301322303EB01116423B1FBF3F1DF
:1045600001F00F0111442268916070BD00380140D4
:104570002DE9F04104460D4617469846069E34E064
:10458000701C88B32EB1FDF7F9FCA0EB0800B04217
:104590002BD900BF00BF21680C3151E8001F21F466
:1045A000D07021680C3141E80002002AF3D100BF2D
:1045B00000BF00BF2168143151E8001F21F0010045
:1045C0002168143141E80002002AF3D100BF202005
:1045D00084F8410084F8420000BF002084F84000C5
:1045E00000BF0320BDE8F081FFE720680068284095
:1045F000A84201D1012000E00020B842C0D0002034
:10460000F0E700BFFEE700000FB4054B10B503A9AB
:10461000044A029800F090F910BC5DF814FB000009
:1046200035550008E8000020490050EAC12018BFB5
:1046300004204A0D18BF40F0010040F2FF72B2EBB7
:10464000515F08BF40F00200012808BF05207047F5
:104650004100080218BF04200A0E18BF40F00100F4
:104660004FF07F4232EA010108BF40F0020001280A
:1046700008BF05207047000002480068C0F3022010
:10468000704700000CED00E010B5002804DB0A07BD
:10469000130E054A135406E00A07140E034A00F0ED
:1046A0000F031B1FD45410BD00E400E018ED00E020
:1046B0002DE9F0414F1E00EBC7010446D1E900018E
:1046C00015461E4637F006020DD02A463346FBF744
:1046D000BAFE7F1E04EBC703D3E90023FBF70CFEF1
:1046E00037F00602F1D1022F25D0042F13D0062F68
:1046F00018BFBDE8F0812A463346FBF7A4FED4E993
:104700000A23FBF7F9FD2A463346FBF79CFED4E962
:104710000823FBF7F1FD2A463346FBF794FED4E964
:104720000623FBF7E9FD2A463346FBF78CFED4E966
:104730000423FBF7E1FD2A463346FBF784FED4E968
:104740000223FBF7D9FD2A463346FBF77CFED4E96A
:104750000023BDE8F041FBF7CFBD0122FCF7E5B82F
:104760000022134610461146FCF770B8024A00209A
:104770001107FCF7DAB8000001FDFFFFFBF7F4BCFE
:104780006FF05E010807FCF729B902E008C8121FA4
:1047900008C1002AFAD170477047002001E001C12A
:1047A000121F002AFBD170470149086070470000C2
:1047B000EC0000202DE9FF5F82B00021DDE904302C
:1047C000020DDDF840B0034318D044F61050A2F2B9
:1047D000FF3242431514119801281FD0A5EB0B009E
:1047E000401C5FEA000A4FF000064E4FDFF8389198
:1047F000B046504615D5CAF1000413E011980124C3
:104800004AA3012801D16FEA0B010298119AC0E96D
:104810000031C0E9024206B0BDE8F09FCBF10000D4
:10482000DFE704460021404A491842EB0450CDE935
:10483000001012E0E00707D032463B4640464946AA
:10484000FBF701FE8046894632463B461046194634
:10485000FBF7F9FD06460F466410002CEAD1DDE9AE
:104860000401DDE90023BAF1000F06DAFBF7EBFDE6
:1048700042464B46FBF7E7FD05E0FBF7E7FF424604
:104880004B46FBF7E3FF04460E460022284BFCF79D
:104890007BF803D84FF0FF30014607E00022254B9C
:1048A00020463146FBF728FDFCF756F8102409E0B6
:1048B000002C0ADB0A220023FBF7E2FE039B3032C6
:1048C0001A55641E50EA0102F2D1641C039AC4F125
:1048D00011031444119A012A03D0012208430DD177
:1048E0000AE0084304D000204FF0110B119072E74A
:1048F000A3EB0B056D1E0DE05B4504DD4FF00002E0
:1049000005F1010504E003DA4FF00002A5F101050D
:10491000002AECD002981199C0E90231C0E90045A3
:1049200079E70000000014400000F03F3000000074
:104930000000F0430000E03F2DE9FF4F95B09B469B
:104940008946064600250FE2252877D10024274610
:10495000F84A0121059400E0044316F8013F203B8A
:1049600001FA03F01042F7D130782A2811D06FF005
:104970002F033078A0F13002092A16D8059A44F0A6
:10498000020402EB820203EB42021044761C059003
:10499000EFE759F8042B0592002A03DA504244F459
:1049A0000054059044F00204761C30782E2816D16D
:1049B00016F8010F44F004042A280DD06FF02F02DE
:1049C0003078A0F13003092B09D807EB870302EBFD
:1049D0004303C718761CF3E759F8047B761C30783C
:1049E0006C280FD006DC4C2817D068280DD06A2818
:1049F00014D104E0742810D07A280FD10DE044F4CB
:104A000000140AE044F4801401E044F44014727885
:104A1000824202D104F58014761C761C3078662818
:104A20000BD013DC582877D009DC002875D0452836
:104A3000F6D04628F4D047281AD19DE118E0632823
:104A400035D0642879D0652812D195E1702873D0CB
:104A500008DC6728F1D069286FD06E280DD06F2848
:104A600006D1B5E073282CD0752875D0782874D07D
:104A70005A46179990476D1C75E1C4F302500228FD
:104A800009D003280DD0D9F8001004280DD00D60EE
:104A900009F1040967E1D9F80010EA17C1E90052E9
:104AA000F6E7D9F800100D80F2E70D70F0E719F87D
:104AB000041B8DF8001000208DF80100EA4601204B
:104AC00003E059F804AB4FF0FF3061074FF00001ED
:104AD00002D40DE008F101018846B9420FDA8045A1
:104AE000F8DB1AF808100029F4D108E008F10101F8
:104AF00088468142FADB1AF808100029F6D1059899
:104B00005B46A0EB080721463846179A00F094FA56
:104B1000284400EB080507E04DE029E10DE01AF814
:104B2000010B5A4617999047B8F10108F7D25B4636
:104B300021463846179A13E142E00A220092C4F354
:104B400002524FF0000A022A08D059F804CB032A77
:104B50004FEAEC710AD00DE029E02AE009F10701E3
:104B600021F00702F2E802C1914609E00FFA8CFC3D
:104B70004FEAEC71042A03D14FFA8CFC4FEAEC7136
:104B8000002907DA0A460021DCF1000C61EB020182
:104B90002D2202E0220504D52B228DF804200122CB
:104BA00003E0E20701D02022F7E7904659E00A210E
:104BB00002E010220DE010214FF0000A00910BE0FE
:104BC00010224FF0000A44F004040827009203E08A
:104BD00008224FF0000A0092C4F30252022A05D0C4
:104BE00059F804CB0021032A08D009E009F1070194
:104BF00021F00702F2E802C1914605E01FFA8CFCA1
:104C0000042A01D10CF0FF0C4FF00008220728D530
:104C1000702806D0009B83F0100353EA0A0305D0E6
:104C20000EE040228DF80420012208E05CEA010237
:104C300006D030228DF804208DF80500022290461F
:104C4000009B83F0080353EA0A030AD15CEA0102DD
:104C500001D1620705D530228DF804204FF00108FC
:104C60007F1E582804D034A003900EA802900DE0B7
:104C700036A0F9E753466046009AFBF701FD8446EB
:104C80000398825C0298401E029002705CEA010068
:104C9000F0D1029806A9081A00F1200A600702D58F
:104CA00024F4803400E00127574502DDA7EB0A0019
:104CB00000E0002000EB0A01009005984144401AF2
:104CC0000590E00306D45B462146179A059800F04C
:104CD000B3F90544002706E001A85A46C05D1799BC
:104CE00090476D1C7F1C4745F6DBE0030CD55B4607
:104CF0002146179A059800F09FF9054404E03020FA
:104D00005A46179990476D1C0099481E009000293B
:104D1000F5DC08E0029802995A460078491C029195
:104D2000179990476D1CBAF10001AAF1010AF1DC54
:104D300065E100000928010030313233343536375F
:104D400038396162636465660000000030313233D7
:104D50003435363738394142434445460000000077
:104D600000F058F90544761C307800287FF4ECAD4B
:104D700019B02846BDE8F08F620700D4062709F174
:104D8000070222F0070CFCE80223E14603F000488A
:104D90005FEA080C02D00FF2702C0DE05FEA045CB1
:104DA00002D50FF2682C07E05FEAC47C02D00FF254
:104DB000602C01E0AFF2700C4FF0FF3823F000439D
:104DC000CDF850C065280CD006DC452809D046280F
:104DD0001DD047283DD13DE0662818D067287ED1F8
:104DE00038E00021112F01DB112000E0781CCDE913
:104DF000000106A90EA8FFF7DDFCDDE90F010E9A00
:104E000003910021009207F1010A04914DE04FF057
:104E100000400097CDE9011006A90EA8FFF7CAFCD3
:104E2000DDE90F0203920E9B11990022DDF80CA020
:104E30000093049211B9791C00EB010AB7EB0A0048
:104E400004D4C0F1FF3007F1010A0490AAEB070077
:104E5000019044E0012F00DA01270021112F01DD2C
:104E6000112000E03846CDE9000106A90EA8FFF7A1
:104E7000A1FCDDE90F010E9A03910021049100923B
:104E8000BA4621070CD40399514500DA8A46BAF193
:104E9000010F05DD009AAAF10101515C302908D00B
:104EA000B84202DA10F1040F06DA0121CDE901104F
:104EB00015E0AAF10101E9E7002805DC04990144A5
:104EC0000491AAEB000102E0411C514500DD8A4635
:104ED0000499401A401C01904FF0004002902007B6
:104EE00004D40198504501DBCDF8048000208DF8F2
:104EF0004F0002980DF14F07B0F1004F25D02B2045
:104F00000E9002984FF0020800280CDA40420290FE
:104F10002D200E9007E00A210298FBF79BFB303111
:104F2000029007F8011DB8F10001A8F10108F2DCB8
:104F300002980028EFD1791E0E980870307800F0A2
:104F4000200040F0450007F8020D12A8C01B00F138
:104F500007081498007800B1012000EB0A010198BD
:104F600001EBE07105984144401A401E0590E003B2
:104F700006D45B462146179A059800F05DF8054473
:104F80001498007818B15A46179990476D1CE003A1
:104F900024D55B462146179A059800F04DF8054444
:104FA0001CE00498002807DBDDE90301884203DDEB
:104FB0000098405C179901E0179930205A469047B5
:104FC000049805F10105401C04900198401E0190D1
:104FD00004D12E205A46179990476D1CBAF1000152
:104FE000AAF1010ADDDC05E017F8010B5A46179912
:104FF00090476D1CB8F10001A8F10108F4DC5B4694
:105000002146179A0598ABE62D0000002B00000002
:10501000200000002DE9F041044600251E461746F9
:10502000880404D405E039462020B0476D1C641E76
:10503000F9D52846BDE8F0812DE9F0410446002568
:105040001E469046C80301D5302700E0202788047B
:1050500004D505E041463846B0476D1C641EF9D5BD
:105060002846BDE8F08100002DE9F04D8D4F21F07C
:10507000004A86B005460C46BA452ADBAAEB070073
:1050800028430AD08848824501DC1AD1CDB106B048
:105090002846BDE8F04DFFF760BB844A844B2846A4
:1050A000FBF7D1F907460E46824A834B2846214634
:1050B000FBF7C9F906B03A463346BDE8F04DFBF7B9
:1050C0001BB90120FFF770FB06B0BDE8F04DFFF7FC
:1050D00047BB7A48824542DABAF1795F0BDA284653
:1050E000FFF7A2FA042808BFFFF740FB284606B0E6
:1050F0002146BDE8F08D2A460B461046FBF7A3F982
:10510000834602466E480E460B4606217844FFF75A
:10511000CFFA5A463346FBF796F9804669488A46E5
:105120005A46334604217844FFF7C2FA5A463346BA
:10513000FBF789F900223B46FBF7DEF802460B46F7
:1051400040465146FBF782FB2A462346FBF77BF994
:1051500006B02A462346BDE8F04DFBF7CDB82846F9
:1051600024F0004100223D463B46FBF769F94FF031
:10517000FF32FBF7DAFB0646024653480F460B4662
:1051800006217844FFF794FA32463B46FBF75BF979
:10519000CDE900014D4832463B4604217844FFF7F3
:1051A00087FA32463B46FBF74EF900222B46FBF7C7
:1051B000A3F8834602913046394600F047FA80460C
:1051C00043480D46504517DCDDE900015A46029B75
:1051D000FBF73CFB42462B46FBF735F942462B4694
:1051E000FBF78AF80122FBF7A0FB304A304BFBF7B4
:1051F00024F9304A304B4CE04FF0000A52460B463F
:105200004046FBF779F8CDE9031052462B4610468D
:105210001946FBF718F932463B46FBF711F9DDE971
:105220000332FBF713FB06460F46DDE900015A4641
:10523000029BFBF70BFB8346009101223046394667
:10524000FBF773FB194A1A4BFBF7FAF806460F46B1
:10525000012240462946FBF768FB5A46009BFBF7B4
:10526000F2F832463B46FBF7E8F806460F460122C5
:1052700050462946FBF759FB0E4DDFF858802A4669
:105280004346FBF7DDF832463B46FBF7D9F82A46A2
:105290004346FBF7D5F8002CD8BF81F0004106B09B
:1052A000BDE8F08D0000F03F0000F07F075C143394
:1052B00026A6913C182D4454FB21F93F0000E03F05
:1052C00098070000AE070000220700003807000022
:1052D0003333EF3FFB21E93F2DE9F0474FF06842C0
:1052E00002EB40030C460546B3F1654F3CBF02EBB1
:1052F0004102B2F1654F7CD2C0F3C753C1F3C7522C
:105300009A1A1B2A06DD10F0004F14BF7648774822
:10531000BDE8F08712F11A0F17DA11F0004F06D02E
:1053200010F0004F0CBF72487248BDE8F08721466C
:105330002846FAF7A3FF0446FFF78AF9042808BFB6
:10534000FFF71EFA2046BDE8F0874200B2EB410F9E
:1053500025D910F0004F19BF674F684E684F694E4E
:10536000224685F0004415460A4680F0004110466A
:105370000A1A5200B2F1807F40D248406249DFF8F9
:105380008CA110F0004F18D04FF03F483846FAF784
:105390003DFF074651463046FAF738FF17E011F057
:1053A000004F04BF00263746E2D010F0004F19BF6F
:1053B000574F584E584F594EDAE74FF07C58384601
:1053C000FAF7D2FE074651463046FAF7CDFE0646BA
:1053D00041462846FAF720FF2146FAF7C5FE8246E5
:1053E00021464046FAF718FF2946FAF712FF5146C0
:1053F00000E037E0FAF742FF044604E02146284681
:10540000FAF73CFF04460146FAF706FF8046444996
:10541000FAF702FF4349FAF7A7FE4146FAF7FCFE06
:105420004149FAF7A1FE4146FAF7F6FE3F49FAF77D
:105430009BFE4146FAF7F0FE3D49FAF795FE054618
:1054400041462046FAF7E8FE2946FAF7E5FE3146DE
:10545000FAF78AFE2146FAF787FE3946BDE8F0479B
:10546000FAF782BE4FF07F42B2EB400F28BFB2EB9B
:10547000410F03D2BDE8F047FFF780B940EA0103CE
:105480005B0008BF44F0FF410AD0B2EB400F08BFF9
:10549000B2EB410F06D125F0804024F08041054653
:1054A0000C4629E7B2EB400F12BF5FEA410245F01C
:1054B000FF4004F000413FF41FAF4A0092EA40036E
:1054C0003FF51AAF002AACBF4FF09F464FF03E5653
:1054D0003146FAF7A1FE054631462046FAF79CFE12
:1054E00004462846214607E7DB0FC9BFDB0FC93F4B
:1054F000DB0F4940DB0F49C00000C9BF22AAFDB93C
:105500000000C93F22AAFD390060ED3EC30ACE3734
:10551000000049C022AA7DBA0000494022AA7D3A73
:105520002DAD65BD8FB8D53D0FB511BE61C84C3EE0
:10553000A8AAAABE13B50C464FF47A730122694695
:105540000248FEF75DF800981CBD00000C02002028
:10555000FDF7ACF8FEF707FEFEF7C0FCFEF7A4FC73
:10556000FEF730FDFEF796FDFEF76EFCFEF70CFD34
:10557000FEF7ABFB00211B48FDF758FF042119483B
:10558000FDF754FF08211748FDF750FF0C2115487F
:10559000FDF74CFF24E0FBF777FB134A134914484F
:1055A000FBF7ECFC11490868FBF711F804462246AA
:1055B0000B4610A0FFF728F80C494868FBF707F8DE
:1055C000044622460B460FA0FFF71EF807498868DD
:1055D000FAF7FDFF044622460B460DA0FFF714F82C
:1055E000D9E70000C4010020A69BC43B04060020AC
:1055F000F805002070697463683D252E31660D0A38
:1056000000000000726F6C6C3D252E31660D0A00A3
:105610007961773D252E31660D0A00000948006842
:10562000006808B9012000E0002020B14FF0FF30F1
:105630000549086005E003480068C0680068024941
:105640000860704714000020400000202DE9F04160
:1056500006460F46FBF7CEF9041E0D4618BF012083
:10566000284320F00040C0F17F6000F1E040C00F0F
:105670000ED0301C18BF0120384320F00040C0F18C
:105680007F6000F1E040C00F04BF0120FFF78CF8FD
:1056900020462946BDE8F08110B500BF502080F3B8
:1056A0001188BFF34F8FBFF36F8F00BF00F01EF85C
:1056B00018B14FF080500449086000BF002080F30B
:1056C000118800BF10BD000004ED00E00549096825
:1056D00009B9012005E00449096809B9022000E080
:1056E000002070472C0000204C0000202DE9F041E4
:1056F00000275748006800287ED156480068451C9E
:10570000544805608DB95448D0F80080534800686B
:10571000514908605148C0F8008051480068401C59
:105720004F490860FFF77AFF00BF4E480068854286
:1057300076D300BF48480068006808B9012000E03F
:10574000002020B14FF0FF304649086067E0424832
:105750000068C068C4686668B54202D24148066005
:105760005DE06069D4E902128A60D4E902214A60EE
:10577000211D42688A4201D1E168416000226261D4
:105780000168491E0160A06A98B1A06AD4E90712B5
:105790008A60D4E907214A6004F1180142688A420C
:1057A00001D1216A41600022A2620168491E0160A4
:1057B00000BF94F82C10012088402B490968084349
:1057C00029490860E16A01EB8101284A02EB810165
:1057D0004868A0608268E260211D82685160816033
:1057E000E16A01EB8101214A02EB81026261E16A17
:1057F00001EB81011D4A00E022E052F82110491C12
:10580000E26A02EB8202194B43F822101849E06A5F
:105810000968C96A88428DD901278BE700E000BF7B
:1058200013480068C06A00EB8000104951F820005E
:10583000012800D901270F48006800B1012704E0C2
:105840000D480068401C0C4908603846BDE8F081EE
:105850004C0000202400002014000020180000202C
:1058600038000020400000202800002054020020C2
:105870001000002034000020300000200203040546
:10588000060708090A0B0C0D0E0F1010010200008C
:1058900000000000000001020304060708090000E0
:1058A0000000010203040000555555555555C53FEC
:1058B0007D6FEB0312D6D4BF5544880E55C1C93F46
:1058C0003B8F68B52882A4BF88B20175E0EF493FDD
:1058D00009F7FD0DE13D023F4B2D8A1C273A03C01D
:1058E000C88A599CE52A004059018D1B6C06E6BF09
:1058F00082922EB1C5B8B33F1859000800000020AD
:10590000F00000008A470008085A0008F000002054
:10591000500900009A470008000000001000000035
:10592000010000000024F40000000000000000005E
:105930000000000000000000000000000000000067
:105940000000000000000000000000000000000057
:105950000000000000000000000000000000000047
:105960001F0000000000000038050020580500203E
:105970007805002098050020B8050020D8050020F3
:10598000000000000000000000007A45E80301006C
:105990000000000000000000000000000000000007
:1059A000CDCC4C3F52499D390000803F00000000A3
:1059B00000000000000000000AD7A33C0000000027
:1059C00000000000000000006F12833A0C020B3F41
:1059D0000AD7A33C00000000000000000000000007
:1059E0006F12833A0C020B3F0AD7A33C0000000061
:1059F00000000000000000006F12833A0C020B3F11
:085A000000000000000000009E
:04000005080000ED02
:00000001FF
