:020000040800F2
:1000000000090020010100081D3000081326000827
:100010001930000869020008BF370008000000001E
:100020000000000000000000000000000D33000888
:100030007D02000800000000E13100080F330008D5
:100040001B0100081B0100081B0100081B01000820
:100050001B0100081B0100081B0100081B01000810
:100060001B0100081B0100081B0100086D020008AD
:100070001B0100081B0100081B0100081B010008F0
:100080001B0100081B0100081B0100081B010008E0
:100090001B0100081B0100081B0100081B010008D0
:1000A0001B0100081B0100081B0100081B010008C0
:1000B0001B0100081B0100081B0100081B010008B0
:1000C0001B0100081B0100081B0100081B010008A0
:1000D0001B0100081B0100081B0100081B01000890
:1000E0001B0100081B0100081B010008DFF80CD0F1
:1000F00000F07AF800480047BD3C000800090020E5
:100100000648804706480047FEE7FEE7FEE7FEE7B1
:10011000FEE7FEE7FEE7FEE7FEE7FEE7A73300089F
:10012000ED000008202A04DB203A21FA02F0002129
:10013000704721FA02F3D040C2F1200291400843F7
:1001400019467047D2B201E000F8012B491EFBD2DC
:1001500070470022F6E710B513460A4604461946D2
:10016000FFF7F0FF204610BD2DE9F05F05460020A7
:1001700092469B4688460646814640241BE0284618
:10018000414647462246FFF7CDFF53465A46C01A1E
:10019000914110D311461846224600F016F82D1A48
:1001A00067EB01084F4622460120002100F00DF8C0
:1001B00017EB00094E41201EA4F10104DFDC484684
:1001C00031462A464346BDE8F09F202A04DB203A08
:1001D00000FA02F1002070479140C2F1200320FA9A
:1001E00003F3194390407047064C074D06E0E06862
:1001F00040F0010394E8070098471034AC42F6D36E
:10020000FFF778FFA03F0008C03F000870B5044624
:1002100000252068806800F0010018B3206880681D
:1002200020F001002168886000F094FC054613E08E
:1002300000F090FC401B02280ED92068806800F076
:10024000010048B1A06A40F01000A062E06A40F0EE
:100250000100E062012070BD2068806800F00100AC
:100260000028E5D10020F6E700BFFEE710B5024800
:1002700000F0C4F910BD000090000020704700009D
:1002800001B582B04FF4FA60012301AA02A90090DF
:10029000024801F04FFD9DF804000EBD340100201E
:1002A00072B600BFFEE7000038B50246002300200A
:1002B000009000BF92F82400012801D1022038BD2F
:1002C000012082F8240000BF4868072812D2106875
:1002D000406B0C79641E04EB84051F24AC40A043E2
:1002E0000D796D1E05EB85050C68AC402043146844
:1002F000606327E048680D2812D21068006B0C7903
:10030000E41F04EB84051F24AC40A0430D79ED1FCE
:1003100005EB85050C68AC4020431468206311E0B0
:100320001068C06A0C790D3C04EB84051F24AC40B6
:10033000A0430D790D3D05EB85050C68AC402043CD
:100340001468E06208680A2812D31068C0680C7844
:100350000A3C04EB44050724AC40A0430D780A3D59
:1003600005EB45058C68AC4020431468E0600FE065
:10037000106800690C7804EB44050724AC40A043E6
:100380000D7805EB45058C68AC402043146820616E
:100390000868102802D00868112827D1174C106867
:1003A000A0421ED11068806800F40000F0B9106807
:1003B000806840F400001468A0600868102815D117
:1003C0000F4800680F4CB0FBF4F000EB80004000D9
:1003D000009002E00098401E009000980028F9D19B
:1003E00004E0906A40F020009062012300BF0020EA
:1003F00082F8240000BF184661E700000024014095
:100400000C00002040420F002DE9F0410446002777
:1004100000250026A84614B90120BDE8F081A06897
:1004200010B1207D00B100BFA06A30B90020E062A9
:1004300084F82400204600F089F82046FFF7E6FE05
:100440000746A06A00F01000002873D1002F71D178
:10045000A06A20F4885040F00200A062E169606860
:100460000843217B40EA41000643A068B0F5807F45
:1004700002D0A068012802D14FF4807000E0002073
:100480000543207D012811D1207B38B9A069401E89
:100490004FF4006141EA4030054307E0A06A40F0B4
:1004A0002000A062E06A40F00100E062206840683D
:1004B00020F4694028432168486020688068214909
:1004C0000840304321688860A068B0F5807F02D082
:1004D000A068012802D14FF4807000E00020B0F540
:1004E000807F03D1208A401E4FEA00582068C06AEE
:1004F00020F4700040EA08002168C8622068806823
:1005000011490840B04208D10020E062A06A20F002
:10051000020040F00100A06211E0A06A20F0020099
:1005200040F01000A062E06A40F00100E0620127A4
:1005300005E0FFE7A06A40F01000A06201273846FE
:100540006BE70000FDF7E1FFFE0E1FFF10B586B060
:1005500004460020029003900490059022492068F0
:1005600088423ED100BF2148806940F400701F4995
:1005700088610846806900F40070019000BF00BFE8
:1005800000BF0846806940F008008861084680691D
:1005900000F00800019000BF00BF0120029003207E
:1005A000039002A9124800F03FF91248124908606E
:1005B000002048600021104881608021C16049000E
:1005C000016189004161202181610902C16100F05E
:1005D000E3F808B1FFF764FE00BF074820624462F9
:1005E00000BF06B010BD0000002401400010024012
:1005F000000C0140080002409000002070B5044645
:10060000E06B05682068066894F840100420884074
:100610002840002846D006F00400002842D0206878
:10062000006800F0200028B92068006820F004006D
:100630002168086057492068884201D1042027E0DA
:10064000544914312068884201D1402020E05149AA
:1006500028312068884201D1001519E04D493C310C
:100660002068884202D14FF4804011E0494950315E
:100670002068884202D14FF4802009E04549643166
:100680002068884202D14FF4800001E04FF0806082
:10069000404908394860E06A00287AD02046E16A7B
:1006A000884776E094F84010022088402840A0B3A4
:1006B00006F0020088B32068006800F0200040B90E
:1006C0002068006820F00A0021680860012084F892
:1006D000210030492068884201D1022028E02D49BC
:1006E00014312068884201D1202021E02949283195
:1006F0002068884201D140151AE026493C31206823
:10070000884202D14FF4005012E022495031206853
:10071000884203D14FF400300AE017E01D496431EC
:100720002068884202D14FF4001001E04FF00070C1
:1007300018490839486000BF002084F8200000BF35
:10074000A06A30B32046A16A884722E094F840109E
:10075000082088402840E0B106F00800C8B12068B1
:10076000006820F00E002168086094F84010012015
:100770008840E16B48600120A06384F8210000BF3D
:10078000002084F8200000BF206B10B12046216BB0
:10079000884770BD080002400146002209B90120C7
:1007A0007047164B0868C01A1423B0FBF3F08000A2
:1007B000086412480838C863022081F821000868DC
:1007C000026843F6F0708243D1E901031843CB6815
:1007D00018430B6918434B6918438B691843CB695D
:1007E000184302430868026000208863012081F8F2
:1007F0002100002081F8200000BFD1E7080002405E
:1008000070B5044600F0A6F906462546681C10B1EE
:1008100004480078054400BF00F09CF9801BA84202
:10082000FAD370BD080000202DE9F84703460022E6
:1008300094466EE14FF0010808FA02F4D1F8008006
:1008400008EA0400A0427DD1DFF8DCA2D1F80480E0
:10085000A8EB0A09D0453AD014DCB8F1030F50D008
:1008600009DCB8F1000F31D0B8F1010F1CD0B8F19C
:10087000020F49D120E0B8F1110F18D0B8F1120FD2
:1008800042D11EE0B9F5881F25D006DCB9F5803FBE
:1008900020D0B9F5801F37D11AE0B9F5001F18D064
:1008A000B9F5041F30D117E0D1F80CC02DE0D1F814
:1008B0000C8008F1040C28E0D1F80C8008F1080C39
:1008C00023E0D1F80C8008F10C0C1EE000BF00BF43
:1008D00000BF00BF00BF00BFD1F80880B8F1000F13
:1008E00002D14FF0040C0BE0D1F80880B8F1010FF1
:1008F00003D14FF0080C1C6102E04FF0080C5C6162
:1009000003E04FF0000C00E000BF00BFFF2801D85B
:10091000984601E003F104084646FF2802D84FEA52
:10092000820803E0A2F108084FEA88084746D6F893
:1009300000804FF00F0909FA07F928EA09080CFAB4
:1009400007F900E088E048EA0908C6F80080D1F815
:10095000048008F08058B8F1805F7DD100BFDFF8D7
:10096000CC81D8F8188048F00108DFF8C091C9F8A8
:100970001880C846D8F8188008F00108CDF8008023
:1009800000BF00BF4FEAB9384FEA920958F8295022
:100990004FEA82784FEA18794FF00F0808FA09F801
:1009A00025EA0805DFF88881434502D14FF00008A9
:1009B00016E0DFF88081434502D14FF001080FE0D7
:1009C000DFF87481434502D14FF0020808E0DFF8F8
:1009D0006C81434502D14FF0030801E04FF0040859
:1009E0004FEA82794FEA197908FA09F848EA0505C9
:1009F000DFF84C814FEA920948F82950D1F8048079
:100A000008F48018B8F5801F0AD1DFF83881D8F8CB
:100A1000008048EA0008DFF82C91C9F8008009E05E
:100A2000DFF82081D8F8008028EA0008DFF8149168
:100A3000C9F80080D1F8048008F40018B8F5001F48
:100A400010D1DFF8008108F10408D8F8008048EAE6
:100A50000008DFF8F09000E05AE009F10409C9F855
:100A600000800DE0DFF8DC8008F10408D8F8008091
:100A700028EA0008DFF8CC9009F10409C9F80080E1
:100A8000D1F8048008F40038B8F5003F0ED1DFF843
:100A9000B480A8F10408D8F8008048EA0008DFF81C
:100AA000A490A9F10409C9F800800DE0DFF8948052
:100AB000A8F10408D8F8008028EA0008DFF884903C
:100AC000A9F10409C9F80080D1F8048008F480383D
:100AD000B8F5803F0ED1DFF86C80A8F10808D8F88F
:100AE000008048EA0008DFF85C90A9F10809C9F81D
:100AF00000800DE0DFF84C80A8F10808D8F80080ED
:100B000028EA0008DFF83C90A9F10809C9F800803C
:100B1000521CD1F8008028FA02F8B8F1000F7FF4D7
:100B200089AEBDE8F88700000000111000100240F7
:100B300000080140000C0140001001400014014079
:100B400008000140080401400AB1016101E00B0402
:100B500003617047014800687047000000000020F2
:100B600070B504460CB9012070BD94F83D0028B959
:100B7000002084F83C00204600F03EFB242084F84E
:100B80003D002068006820F00100216808602068AE
:100B9000006840F40040216808602068006820F484
:100BA00000402168086000F097FD05465C496068D8
:100BB000884206D85B48854201D2012007E0002028
:100BC00005E05948854201D2012000E000200128BB
:100BD00000D1C9E75548B5FBF0F62068406820F021
:100BE0003F003043216848604D496068884201D821
:100BF000701C07E04FF4967070434FF47A71B0FBAD
:100C0000F1F0401C2168096A21F03F010843216886
:100C1000086243496068884214D8681E61684900C8
:100C2000B0FBF1F0401CC0F30B00042801D20420FB
:100C30003DE0681E61684900B0FBF1F0401CC0F364
:100C40000B0034E0A06838B9681E616801EB41010F
:100C5000B0FBF1F0401C0AE0681E616801EBC102C4
:100C600002EB0111B0FBF1F0401C40F48040C0F3F6
:100C70000B0008B901201AE0A06848B9681E616835
:100C800001EB4101B0FBF1F0401CC0F30B000CE0A4
:100C9000681E616801EBC10202EB0111B0FBF1F0CB
:100CA000401CC0F30B0040F4804040F40040216839
:100CB000C9694CF6FF72914308432168C861D4E9C1
:100CC000070108432168096821F0C0010843216831
:100CD0000860D4E9031008432168896848F2FF32AC
:100CE0009143084321688860D4E9050108432168DD
:100CF000C96821F0FF0108432168C86020680068C6
:100D000040F001002168086000202064202084F861
:100D10003D000020206384F83E0000BF24E700006F
:100D2000A086010080841E0000093D0040420F00A3
:100D30002DE9FE4F04460F4690469946DDE90CAB7F
:100D40000E9E00200290FFF705FF054694F83D0037
:100D5000202872D119230122CA492046009501F0AA
:100D6000CCFD10B10220BDE8FE8F00BF94F83C001E
:100D7000012801D10220F6E7012084F83C0000BFE1
:100D80002068006800F0010028B92068006840F081
:100D90000100216808602068006820F40060216874
:100DA0000860222084F83D00402084F83E000020A6
:100DB0002064C4F824A0A4F82AB0608D2085B2482D
:100DC000E0624B46424639462046CDE9006501F0D7
:100DD00041FC08B10120C6E7208D88B900BF002082
:100DE000019020684069019020688069019000BFEF
:100DF00000BF2068006840F40070216808604BE084
:100E0000208D01281AD12068006820F480602168B4
:100E1000086072B600BF0020019020684069019010
:100E200020688069019000BF00BF2068006840F41E
:100E300000702168086062B62EE020E1208D022853
:100E400019D12068006840F400602168086072B61B
:100E500000BF0020019020684069019020688069EF
:100E6000019000BF00BF2068006820F48060216806
:100E7000086062B610E02068006840F48060216875
:100E8000086000BF00200190206840690190206840
:100E90008069019000BF00BFE2E0208D03287DD86B
:100EA000208D012815D12A463146204601F001FE49
:100EB00008B1012057E720680069616A0870606A1C
:100EC000401C6062208D401E2085608D401E608524
:100ED000C6E0208D02282CD1334600226B492046E3
:100EE000009501F00AFD08B101203CE772B62068C8
:100EF000006840F400702168086020680069616A39
:100F00000870606A401C6062208D401E2085608DE4
:100F1000401E608562B620680069616A0870606A78
:100F2000401C6062208D401E2085608D401E6085C3
:100F300096E03346002255492046009501F0DDFC3D
:100F400008B101200FE72068006820F48060216864
:100F5000086072B620680069616A0870606A401CA7
:100F60006062208D401E2085608D401E608548484F
:100F700000681921B0FBF1F04FF47A71B0FBF1F089
:100F8000C0EBC00000EB8000029000BF0298401E42
:100F900002900298A8B90020206300E039E02020E8
:100FA00084F83D00002084F83E00206C40F02000D2
:100FB000206462B600BF002084F83C0000BF01201E
:100FC000D1E620684069C0F380000028DED02068A8
:100FD000006840F400702168086020680069616A58
:100FE0000870606A401C6062208D401E2085608D04
:100FF000401E608562B620680069616A0870606A98
:10100000401C6062208D401E2085608D401E6085E2
:1010100026E02A463146204601F04BFD08B101206A
:10102000A1E620680069616A0870606A401C60621D
:10103000208D401E2085608D401E6085206840699F
:10104000C0F3800060B120680069616A0870606A5E
:10105000401C6062208D401E2085608D401E608592
:10106000208D00287FF419AF202084F83D00002057
:1010700084F83E0000BF84F83C0000BF73E6022005
:1010800071E60000020010000000FFFF04000100F4
:101090000C0000202DE9FC5F04460F46904699465F
:1010A000DDE90CAB0E9EFFF755FD054694F83D00BB
:1010B00020287DD1192301224D492046009501F0B9
:1010C0001CFC10B10220BDE8FC9F00BF94F83C005E
:1010D000012801D10220F6E7012084F83C0000BF7E
:1010E0002068006800F0010028B92068006840F01E
:1010F0000100216808602068006820F40060216811
:101100000860212084F83D00402084F83E00002043
:101110002064C4F824A0A4F82AB0608D2085354846
:10112000E0624B46424639462046CDE9006501F073
:1011300041FB08B10120C6E731E02A46314620468E
:1011400001F0FCFC50B1206C042805D12068006837
:1011500040F40070216808600120B4E7606A0078FC
:1011600021680861606A401C6062208D401E2085F5
:10117000608D401E608520684069C0F3800070B1BA
:10118000208D60B1606A007821680861606A401C47
:101190006062208D401E2085608D401E6085208D00
:1011A0000028CAD12A463146204601F073FB00E0F0
:1011B0001CE050B1206C042805D12068006840F480
:1011C00000702168086001207DE72068006840F415
:1011D000007021680860202084F83D00002084F819
:1011E0003E0000BF84F83C0000BF6CE702206AE7C5
:1011F000020010000000FFFF10B586B0044600207A
:10120000029003900490059015492068884225D1EA
:1012100000BF1448806940F0080012498861084600
:10122000806900F00800019000BF00BFC02002905C
:10123000122003900320059002A90B48FFF7F4FA4F
:1012400000BF0848C06940F400100649C86108465C
:10125000C06900F40010019000BF00BF06B010BDCF
:101260000054004000100240000C01400348006898
:1012700003490978084401490860704700000020CC
:101280000800002010B50848006840F0100006492A
:101290000860032000F0A8F80F2000F007F800F025
:1012A0002BF8002010BD00000020024070B504465D
:1012B0000E4800784FF47A71B1FBF0F00C490968E0
:1012C000B1FBF0F5284600F055FE08B1012070BDD5
:1012D000102C07D200222146501E00F047F8054886
:1012E000046001E00120F2E70020F0E708000020A0
:1012F0000C0000200400002008B500BF11488069E0
:1013000040F001000F4988610846806900F0010043
:10131000009000BF00BF00BF0846C06940F0805089
:10132000C8610846C06900F08050009000BF00BF4F
:1013300000BF0549486820F0E06040F00070486058
:1013400000BF08BD001002400000014001460846F1
:10135000002809DB00F01F0301229A4043099B008B
:1013600003F1E023C3F8002100BF70472DE9F05FCF
:1013700080460D461646002702F034FA07463946E5
:101380002A46334601F00700C0F1070ABAF1040FFC
:1013900002D94FF0040A01E0C0F1070AD14600F17A
:1013A000040ABAF1070F02D24FF0000A01E0A0F1DF
:1013B000030AD4464FF0010A0AFA09FAAAF1010A0F
:1013C0000AEA020A0AFA0CFA4FF0010B0BFA0CFBBC
:1013D000ABF1010B0BEA030B4AEA0B042146404632
:1013E00002F008FABDE8F09F00BF00F00702064BCC
:1013F00019684FF6FF031940044B0B4343EA0221DF
:10140000014B196000BF70470CED00E00000FA05C9
:10141000F8B5044600260025207800F001000028D9
:101420006BD000274348C06900F0805070B900BFFE
:101430004048C06940F080503E49C8610846C069D4
:1014400000F08050009000BF00BF01273A480068BC
:1014500000F48070B0B93848006840F480703649B4
:101460000860FFF777FB064606E0FFF773FB801B7B
:10147000642801D90320F8BD2F48006800F480706B
:101480000028F2D02B48006A00F440752DB3A088E4
:1014900000F44070A84220D02648006A20F440752D
:1014A000012026490860002008602248056205F0F6
:1014B000010090B1FFF74EFB064608E0FFF74AFB3C
:1014C000801B41F28831884201D90320D3E71948B3
:1014D000006A00F002000028F0D01648006A20F4EC
:1014E00040706168084313490862012F04D108461F
:1014F000C06920F08050C86100BF207800F0020071
:10150000022807D10B48406820F44040A1680843F6
:1015100008494860207800F01000102807D10548DD
:10152000406820F48000E1680843024948600020D8
:10153000A1E7000000100240007000404004424259
:1015400070B504460D460CB9012070BD5A480068BC
:1015500000F00700A8420ED25748006820F00700AC
:101560002843554908600846006800F00700A84273
:1015700001D00120E9E7207800F0020002281DD107
:10158000207800F00400042805D14C48406840F45D
:10159000E0604A494860207800F00800082805D13A
:1015A0004648406840F460504449486043484068B9
:1015B00020F0F000A168084340494860207800F01E
:1015C000010078B36068012806D13C48006800F447
:1015D000003090B90120B8E76068022806D137488A
:1015E000006800F0007040B90120AEE733480068A1
:1015F00000F0020008B90120A7E73048406820F059
:101600000300616808432D494860FFF7A3FA0646C6
:1016100009E0FFF79FFA801B41F28831884202D926
:10162000032092E707E02548406800F00C0061685D
:10163000B0EB810FEDD12048006800F00700A84210
:101640000ED91D48006820F0070028431A49086099
:101650000846006800F00700A84201D0012074E7A6
:10166000207800F00400042807D11448406820F4D2
:10167000E060E168084311494860207800F0080004
:10168000082808D10D48406820F46050216940EADC
:10169000C1000A49486000F03FF808494968C1F3B1
:1016A0000311074A515CC8400649086006480068B3
:1016B000FFF7FCFD002048E7002002400010024038
:1016C000863F00080C00002004000020014800684C
:1016D000704700000C00002000B5FFF7F7FF044939
:1016E0004968C1F30221034A515CC84000BD0000B3
:1016F00000100240963F000800B5FFF7E7FF0449DD
:101700004968C1F3C221034A515CC84000BD0000D2
:1017100000100240963F000870B50021002200240E
:1017200000230020134D696801F00C05F5B1042D6C
:1017300002D0082D19D101E00F4819E00F4DC1F377
:101740008346AB5D01F4803555B10A4D6D68C5F334
:1017500040450B4E725D084D5D43B5FBF2F402E06F
:10176000084D03FB05F4204602E000BF024800BF1D
:1017700000BF70BD0010024000127A00743F0008E4
:10178000843F000800093D00F8B504460CB901206B
:10179000F8BD207800F00100002878D0F8484068B3
:1017A00000F00C0004280CD0F548406800F00C0054
:1017B000082811D1F248406800F48030B0F5803F2D
:1017C0000AD1EF48006800F4003000285FD060685C
:1017D00000285CD10120DBE700BF6068B0F5803FE6
:1017E00006D1E748006840F48030E549086028E009
:1017F000606858B9E248006820F48030E049086029
:101800000846006820F4802008601AE06068B0F59F
:10181000A02F0BD1DA48006840F48020D849086036
:101820000846006840F4803008600AE0D448006848
:1018300020F48030D24908600846006820F48020F7
:10184000086000BF606888B1FFF784F9054606E0CC
:10185000FFF780F9401B642801D9032098E7C848A6
:10186000006800F400300028F2D010E0FFF772F9B1
:10187000054606E0FFF76EF9401B642801D90320F6
:1018800086E7BF48006800F400300028F2D12078D5
:1018900000F00200022857D1B948406800F00C005F
:1018A00050B1B748406800F00C00082818D1B4487F
:1018B000406800F4803098B9B148006800F0020038
:1018C00020B12069012801D0012061E7AC480068FF
:1018D00020F0F800616940EAC100A949086033E0DE
:1018E0002069E8B10120A7490860FFF733F90546F0
:1018F00006E0FFF72FF9401B022801D9032047E734
:101900009F48006800F002000028F2D09C48006860
:1019100020F0F800616940EAC1009949086013E0CD
:10192000002098490860FFF715F9054606E0FFF723
:1019300011F9401B022801D9032029E790480068CB
:1019400000F002000028F2D1207800F008000828FA
:101950002DD1A069B8B101208B490860FFF7FAF8D2
:10196000054606E0FFF7F6F8401B022801D90320E0
:101970000EE78348406A00F002000028F2D0012000
:1019800001F030FC13E000207F490860FFF7E2F827
:10199000054606E0FFF7DEF8401B022801D90320C8
:1019A000F6E67748406A00F002000028F2D120787D
:1019B00000F00400042873D100277148C06900F0CA
:1019C000805070B900BF6E48C06940F080506C49CB
:1019D000C8610846C06900F08050009000BF00BF99
:1019E00001276A48006800F48070B0B96748006851
:1019F00040F4807065490860FFF7ACF8054606E0E2
:101A0000FFF7A8F8401B642801D90320C0E65F480F
:101A1000006800F480700028F2D000BFE068012860
:101A200006D15748006A40F001005549086227E096
:101A3000E06858B95248006A20F001005049086235
:101A40000846006A20F00400086219E0E0680528F2
:101A50000BD14B48006A40F004004949086208462F
:101A6000006A40F0010008620AE04548006A20F080
:101A70000100434908620846006A20F00400086239
:101A800000BFE068A0B1FFF765F8054609E0FFF781
:101A900061F8401B41F28831884202D9032077E681
:101AA00022E03748006A00F002000028EFD012E080
:101AB000FFF750F8054608E0FFF74CF8401B41F2ED
:101AC0008831884201D9032062E62D48006A00F07F
:101AD00002000028F0D1012F05D12948C06920F06B
:101AE00080502749C86100BFE069C8B324484068F6
:101AF00000F00C00082860D0E069022848D10020DE
:101B000020490866FFF726F8054606E0FFF722F8A9
:101B1000401B022801D903203AE61948006800F06A
:101B200000700028F2D1206AB0F5803F07D1144838
:101B3000406820F40030A168084311494860D4E9A6
:101B4000080108430E49496821F4741108430C49FF
:101B5000486001200B490866FEF7FCFF054607E0D8
:101B60003DE0FEF7F7FF401B022801D903200FE6F6
:101B70000348006800F000700028F2D02FE0000059
:101B800000100240000042428004424200700040C7
:101B9000002014490866FEF7DDFF054606E0FEF763
:101BA000D9FF401B022801D90320F1E50E48006847
:101BB00000F000700028F2D111E0E069012800D1A6
:101BC000E6E50948466806F48031206A814204D17E
:101BD00006F47011606A814201D00120D8E500202E
:101BE000D6E50000000042420010024010B5044655
:101BF0000CB9012010BD606A38B96068B0F5827F09
:101C000000D105E00021E16102E000212161616174
:101C10000021A16294F8510028B9002084F85000F6
:101C2000204600F043F8022084F851002068006844
:101C300020F0400021680860A08800F482702189AB
:101C400001F404410843A18901F400610843217CA7
:101C500001F002010843217D01F001010843218BBD
:101C600001F400710843217F01F03801084320216D
:101C7000095D01F080010843218D01F40051084302
:101C8000216808600421A06901EA104021684860C9
:101C90002068C06920F400602168C8610020606588
:101CA000012084F851000020A4E7000010B586B0A0
:101CB0000446002002900390049005901A49206881
:101CC00088422FD100BF1948C06940F480401749AD
:101CD000C8610846C06900F48040019000BF00BFA1
:101CE00000BF0846806940F00800886108468069A6
:101CF00000F00800019000BF00BF4FF420400290A8
:101D0000022003900320059002A90948FEF78CFDEC
:101D10004FF48040029000200390049002A90448F0
:101D2000FEF782FD06B010BD0038004000100240F2
:101D3000000C01402DE9FF5F0446884691461D4690
:101D40000E9E012002900020019000BF94F85000E8
:101D5000012803D1022004B0BDE8F09F012084F8DF
:101D6000500000BFFEF7F6FE074694F851B06068D9
:101D70000390AA46BBF1010F0BD00398B0F5827F08
:101D800004D1A06810B9BBF1040F02D00220019069
:101D9000E9E0B8F1000F03D0B9F1000F00D015B998
:101DA00001200190DFE094F85100042802D00520C2
:101DB00084F8510000206065C4F83890E587A58755
:101DC000C4F83080E586A5862064606420680068D9
:101DD00000F04000402805D02068006840F0400036
:101DE00021680860E068B0F5006F4DD1606810B1FF
:101DF000BAF1010F09D1206B00882168C860206BFF
:101E0000801C2063E08E401EE08636E020688068FB
:101E100000F00200022810D1E08E70B10298012873
:101E20000BD1206B00882168C860206B801C206368
:101E3000E08E401EE086002002902068806800F05E
:101E4000010068B1E08F58B12068C068A16B0880BC
:101E5000A06B801CA063E08F401EE08701200290F1
:101E6000FEF778FEC01BB04207D3701C28B10320D8
:101E70000190012084F8510075E0E08E0028C5D162
:101E8000E08F0028C2D14DE0606810B1BAF1010FB7
:101E900009D1206B007821680873206B401C2063F7
:101EA000E08E401EE08637E02068806800F0020087
:101EB000022810D1E08E70B1029801280BD1206B5E
:101EC000007821680873206B401C2063E08E401E60
:101ED000E086002002902068806800F0010068B170
:101EE000E08F58B12068C068A16B0870A06B401CDF
:101EF000A063E08F401EE08701200290FEF72AFEDB
:101F0000C01BB04201D3701C00B92EB90320019050
:101F1000012084F8510026E0E08E0028C4D1E08F33
:101F20000028C1D13A463146204601F06FF920B170
:101F3000012001902020606515E0A06850B900BF25
:101F4000002000902068C0680090206880680090A1
:101F500000BF00BF606D10B10120019002E00120C0
:101F600084F8510000BF00BF002084F8500000BF7B
:101F70000198F0E670B504462546681EB0F1807FF2
:101F800001D301200FE0681E4FF0E02148610F21CE
:101F90004FF0FF3001F02EFC00204FF0E02188616F
:101FA00007200861002070BD30B502460B4600BF17
:101FB00092F83C00012801D1022030BD012082F8B6
:101FC0003C0000BF022082F83D00106844681068A1
:101FD000816824F070041868044310684460104D50
:101FE0001068A8420BD01068B0F1804F07D00D4D9B
:101FF0001068A84203D00C4D1068A84205D121F00A
:1020000080015868014310688160012082F83D001A
:1020100000BF002082F83C0000BF00BFCDE70000F9
:10202000002C0140000400400008004010B50446A8
:102030000CB9012010BD94F83D0028B9002084F8A7
:102040003C00204600F026F8022084F83D00211DC7
:10205000206801F0A9F9012084F8460000BF84F847
:102060003E0001213F2001554020015541200155EE
:1020700000BF00BF012084F84200432001554420E6
:1020800001554520015500BF012084F83D00002086
:10209000D0E7000008B50168B1F1804F0DD100BF55
:1020A0000649C96941F00101044AD1611146C96973
:1020B00001F00101009100BF00BF08BD0010024007
:1020C0002DE9F04104460D46002700BF94F83C007E
:1020D000012802D10220BDE8F081012084F83C00F3
:1020E00000BF022084F83D002068866826F077064D
:1020F00026F47F46206886602868502833D00CDCA0
:10210000202850D004DC00284BD0102851D149E0C1
:10211000302849D040284CD139E060282DD0702893
:1021200007D0B0F5805F03D0B0F5005F41D10DE07E
:1021300041E0D5E902136A68206801F080F920685F
:10214000866846F077062068866034E0D5E9021399
:102150006A68206801F073F92068806840F4804064
:102160002168886027E0EA686968206801F038FA29
:102170005021206801F06EF91DE0EA686968206866
:1021800001F041FA6021206801F064F913E0EA6887
:102190006968206801F024FA4021206801F05AF9AA
:1021A00009E000BF00BF00BF2968206801F052F9B4
:1021B00001E0012700BF00BF012084F83D0000BFFF
:1021C000002084F83C0000BF384684E710B586B094
:1021D0000446002002900390049005902068B0F11E
:1021E000804F16D100BF0C48806940F004000A49B6
:1021F00088610846806900F00400019000BF00BFBC
:102200000F20029002200390059002A90348FEF7D8
:102210000BFB06B010BD000000100240000801409A
:102220002DE9F04104460D461646002700BF94F8FC
:102230003C00012802D10220BDE8F081012084F891
:102240003C0000BF36B1042E1BD0082E31D00C2E1E
:102250005ED145E02946206801F006F920688069D2
:1022600040F00800216888612068806920F004003F
:10227000216888612068806929690843216888612C
:1022800048E02946206801F01FF92068806940F481
:102290000060216888612068806920F4806021687E
:1022A000886120688069296940EA01202168886185
:1022B00030E02946206801F03BF92068C06940F011
:1022C00008002168C8612068C06920F00400216806
:1022D000C8612068C069296908432168C86119E09C
:1022E0002946206801F058F92068C06940F4006070
:1022F0002168C8612068C06920F480602168C861D5
:102300002068C069296940EA01202168C86101E0AC
:10231000012700BF00BF00BF002084F83C0000BFC1
:10232000384689E710B504460CB9012010BD94F871
:102330003D0028B9002084F83C00204600F025F834
:10234000022084F83D00211D206801F02DF80120B5
:1023500084F8460000BF84F83E0001213F2001556B
:10236000402001554120015500BF00BF012084F8E5
:10237000420043200155442001554520015500BF2E
:10238000012084F83D000020D0E7704770B5044676
:102390000D4615B994F83E000BE0042D02D13F2004
:1023A000005D06E0082D02D14020005D01E04120E3
:1023B000005D012801D0012070BD1DB9022084F804
:1023C0003E000EE0042D03D102213F20015508E01C
:1023D000082D03D102214020015502E002214120B5
:1023E000015501222946206801F018F81949206892
:1023F000884201D1012000E0002028B12068406C13
:1024000040F40040216848641249206888420BD09B
:102410002068B0F1804F07D00F492068884203D070
:102420000E49206888420CD12068806800F00706B9
:10243000062E0CD02068006840F00100216808607A
:1024400005E02068006840F0010021680860002075
:10245000B2E70000002C01400004004000080040EA
:1024600010B504460CB9012010BDA06900B100E010
:1024700000BF94F8410028B9002084F840002046AD
:1024800000F02AF8242084F841002068C06820F475
:1024900000502168C860204601F0CAF82068006931
:1024A00020F49040216808612068406920F02A00EB
:1024B000216848612068C06840F400502168C86005
:1024C00000206064202084F8410084F8420000204D
:1024D000606300BFC8E7000010B586B00446002066
:1024E00002900390049005901A49206888422ED1EA
:1024F00000BF1948C06940F480201749C8610846E8
:10250000C06900F48020019000BF00BF00BF0846F2
:10251000806940F0080088610846806900F0080082
:10252000019000BF00BF0815029002200390032015
:10253000059002A90948FEF777F94FF40060029070
:1025400000200390049002A90448FEF76DF906B03C
:1025500010BD00000048004000100240000C014087
:102560002DE9F84F04460E46174699464FF0000AEB
:1025700094F8410020284AD106B117B90120BDE8DE
:10258000F88F00206064212084F84100FEF7E2FA11
:102590008246A784E784A068B0F5805F04D12069F3
:1025A00010B90025B04602E035464FF000081BE0A8
:1025B0005346002280212046CDF8009001F0B6F865
:1025C00008B10320DBE745B9B8F80000C0F3080004
:1025D0002168486008F1020803E028782168486013
:1025E0006D1CE08C401EE084E08C0028E0D1534656
:1025F000002240212046CDF8009001F097F808B164
:102600000320BCE7202084F841000020B7E7022027
:10261000B5E700BFFEE7014608684069C0F38020C7
:10262000B0B16FF480600A68506100200863202018
:1026300081F83D00002081F83E00086C40F0040065
:10264000086400BF002081F83C0000BF01207047F3
:102650000020FCE72DE9F84304460F46154699464D
:10266000DDE908862068006840F480602168086021
:102670002068006840F480702168086043460022AA
:102680004FF001112046009600F037F960B1206844
:10269000006800F48070B0F5807F02D14FF40070C4
:1026A00020640320BDE8F88307F0FE00216808617C
:1026B000334642463E49204600F07EF908B10120EB
:1026C000F0E700BF0020009020684069009020687B
:1026D0008069009000BF00BF32464146204600F0AE
:1026E0002DFA50B1206C042805D12068006840F410
:1026F0000070216808600120D4E7B9F1010F03D10F
:10270000E8B22168086117E0C5F307202168086175
:1027100032464146204600F011FA50B1206C0428A0
:1027200005D12068006840F400702168086001202D
:10273000B8E7E8B22168086132464146204600F019
:10274000FDF950B1206C042805D12068006840F4E0
:102750000070216808600120A4E72068006840F448
:10276000807021680860434600224FF00111204626
:10277000009600F0C2F858B12068006800F480703C
:10278000B0F5807F02D14FF400702064032089E708
:10279000F8B240F00100216808613346424604491E
:1027A000204600F009F908B101207BE7002079E715
:1027B000020001002DE9F843044688461546994673
:1027C000DDE908672068006840F4807021680860CF
:1027D000334600224FF001112046009700F08DF89B
:1027E00060B12068006800F48070B0F5807F02D18D
:1027F0004FF4007020640320BDE8F88308F0FE0069
:10280000216808613B4632462149204600F0D4F851
:1028100008B10120F0E700BF002000902068406967
:10282000009020688069009000BF00BF3A463146A2
:10283000204600F083F950B1206C042805D12068AF
:10284000006840F40070216808600120D4E7B9F105
:10285000010F03D1E8B22168086117E0C5F3072032
:10286000216808613A463146204600F067F950B1C8
:10287000206C042805D12068006840F400702168AD
:1028800008600120B8E7E8B2216808610020B3E7DA
:102890000200010070B504460D46164625E02046AC
:1028A000FFF7B9FE08B1012070BD681CE8B1FEF762
:1028B00051F9801BA84200D8BDB920684069C0F317
:1028C000800090B900202063202084F83D00002083
:1028D00084F83E00206C40F02000206400BF0020FF
:1028E00084F83C0000BF0120DEE720684069C0F3A7
:1028F00080000028D3D00020D6E72DE9F04104461F
:102900000D4617461E46DDF8188038E0701CA8B347
:10291000FEF720F9A0EB0800B04200D876BBC5F363
:10292000074001280AD120684069A9B20840A9B22D
:10293000884201D101200BE0002009E02068806975
:10294000A9B20840A9B2884201D1012000E00020CC
:10295000B84214D100202063202084F83D000020DC
:1029600084F83E00206C40F02000206400BF00206E
:1029700084F83C0000BF0120BDE8F081FFE7C5F30B
:10298000074001280AD120684069A9B20840A9B2CD
:10299000884201D101200BE0002009E02068806915
:1029A000A9B20840A9B2884201D1012000E000206C
:1029B000B842ABD00020DFE72DE9F04104460D46D8
:1029C00016461F4658E020684069C0F38020E8B1F1
:1029D0002068006840F40070216808606FF480602F
:1029E0002168486100202063202084F83D000020F9
:1029F00084F83E00206C40F00400206400BF0020FA
:102A000084F83C0000BF0120BDE8F081701C90B349
:102A1000FEF7A0F8C01BB04200D866BBC5F3074064
:102A200001280AD120684069A9B20840A9B28842A9
:102A300001D101200BE0002009E020688069A9B2E3
:102A40000840A9B2884201D1012000E0002090B9DD
:102A500000202063202084F83D00002084F83E0000
:102A6000206C40F02000206400BF002084F83C006F
:102A700000BF0120C8E7FFE7C5F3074001280AD1DE
:102A800020684069A9B20840A9B2884201D101205A
:102A90000BE0002009E020688069A9B20840A9B2D3
:102AA000884201D1012000E0002000288BD00020C6
:102AB000AAE770B504460D46164637E0206840691F
:102AC000C0F30010A0B16FF0100021684861002031
:102AD0002063202084F83D00002084F83E00206C14
:102AE000206400BF002084F83C0000BF012070BDBE
:102AF000FEF730F8801BA84200D8BDB920684069B5
:102B0000C0F3801090B900202063202084F83D009D
:102B1000002084F83E00206C40F02000206400BFBC
:102B2000002084F83C0000BF0120E0E720684069F5
:102B3000C0F380100028C1D00020D8E770B504464B
:102B40000D46164625E02046FFF765FD08B1012039
:102B500070BD681CE8B1FDF7FDFF801BA84200D8DE
:102B6000BDB920684069C0F3C01090B9002020634F
:102B7000202084F83D00002084F83E00206C40F0C6
:102B80002000206400BF002084F83C0000BF01202A
:102B9000DEE720684069C0F3C0100028D3D00020D1
:102BA000D6E708B50020009080216B2000F042F8A5
:102BB0006420FDF725FE00216B2000F03BF8032088
:102BC00000F056F8002000F04BF80021382000F00B
:102BD00031F80021232000F02DF800216A2000F0B8
:102BE00029F86946752000F011F89DF80000682862
:102BF0000BD101216B2000F01DF84FF4FA7000F0AA
:102C00005CF800216C2000F015F808BD3EB50446C4
:102C10000D464FF0FF3001210B462246CDE9005111
:102C20000290D0210248FEF783F800203EBD00004C
:102C3000E000002013B584B004464FF0FF300121BE
:102C400005AA0B46CDE9002102902246D021034877
:102C5000FEF720FA002006B010BD0000E0000020C2
:102C600010B50446E006010E1C20FFF7E3FF10BD7F
:102C700010B50446E006010E1B20FFF7DBFF10BD78
:102C800070B504460025BC2C01DB012510E0622C48
:102C900001DB02250CE02A2C01DB032508E0142CC3
:102CA00001DB042504E00A2C01DB052500E00625F4
:102CB00029461A20FFF7BEFF70BD70B504460025F7
:102CC000B4F57A7F02DD4FF47A7402E0042C00DA66
:102CD00004244FF47A7090FBF4F0401EC5B22946EC
:102CE0001920FFF7A7FF264604EBD671C1F34F006A
:102CF000FFF7C6FF70BD00000EB5002000900190E8
:102D00000290134813490860002112488160012194
:102D10000173002101754FF46021C16100200D494C
:102D2000486001210B480161FDF76EFB08B1FDF71A
:102D3000B7FA082000900120019000200290694617
:102D40000448FDF7B1FA08B1FDF7AAFA0EBD00007C
:102D5000002401406000002008B500BF0A48406917
:102D600040F00100084948610846406900F0010050
:102D7000009000BF00BF002206210B20FEF7F6FAEC
:102D80000B20FEF7E3FA08BD0010024000B585B045
:102D90000020019002900390049000BF39488069A0
:102DA00040F01000374988610846806900F0100043
:102DB000009000BF00BF00BF0846806940F02000BF
:102DC00088610846806900F02000009000BF00BFC5
:102DD00000BF0846806940F00400886108468069A9
:102DE00000F00400009000BF00BF00BF08468069EB
:102DF00040F0080088610846806900F008000090F3
:102E000000BF00BF012241F206311F48FDF79CFEC2
:102E10000122D1021D48FDF797FE40F206300190D5
:102E200001200290002003900220049001A916487E
:102E3000FDF7FAFC4FF48050019001200290002031
:102E400003900320049001A90F48FDF7EDFC4FF417
:102E50000060019001200290002003900320049064
:102E600001A90A48FDF7E0FC4FF4805001900020D2
:102E700002900120039001A90448FDF7D5FC05B09C
:102E800000BD000000100240000C0140000801409D
:102E900010B50B480B4908600B48486000210948F1
:102EA0008160C1604FF48041016100214161816115
:102EB000C1610162FDF754FE08B1FDF7F1F910BDE3
:102EC00000540040E0000020A086010010B50E482C
:102ED0000E4908604FF48270486000210B48816001
:102EE000C160016141614FF4007181610821C161DC
:102EF00000210162416281620A21C162FEF776FE11
:102F000008B1FDF7CDF910BD0038004034010020B4
:102F100000B58DB0002009900A900B900C9007909E
:102F200008901C216846FDF714F94FF080402B49AA
:102F300008600720486000212848816040F2E7319E
:102F4000C160002101618161FFF770F808B1FDF7F0
:102F5000A7F94FF48050099009A92048FFF7B0F86D
:102F600008B1FDF79DF91D48FFF7DCF908B1FDF741
:102F700097F900200790089007A91848FFF714F860
:102F800008B1FDF78DF960200090002001900290BB
:102F90000490002269461148FFF742F908B1FDF795
:102FA0007FF9042269460D48FFF73AF908B1FDF7A9
:102FB00077F9082269460948FFF732F908B1FDF7A9
:102FC0006FF90C2269460548FFF72AF908B1FDF7A9
:102FD00067F90248FFF7FAF80DB000BD8C01002038
:102FE00010B50B480B4908604FF4E13048600021F0
:102FF00008488160C16001610C214161002181614B
:10300000C161FFF72DFA08B1FDF74AF910BD0000C4
:1030100000480040D401002000BFFEE700BFFEE7EB
:103020001FB513A103C9CDE9020100200090019052
:103030000024052202A9302000F092F805226946FA
:10304000102000F019F8002009E01DF8001002AA75
:10305000125C914201D1611CCCB2411CC8B205285E
:10306000F3DB052C02D1002004B010BD0120FBE7EA
:10307000A5A5A5A5A50000002DE9F04107460C4631
:10308000154600224FF480510C48FDF75DFD38468F
:10309000FDF7F6F8002606E00020FDF7F1F804F849
:1030A000010B701CC6B2AE42F6DB012211030348CD
:1030B000FDF74AFD0020BDE8F0810000000C014052
:1030C00070B50446002500224FF480510848FDF7F2
:1030D0003BFD2046FDF7D4F80020FDF7D1F805466A
:1030E000012211030248FDF72FFD284670BD0000A4
:1030F000000C014070B5054600260720FFF7E0FFF1
:1031000006463146272000F051F806F04000C0B1D5
:103110001C2229466120FFF7AFFFFF21E22000F0CB
:1031200045F8002008490880002406E02A5D214671
:1031300006A000F047FB601CC4B21C2CF6DB00208C
:1031400070BD0120FCE700005A0000207265636535
:103150006976655B25645D3D253032780D0A000097
:103160002DE9F04107460C4615464FF000080022B5
:103170004FF480510C48FDF7E7FC3846FDF780F826
:103180008046002605E014F8010BFDF779F8701C65
:10319000C6B2AE42F7DB012211030348FDF7D4FCAF
:1031A0004046BDE8F0810000000C014070B50546C6
:1031B0000C46002600224FF480510848FDF7C4FC5D
:1031C0002846FDF75DF806462046FDF759F801222E
:1031D00011030248FDF7B8FC304670BD000C0140F9
:1031E0007047000008B508490968C9084FF47A72A9
:1031F000B1FBF2F14143009100BF00BF00994A1EAC
:1032000000920029F9D108BD0C000020F8B5044651
:103210000D4616462B46002280212046009600F0DF
:1032200009F828B1606D40F0200060650320F8BD0A
:103230000020FCE72DE9F84F04460D4690461E4657
:10324000DDF82890FDF786FCA0EB0900371AFDF7A2
:1032500081FC82462C480068C0F3CB307843009054
:1032600045E0701C002842D0FDF774FCA0EB0A007A
:10327000B84200D2A7BB2068406820F0E000216877
:1032800048606068B0F5827F0DD1A068B0F5004F4E
:1032900003D0A068B0F5806F05D12068006820F0E9
:1032A000400021680860A06AB0F5005F0DD100BF42
:1032B0002068006820F400502168086020680068D9
:1032C00040F400502168086000BF012084F85100DC
:1032D00000BF002084F8500000BF0320BDE8F88F35
:1032E000FFE7009800B900270098401E0090206872
:1032F00080682840A84201D1012000E0002040451C
:10330000AFD10020EAE700000C000020704710B5A4
:10331000FDF7ACFF00F056FD012801D000F038FDAC
:1033200010BD00B593B0282109A8FCF712FF1421A5
:1033300004A8FCF70EFF002000900190029003907B
:103340000120099000040A9000200B9001200D90AC
:1033500002201090C10311914FF4E011129109A8BD
:10336000FEF712FA08B1FCF79BFF0F200490022031
:103370000590002006904FF4806007900020089090
:10338000022104A8FEF7DCF808B1FCF789FF02204F
:103390000090800302906846FEF73AF808B1FCF707
:1033A0007FFF13B000BD704710B50268184B9842FC
:1033B00008D0B0F1804F05D0164B984202D0164B82
:1033C000984203D122F070024B681A43104B984286
:1033D00008D0B0F1804F05D00E4B984202D00E4B72
:1033E000984203D122F44072CB681A4322F0800342
:1033F0004C6943EA040202608B68C3620B68836213
:10340000034B984201D10B6903630123436110BD53
:10341000002C0140000400400008004030B501F0DD
:103420001F05012404FA05F3046A9C430462046A3C
:1034300001F01F0502FA05F52C43046230BD30B5DA
:103440000C46816821F47F4142EA03252543294344
:10345000816030BD0A46816821F0700142F00703A7
:10346000194381607047000030B5026A056A25F093
:10347000010505624368846924F0700424F00304A4
:103480000D682C4322F002028D682A430D4DA8429C
:1034900006D100BF22F00802CD682A4322F00402C0
:1034A000084DA84207D123F4807323F400734D69BB
:1034B0002B438D692B43436084614D6845630262F1
:1034C00030BD0000002C014030B5026A056A25F0CD
:1034D000100505624368846924F4E04424F44074D0
:1034E0000D6844EA052422F020028D6842EA0512A4
:1034F0000E4DA84207D100BF22F08002CD6842EAFB
:10350000051222F04002094DA84209D123F480633C
:1035100023F400634D6943EA85038D6943EA85031B
:10352000436084614D688563026230BD002C0140B8
:1035300030B5026A056A25F4807505624368C4697E
:1035400024F0700424F003040D682C4322F400726C
:103550008D6842EA05220F4DA84207D100BF22F430
:103560000062CD6842EA052222F48062094DA84239
:1035700009D123F4805323F400534D6943EA051322
:103580008D6943EA05134360C4614D68C5630262F7
:1035900030BD0000002C014030B5036A056A25F4F7
:1035A000805505624468C26922F4E04222F4407208
:1035B0000D6842EA052223F400538D6843EA05337F
:1035C000064DA84204D124F480444D6944EA851490
:1035D0004460C2614D680564036230BD002C014047
:1035E00030B50B461446026A056A25F001050562EE
:1035F000816921F0F00141EA041122F00A021A4324
:103600008161026230BD30B50B461446026A056A1C
:1036100025F010050562816921F4704141EA043109
:1036200022F0A00242EA03128161026230BD000072
:1036300070B504462168096921F44051E2681143DC
:10364000226811612269A1681143626941EA020599
:103650002168C96841F20C62914329432268D16014
:103660002168496921F44071A269114322685161BE
:103670002D4A2168914202D1FEF73EF801E0FEF7A3
:103680002BF800EBC00101EB001162689200B1FB66
:10369000F2F100EBC00202EB001263689B00B2FB88
:1036A000F3F26423B2FBF3F202EBC20303EB021268
:1036B000A1EB8201322202EB01116422B1FBF2F193
:1036C00001F0F00100EBC00202EB001263689B0006
:1036D000B2FBF3F26423B2FBF3F201EB021200EB54
:1036E000C00101EB001163689B00B1FBF3F100EB3B
:1036F000C00303EB00136668B600B3FBF6F3642661
:10370000B3FBF6F303EBC30606EB0313A1EB830154
:10371000322303EB01116423B1FBF3F101F00F013C
:1037200011442268916070BD003801402DE9F041DC
:1037300004460D4617469846069E34E0701C88B332
:103740002EB1FDF707FAA0EB0800B0422BD900BF5D
:1037500000BF21680C3151E8001F21F4D0702168AE
:103760000C3141E80002002AF3D100BF00BF00BFC6
:103770002168143151E8001F21F001002168143143
:1037800041E80002002AF3D100BF202084F8410064
:1037900084F8420000BF002084F8400000BF0320EE
:1037A000BDE8F081FFE7206800682840A84201D109
:1037B000012000E00020B842C0D00020F0E700BFA8
:1037C000FEE700000FB4054B10B503A9044A0298A8
:1037D00000F034F810BC5DF814FB0000A13C0008B8
:1037E0005C00002002480068C0F30220704700001F
:1037F0000CED00E010B5002804DB0A07130E054AA3
:10380000135406E00A07140E034A00F00F031B1FAF
:10381000D45410BD00E400E018ED00E002E008C858
:10382000121F08C1002AFAD170477047002001E03A
:1038300001C1121F002AFBD1704700002DE9FF4F84
:103840008DB00F460546002606E025280BD0DDE9A1
:103850000F1290476D1C761C28780028F5D111B006
:103860003046BDE8F08F0024A246A1460122EC4973
:1038700000E0044315F8013F203B02FA03F0084240
:10388000F7D128782A2810D06FF02F022878A0F1DD
:103890003001092914D80AEB8A0102EB410144F0F6
:1038A000020400EB010A6D1CF0E701CF5FEA000A99
:1038B00003D544F40054CAF1000A44F002046D1C1C
:1038C00028782E2817D115F8010F44F004042A286F
:1038D0000ED06FF02F022878A0F1300109290AD804
:1038E00009EB890102EB410100EB01096D1CF2E7D4
:1038F00057F8049B6D1C28786C280FD006DC4C28E8
:1039000017D068280DD06A2814D104E0742810D08C
:103910007A280FD10DE044F400140AE044F4801436
:1039200001E044F440146978814202D104F5801426
:103930006D1C6D1C2A786E2A1FD00CDC632A31D0D6
:1039400004DC002A8BD0582A11D1A3E0642A68D065
:10395000692A0CD165E0732A2ED004DC6F2A73D05B
:10396000702A04D19BE0752A6FD0782A6ED0104659
:10397000DDE90F129047761C50E1C4F30250022893
:1039800006D0032809D0042801CF09D0066045E1FC
:1039900001CFF117C0E9006140E101CF06803DE1B0
:1039A00006703BE117F8040B8DF8000000208DF83D
:1039B0000100EB46012003E057F804BB4FF0FF3055
:1039C00061074FF0000102D40DE008F101018846C3
:1039D00049450FDA8045F8DB1BF808100029F4D1BF
:1039E00008E008F1010188468142FADB1BF8081063
:1039F0000029F6D1DDE90F23AAEB08008146214614
:103A000000F036F9304400EB080604E0DDE90F125F
:103A10001BF8010B9047B8F10108F7D22146484640
:103A2000F7E00A21C4F302534FF0000B0891022B78
:103A300004D001CFC117032B09D00AE0FF1D27F0E6
:103A40000707F7E8020108E032E01FE020E000B2DB
:103A5000C117042B01D140B2C117031E71F100033D
:103A600007DA4FF0000CD0EB0C006CEB01012D23BA
:103A700002E0230504D52B238DF82430012303E035
:103A8000E30701D02023F7E7984658E00A2110E029
:103A900010210EE010204FF0000B08900CE01021D8
:103AA0004FF0000B44F004044FF00809089103E0C4
:103AB00008214FF0000B0891C4F30253022B04D0ED
:103AC00001CF0021032B06D006E0FF1D27F00707DA
:103AD000F7E8020103E080B2042B00D1C0B24FF03E
:103AE000000823072BD5702A07D0DDF820C08CF002
:103AF000100C5CEA0B0C05D00EE040238DF824304E
:103B0000012308E050EA010306D030238DF8243069
:103B10008DF8252002239846DDF820C08CF0080C93
:103B20005CEA0B0C0BD150EA010301D1630706D507
:103B300030238DF824304FF00108A9F10109582AEB
:103B400004D038A20B9208AA0A920BE03AA2F9E735
:103B50005B46089AFCF708FB0B9B9B5C0A9A521E7B
:103B60000A92137050EA0102F2D10A98ADEB0000FC
:103B700000F1200B600702D524F4803401E04FF0FF
:103B80000109D94502DDA9EB0B0000E0002000EBA4
:103B90000B0141440890AAEB010AE00306D4DDE9D9
:103BA0000F232146504600F063F806444FF0000909
:103BB00008E009A911F80900DDE90F12904709F1A1
:103BC0000109761CC145F4DBE0030CD5DDE90F23C8
:103BD0002146504600F04CF8064404E0DDE90F129F
:103BE00030209047761C0899481E08900029F5DC83
:103BF00008E00A980A990078491C0A91DDE90F1239
:103C00009047761CBBF10001ABF1010BF1DC2146C2
:103C10005046DDE90F2300F019F806446D1C1BE641
:103C20000928010030313233343536373839616292
:103C30006364656600000000303132333435363756
:103C40003839414243444546000000002DE9F04127
:103C5000044600251E461746880404D405E039466C
:103C60002020B0476D1C641EF9D52846BDE8F081C0
:103C70002DE9F041044600251E469046C80301D5B3
:103C8000302700E02027880404D505E04146384667
:103C9000B0476D1C641EF9D52846BDE8F0810000D0
:103CA00013B50C464FF47A73012269460248FEF7B9
:103CB00057FC00981CBD0000D40100201CB5FDF786
:103CC000E1FAFFF72EFBFFF761F8FFF745F8FFF782
:103CD0001FF9FFF785F9FFF70FF8FFF7D9F8FFF79E
:103CE000F5F8FEF75EFF00211248FEF74FFB0421B6
:103CF0001048FEF74BFB08210E48FEF747FB0C214E
:103D00000C48FEF743FB14E000200090019002E015
:103D100009A0FFF757FDFFF783F90028F8D10BA0A2
:103D2000FFF750FD6846FFF7E5F90420FCF768FD52
:103D300000BFE9E78C0100204E524632344C30314E
:103D40002069732072656164790D0A004E52463213
:103D5000344C3031206973206F6B210D0A00000054
:103D600009480068006808B9012000E0002020B17F
:103D70004FF0FF300549086005E003480068C0685F
:103D800000680249086070471400002040000020CD
:103D900010B500BF502080F31188BFF34F8FBFF3E1
:103DA0006F8F00BF00F01EF818B14FF0805004492B
:103DB000086000BF002080F3118800BF10BD000024
:103DC00004ED00E00549096809B9012005E004494E
:103DD000096809B9022000E0002070472C0000208B
:103DE0004C0000202DE9F0410027574800680028CA
:103DF0007ED156480068451C544805608DB954482A
:103E0000D0F8008053480068514908605148C0F814
:103E1000008051480068401C4F490860FFF7A0FF30
:103E200000BF4E480068854276D300BF484800680E
:103E3000006808B9012000E0002020B14FF0FF30F9
:103E40004649086067E042480068C068C468666820
:103E5000B54202D2414806605DE06069D4E90212D1
:103E60008A60D4E902214A60211D42688A4201D158
:103E7000E1684160002262610168491E0160A06A38
:103E800098B1A06AD4E907128A60D4E907214A6090
:103E900004F1180142688A4201D1216A416000227E
:103EA000A2620168491E016000BF94F82C10012035
:103EB00088402B490968084329490860E16A01EBF9
:103EC0008101284A02EB81014868A0608268E260B3
:103ED000211D826851608160E16A01EB8101214A04
:103EE00002EB81026261E16A01EB81011D4A00E09F
:103EF00022E052F82110491CE26A02EB8202194BBF
:103F000043F822101849E06A0968C96A88428DD9C5
:103F100001278BE700E000BF13480068C06A00EB90
:103F20008000104951F82000012800D901270F48CE
:103F3000006800B1012704E00D480068401C0C49EE
:103F400008603846BDE8F0814C00002024000020C5
:103F5000140000201800002038000020400000203D
:103F6000280000201C020020100000203400002047
:103F70003000002002030405060708090A0B0C0D97
:103F80000E0F1010010200000000000000000102EE
:103F900003040607080900000000010203040000F2
:103FA000C03F000800000020600000001C3800082E
:103FB0002040000860000020A00800002C38000805
:103FC0000000000010000000010000000024F400C8
:103FD00000000000000000000000000000000000E1
:103FE00000000000000000000000000000000000D1
:103FF00000000000000000000000000000000000C1
:1040000000000000000000001F0000000000000091
:104010000A01070E010A01070E010100000000005D
:04000005080000ED02
:00000001FF
