:020000040800F2
:100000006049002099010008092700089B24000886
:1000100005270008290A0008133300080000000023
:1000200000000000000000000000000001010008C6
:10003000690A00080000000045010008E9300008D6
:10004000B3010008B3010008B3010008B3010008C0
:10005000B3010008B3010008B3010008B3010008B0
:10006000B3010008B3010008B30100082D0A00081D
:10007000B3010008B3010008B3010008B301000890
:10008000B3010008B3010008B3010008B301000880
:10009000B3010008B3010008B3010008B301000870
:1000A000B3010008B3010008B3010008B301000860
:1000B000B3010008B3010008B3010008B301000850
:1000C000B3010008B3010008B3010008B301000840
:1000D000B3010008B3010008B3010008B301000830
:1000E000B3010008B3010008B3010008DFF80CD029
:1000F00000F03AF900480047113800086049002034
:10010000224B19680868B0E8F00F80F30988BFF344
:100110006F8F4FF0000080F311884EF00D0E704786
:100120000000000006480068006880F3088862B696
:1001300061B6BFF34F8FBFF36F8F00DF00BF00BF0B
:1001400008ED00E0EFF30980BFF36F8F0F4B1A68E3
:1001500020E9F00F106008B54FF0500080F31188CF
:10016000BFF34F8FBFF36F8F04F092F94FF0000091
:1001700080F31188BDE8084019680868B0E8F00FFE
:1001800080F30988BFF36F8F704700BF28000020FD
:10019000EFF3058070470000064880470648004797
:1001A000FEE7FEE7FEE7FEE7FEE7FEE7FEE7FEE727
:1001B000FEE7FEE781310008ED000008202A04DB9D
:1001C000203A21FA02F00021704721FA02F3D040D0
:1001D000C2F120029140084319467047D2B201E0B3
:1001E00000F8012B491EFBD270470022F6E710B53C
:1001F00013460A4604461946FFF7F0FF204610BD95
:1002000080EA010210B502F00043400022D04A000B
:100210001FD0010E01EB1261C0F35600C2F356026B
:1002200040F4000042F40002A0FB022000047F39E9
:10023000140400D0401C50EA124001D44000491E72
:10024000C2B20C0604EBD010401C4008802A02D039
:1002500003E0002010BD20F00100002900DA00209A
:10026000184310BD96230022114600F04EB820F02E
:100270000040C10DC0F3160040F400007F2901DAF0
:1002800000207047962903DCC1F19601C8407047F1
:100290009639884070472DE9F05F05460020924668
:1002A0009B4688460646814640241BE02846414638
:1002B00047462246FFF782FF53465A46C01A9141ED
:1002C00010D311461846224600F060F82D1A67EB4D
:1002D00001084F4622460120002100F057F817EB95
:1002E00000094E41201EA4F10104DFDC48463146DE
:1002F0002A464346BDE8F09F0029A8BF7047401C2E
:10030000490008BF20F00100704710B4B0FA80FC2B
:1003100000FA0CF050EA010404BF10BC704749B168
:10032000CCF1200421FA04F411FA0CF118BF0121D8
:1003300021430843A3EB0C01CB1D4FEA00614FEAB8
:10034000102042BF002010BC704700EBC350104487
:100350000029A4BF10BC7047401C490008BF20F012
:10036000010010BC70470000064C074D06E0E06835
:1003700040F0010394E8070098471034AC42F6D3EC
:10038000FFF7B8FEF456000814570008202A04DBD3
:10039000203A00FA02F1002070479140C2F1200398
:1003A00020FA03F319439040704770B504460025C6
:1003B0002068806800F0010018B32068806820F091
:1003C00001002168886001F0EDF8054613E001F0B6
:1003D000E9F8401B02280ED92068806800F001006F
:1003E00048B1A06A40F01000A062E06A40F001004D
:1003F000E062012070BD2068806800F001000028E4
:10040000E5D10020F6E770B505466C6AA06A00F0F9
:100410005000E0B9A06A40F40070A06220688068D3
:1004200000F46020B0F5602F0DD1207B58B9A06A90
:1004300020F48070A062A06A00F4805018B9A06A0D
:1004400040F00100A062204600F0ECFB03E0206ACF
:10045000016B2846884770BD70B505466C6AA06A76
:1004600040F04000A062E06A40F00400E0622046F4
:1004700000F0DAFB70BD70B50446656A284600F0EE
:10048000D2FB70BD38B504460025002000902068DE
:10049000806800F0010078BB2068806840F00100AF
:1004A00021688860194800681949B0FBF1F0009094
:1004B00002E00098401E009000980028F9D101F059
:1004C00071F8054619E001F06DF8401B022814D9B7
:1004D0002068806800F0010078B9A06A40F0100040
:1004E000A062E06A40F00100E06200BF002084F8F2
:1004F000240000BF012038BD05E02068806800F0BE
:1005000001000028DFD00020F5E7000014000020E3
:1005100040420F0010B50821154801F035F828B900
:100520001448C0880A3800B21249C88020211048F7
:1005300001F02AF828B90F48C0880A3000B20D49E6
:10054000C88010210A4801F01FF828B9094880889E
:100550000A3000B2074988804021054801F014F8AC
:1005600028B9044880880A3800B20249888010BD42
:10057000000C014088000020B0F90010B1F57A7F2E
:1005800002DA4FF47A7101E0B0F900100180B0F99D
:100590000010B1F5FA6F02DD4FF4FA6101E0B0F935
:1005A00000100180B0F90610B1F57A7F02DA4FF43D
:1005B0007A7101E0B0F90610C180B0F90610B1F50A
:1005C000FA6F02DD4FF4FA6101E0B0F90610C18064
:1005D000B0F90410B1F57A7F02DA4FF47A7101E0D4
:1005E000B0F904108180B0F90410B1F5FA6F02DDA2
:1005F0004FF4FA6101E0B0F904108180B0F9021003
:10060000B1F57A7F02DA4FF47A7101E0B0F90210A5
:100610004180B0F90210B1F5FA6F02DD4FF4FA61D2
:1006200001E0B0F9021041807047B0F9001040F2CB
:10063000AA52914208DDB0F9001040F20E629142D8
:1006400002DA40F2DC510180B0F9061040F2D252D9
:10065000914208DDB0F9061040F2E652914202DA0A
:1006600040F2DC51C180B0F9041040F2D252914204
:1006700008DDB0F9041040F2E652914202DA40F28D
:10068000DC518180B0F9021040F2D252914208DD73
:10069000B0F9021040F2E652914202DA40F2DC5127
:1006A0004180704730B500210022AA250C46491C24
:1006B0000555AF250C46491C055503250C46491C1C
:1006C000055500250C46491C0555424B1B88C3F3B4
:1006D00007250C46491C05553E4B1D780C46491C08
:1006E00005555B88C3F307250C46491C0555394B56
:1006F0009D780B464C1CE1B2C554364B9B88C3F326
:1007000007250B464C1CE1B2C554324B1D790B46F4
:100710004C1CE1B2C5542F4BDB88C3F307250B46B5
:100720004C1CE1B2C5542B4B9D790B464C1CE1B2DD
:10073000C55400250B464C1CE1B2C5540B464C1C5D
:10074000E1B2C5540B464C1CE1B2C5540B464C1CDF
:10075000E1B2C5540B464C1CE1B2C5540B464C1CCF
:10076000E1B2C5540B464C1CE1B2C5540B464C1CBF
:10077000E1B2C5540B464C1CE1B2C5540B464C1CAF
:10078000E1B2C5540B464C1CE1B2C5540B464C1C9F
:10079000E1B2C5540B1FC370002303E0C45C2244C4
:1007A0005C1CE3B28B42F9DB150E0B464C1CE1B22C
:1007B000C554C2F307450B464C1CE1B2C554C2F305
:1007C00007250B464C1CE1B2C5540B464C1CE1B24C
:1007D000C25430BDE844002070B52D494888FFF769
:1007E00041FD05464FF07A51FFF70AFD0446FFF739
:1007F0003EFD00F57A7027490988401A00B2264963
:1008000008802349C888FFF72DFD05464FF07A512F
:10081000FFF7F6FC0446FFF72AFD00F57A701D4944
:10082000C988401A00B21C49C88019498888FFF756
:1008300019FD05464FF07A51FFF7E2FC0446FFF739
:1008400016FD00F57A7013498988401A00B21249E2
:1008500088800F490888FFF705FD05464FF07A515B
:10086000FFF7CEFC0446FFF702FDC0F5FA60094928
:100870004988401A00B208494880084600F00EF83E
:100880000548FFF779FE0448FFF7CFFE70BD000072
:100890000000002088000020E84400204A490A683F
:1008A000091D4A4B1B8831F81310511A464A116032
:1008B00047490A68091D454B1B8831F81310511A26
:1008C000434A116043490A68091D404B1B8831F8AF
:1008D0001310511A3F4A11603F490A68091D3B4BEA
:1008E0001B8831F81310511A3B4A116001888AB2F3
:1008F0003549091D354B1B8821F81320C1888AB260
:100900003349091D314B1B8821F8132081888AB295
:100910003049091D2D4B1B8821F8132041888AB2CC
:100920002D49091D294B1B8821F8132026490A68E7
:10093000091D264B1B8831F813101144224A1160FF
:1009400023490A68091D214B1B8831F813101144F3
:100950001F4A11601F490A68091D1C4B1B8831F88A
:10096000131011441B4A11601B490A68091D174BDB
:100970001B8831F813101144174A11601249096895
:100980000A22B1FBF2F109B2018011490968B1FBF9
:10099000F2F109B2C1800F490968B1FBF2F109B265
:1009A00081800D490968B1FBF2F109B24180074924
:1009B0000988491C054A1180114609880A2901DB6A
:1009C0000021118070470000FC44002090000020AE
:1009D000144500202C4500204445002008B503F0B4
:1009E00039FE009009E0FFF795FD02F0BBFF00BF64
:1009F0001421684603F0E4FD00BFF4E708B503F0F6
:100A000029FE00900DE0FFF7E7FE0648FFF74AFEDB
:100A1000044801F035FF00BF0821684603F0D0FD0F
:100A200000BFF0E7CC01002000BFFEE710B5024890
:100A300000F0B6FA10BD0000E800002030B590F8D4
:100A400040500124AC40C56B6C600468636044682E
:100A5000102C04D10468A2600468E16003E004681B
:100A6000A1600468E26030BD7047000001B582B04B
:100A70004FF4FA60012301AA02A90090024801F094
:100A8000F9FA9DF804000EBD2C01002072B600BFDB
:100A9000FEE700001CB50648012100230A02CDE94B
:100AA000001004A1064803F057FD03F0B3FC1CBD81
:100AB000A800002053746172745F5461736B00006E
:100AC0007930000838B5024600230020009000BFAE
:100AD00092F82400012801D1022038BD012082F8BB
:100AE000240000BF4868072812D21068406B0C79B8
:100AF000641E04EB84051F24AC40A0430D796D1ED9
:100B000005EB85050C68AC4020431468606327E062
:100B100048680D2812D21068006B0C79E41F04EBB2
:100B200084051F24AC40A0430D79ED1F05EB85051E
:100B30000C68AC4020431468206311E01068C06A60
:100B40000C790D3C04EB84051F24AC40A0430D79C7
:100B50000D3D05EB85050C68AC4020431468E06250
:100B600008680A2812D31068C0680C780A3C04EBA5
:100B700044050724AC40A0430D780A3D05EB45052C
:100B80008C68AC4020431468E0600FE01068006996
:100B90000C7804EB44050724AC40A0430D7805EB2A
:100BA00045058C68AC402043146820610868102813
:100BB00002D00868112827D1174C1068A0421ED116
:100BC0001068806800F40000F0B91068806840F494
:100BD00000001468A0600868102815D10F4800684C
:100BE0000F4CB0FBF4F000EB80004000009002E0FE
:100BF0000098401E009000980028F9D104E0906A07
:100C000040F020009062012300BF002082F8240001
:100C100000BF184661E700000024014014000020D6
:100C200040420F0070477047704700002DE9F041C7
:100C30000446002700250026A84614B90120BDE877
:100C4000F081A06810B1207D00B100BFA06A30B96A
:100C50000020E06284F82400204600F089F8204655
:100C6000FFF7A3FB0746A06A00F01000002873D12D
:100C7000002F71D1A06A20F4885040F00200A062D9
:100C8000E16960680843217B40EA41000643A068AF
:100C9000B0F5807F02D0A068012802D14FF48070A7
:100CA00000E000200543207D012811D1207B38B9C8
:100CB000A069401E4FF4006141EA4030054307E05F
:100CC000A06A40F02000A062E06A40F00100E0620B
:100CD0002068406820F46940284321684860206803
:100CE000806821490840304321688860A068B0F5D9
:100CF000807F02D0A068012802D14FF4807000E00C
:100D00000020B0F5807F03D1208A401E4FEA0058B2
:100D10002068C06A20F4700040EA08002168C862B8
:100D20002068806811490840B04208D10020E06284
:100D3000A06A20F0020040F00100A06211E0A06A69
:100D400020F0020040F01000A062E06A40F00100D4
:100D5000E062012705E0FFE7A06A40F01000A06212
:100D6000012738466BE70000FDF7E1FFFE0E1FFF8D
:100D700010B586B0044600200290039004900590C0
:100D80002249206888423ED100BF2148806940F452
:100D900000701F4988610846806900F40070019066
:100DA00000BF00BF00BF0846806940F004008861B2
:100DB0000846806900F00400019000BF00BF0F20CA
:100DC00002900320039002A9124800F04DFA124845
:100DD000124908600020486000211048816080218D
:100DE000C1604900016189004161202181610902DE
:100DF000C16100F0A3F908B1FFF748FE00BF074842
:100E00002062446200BF06B010BD00000024014013
:100E1000001002400008014008000240E8000020E5
:100E20002DE9F04104460D46164600275749206833
:100E3000884203D056492068884205D15348001D96
:100E4000006800F4702000E0002000287ED100BF80
:100E500094F82400012802D10220BDE8F08101208D
:100E600084F8240000BF2046FFF70CFB0746002F44
:100E70006DD1A06A40F60161884340F48070A062A1
:100E800043492068884209D14048001D006800F4A9
:100E9000702008B9012002E0002000E0012078B1B4
:100EA000A06A20F48010A0622068406800F480608E
:100EB00000B3A06A20F4005040F48050A06219E012
:100EC000A06A40F48010A06230492068884203D0B4
:100ED0002F492068884205D12C48001D006800F485
:100EE000806000E0002028B1A06A20F4005040F4A7
:100EF0008050A062A06A00F4805020B1E06A20F027
:100F00000600E06201E00020E06200BF002084F8FB
:100F1000240000BF1F48216A88621F48216AC862F6
:100F20001E48216A08636FF002002168086020688B
:100F3000806840F4807021688860226802F14C016A
:100F400033462A46206A00F02DF901E01AE014E049
:100F50002068806800F46020B0F5602F06D120681A
:100F6000806840F4A000216888600CE020688068F8
:100F700040F480102168886005E000BF002084F8FC
:100F8000240000E00127384667E700000024014004
:100F900000280140070400087704000859040008ED
:100FA00070B50446E06B05682068066894F8401048
:100FB000042088402840002846D006F0040000287D
:100FC00042D02068006800F0200028B9206800683E
:100FD00020F004002168086057492068884201D148
:100FE000042027E0544914312068884201D1402070
:100FF00020E0514928312068884201D1001519E0CC
:101000004D493C312068884202D14FF4804011E0C4
:10101000494950312068884202D14FF4802009E0CC
:10102000454964312068884202D14FF4800001E0D4
:101030004FF08060404908394860E06A00287AD063
:101040002046E16A884776E094F840100220884004
:101050002840A0B306F0020088B32068006800F0C2
:10106000200040B92068006820F00A00216808606C
:10107000012084F8210030492068884201D10220F3
:1010800028E02D4914312068884201D1202021E038
:10109000294928312068884201D140151AE02649A3
:1010A0003C312068884202D14FF4005012E02249BE
:1010B00050312068884203D14FF400300AE017E035
:1010C0001D4964312068884202D14FF4001001E0CC
:1010D0004FF0007018490839486000BF002084F8BC
:1010E000200000BFA06A30B32046A16A884722E0F2
:1010F00094F84010082088402840E0B106F008002D
:10110000C8B12068006820F00E002168086094F8DB
:10111000401001208840E16B48600120A06384F802
:10112000210000BF002084F8200000BF206B10B118
:101130002046216B884770BD08000240014600220E
:1011400009B901207047164B0868C01A1423B0FB78
:10115000F3F08000086412480838C863022081F860
:1011600021000868026843F6F0708243D1E9010368
:101170001843CB6818430B6918434B6918438B69B4
:101180001843CB6918430243086802600020886353
:10119000012081F82100002081F8200000BFD1E764
:1011A000080002402DE9F04104460D4616461F4650
:1011B0004FF0000800BF94F82000012802D102205F
:1011C000BDE8F081012084F8200000BF94F82100E0
:1011D00001282CD1022084F821000020A06320687F
:1011E000006820F00100216808603B46324629462D
:1011F0002046FFF723FCE06A30B12068006840F029
:101200000E00216808600BE02068006820F00400F0
:10121000216808602068006840F00A0021680860C2
:101220002068006840F001002168086006E000BF07
:10123000002084F8200000BF4FF002084046BFE7BE
:1012400070B5044600F0AEF906462546681C10B19C
:1012500004480078054400BF00F0A4F9801BA842B0
:10126000FAD370BD100000202DE9F8470346002294
:1012700094466EE14FF0010808FA02F4D1F80080BC
:1012800008EA0400A0427DD1DFF8DCA2D1F8048096
:10129000A8EB0A09D0453AD014DCB8F1030F50D0BE
:1012A00009DCB8F1000F31D0B8F1010F1CD0B8F152
:1012B000020F49D120E0B8F1110F18D0B8F1120F88
:1012C00042D11EE0B9F5881F25D006DCB9F5803F74
:1012D00020D0B9F5801F37D11AE0B9F5001F18D01A
:1012E000B9F5041F30D117E0D1F80CC02DE0D1F8CA
:1012F0000C8008F1040C28E0D1F80C8008F1080CEF
:1013000023E0D1F80C8008F10C0C1EE000BF00BFF8
:1013100000BF00BF00BF00BFD1F80880B8F1000FC8
:1013200002D14FF0040C0BE0D1F80880B8F1010FA6
:1013300003D14FF0080C1C6102E04FF0080C5C6117
:1013400003E04FF0000C00E000BF00BFFF2801D811
:10135000984601E003F104084646FF2802D84FEA08
:10136000820803E0A2F108084FEA88084746D6F849
:1013700000804FF00F0909FA07F928EA09080CFA6A
:1013800007F900E088E048EA0908C6F80080D1F8CB
:10139000048008F08058B8F1805F7DD100BFDFF88D
:1013A000CC81D8F8188048F00108DFF8C091C9F85E
:1013B0001880C846D8F8188008F00108CDF80080D9
:1013C00000BF00BF4FEAB9384FEA920958F82950D8
:1013D0004FEA82784FEA18794FF00F0808FA09F8B7
:1013E00025EA0805DFF88881434502D14FF000085F
:1013F00016E0DFF88081434502D14FF001080FE08D
:10140000DFF87481434502D14FF0020808E0DFF8AD
:101410006C81434502D14FF0030801E04FF004080E
:101420004FEA82794FEA197908FA09F848EA05057E
:10143000DFF84C814FEA920948F82950D1F804802E
:1014400008F48018B8F5801F0AD1DFF83881D8F881
:10145000008048EA0008DFF82C91C9F8008009E014
:10146000DFF82081D8F8008028EA0008DFF814911E
:10147000C9F80080D1F8048008F40018B8F5001FFE
:1014800010D1DFF8008108F10408D8F8008048EA9C
:101490000008DFF8F09000E05AE009F10409C9F80B
:1014A00000800DE0DFF8DC8008F10408D8F8008047
:1014B00028EA0008DFF8CC9009F10409C9F8008097
:1014C000D1F8048008F40038B8F5003F0ED1DFF8F9
:1014D000B480A8F10408D8F8008048EA0008DFF8D2
:1014E000A490A9F10409C9F800800DE0DFF8948008
:1014F000A8F10408D8F8008028EA0008DFF88490F2
:10150000A9F10409C9F80080D1F8048008F48038F2
:10151000B8F5803F0ED1DFF86C80A8F10808D8F844
:10152000008048EA0008DFF85C90A9F10809C9F8D2
:1015300000800DE0DFF84C80A8F10808D8F80080A2
:1015400028EA0008DFF83C90A9F10809C9F80080F2
:10155000521CD1F8008028FA02F8B8F1000F7FF48D
:1015600089AEBDE8F88700000000111000100240AD
:1015700000080140000C014000100140001401402F
:101580000800014008040140024693680B400BB17B
:10159000012000E0002070470AB1016101E00B0466
:1015A0000361704701480068704700000800002090
:1015B00003480068034909780844014908607047F6
:1015C000080000201000002010B50848006840F016
:1015D000100006490860032000F0A8F80F2000F072
:1015E00007F800F02BF8002010BD0000002002409A
:1015F00070B504460E4800784FF47A71B1FBF0F0F4
:101600000C490968B1FBF0F5284600F053FE08B11B
:10161000012070BD102C07D200222146501E00F080
:1016200047F80548046001E00120F2E70020F0E7F8
:1016300010000020140000200C00002008B500BF9E
:101640001148806940F001000F49886108468069AF
:1016500000F00100009000BF00BF00BF0846C06955
:1016600040F08050C8610846C06900F0805000908A
:1016700000BF00BF00BF0549486820F0E06040F0AF
:101680000070486000BF08BD00100240000001402B
:1016900001460846002809DB00F01F0301229A409A
:1016A00043099B0003F1E023C3F8002100BF70470A
:1016B0002DE9F05F80460D461646002701F03CFEFE
:1016C000074639462A46334601F00700C0F1070AAB
:1016D000BAF1040F02D94FF0040A01E0C0F1070A81
:1016E000D14600F1040ABAF1070F02D24FF0000A06
:1016F00001E0A0F1030AD4464FF0010A0AFA09FA00
:10170000AAF1010A0AEA020A0AFA0CFA4FF0010BDE
:101710000BFA0CFBABF1010B0BEA030B4AEA0B04CF
:101720002146404601F010FEBDE8F09F00BF00F0EA
:101730000702064B19684FF6FF031940044B0B4391
:1017400043EA0221014B196000BF70470CED00E035
:101750000000FA05F8B5044600260025207800F0C0
:10176000010000286BD000274348C06900F080507A
:1017700070B900BF4048C06940F080503E49C86120
:101780000846C06900F08050009000BF00BF0127EC
:101790003A48006800F48070B0B93848006840F4F6
:1017A000807036490860FFF7FDFE064606E0FFF749
:1017B000F9FE801B642801D90320F8BD2F4800687A
:1017C00000F480700028F2D02B48006A00F44075C5
:1017D0002DB3A08800F44070A84220D02648006AAB
:1017E00020F4407501202649086000200860224846
:1017F000056205F0010090B1FFF7D4FE064608E04F
:10180000FFF7D0FE801B41F28831884201D90320C6
:10181000D3E71948006A00F002000028F0D016480B
:10182000006A20F440706168084313490862012F80
:1018300004D10846C06920F08050C86100BF2078FC
:1018400000F00200022807D10B48406820F4404015
:10185000A168084308494860207800F0100010286B
:1018600007D10548406820F48000E1680843024938
:1018700048600020A1E70000001002400070004016
:101880004004424270B504460D460CB9012070BDBB
:101890005A48006800F00700A8420ED25748006876
:1018A00020F007002843554908600846006800F00A
:1018B0000700A84201D00120E9E7207800F00200EB
:1018C00002281DD1207800F00400042805D14C48DE
:1018D000406840F4E0604A494860207800F0080021
:1018E000082805D14648406840F4605044494860A3
:1018F0004348406820F0F000A16808434049486030
:10190000207800F0010078B36068012806D13C48D7
:10191000006800F4003090B90120B8E76068022840
:1019200006D13748006800F0007040B90120AEE7EA
:101930003348006800F0020008B90120A7E73048EA
:10194000406820F00300616808432D494860FFF7B4
:1019500029FE064609E0FFF725FE801B41F288318B
:10196000884202D9032092E707E02548406800F04A
:101970000C006168B0EB810FEDD12048006800F0E9
:101980000700A8420ED91D48006820F00700284330
:101990001A4908600846006800F00700A84201D014
:1019A000012074E7207800F00400042807D11448CF
:1019B000406820F4E060E1680843114948602078FD
:1019C00000F00800082808D10D48406820F4605055
:1019D000216940EAC1000A49486000F03FF808491F
:1019E0004968C1F30311074A515CC84006490860C1
:1019F00006480068FFF7FCFD002048E70020024091
:101A0000001002405E490008140000200C00002075
:101A100001480068704700001400002000B5FFF77F
:101A2000F7FF04494968C1F30221034A515CC840E9
:101A300000BD0000001002406E49000800B5FFF72D
:101A4000E7FF04494968C1F3C221034A515CC84019
:101A500000BD0000001002406E49000870B5002172
:101A60000022002400230020134D696801F00C05BA
:101A7000F5B1042D02D0082D19D101E00F4819E06D
:101A80000F4DC1F38346AB5D01F4803555B10A4D6E
:101A90006D68C5F340450B4E725D084D5D43B5FB67
:101AA000F2F402E0084D03FB05F4204602E000BF1B
:101AB000024800BF00BF70BD0010024000127A0053
:101AC0004C4900085C49000800093D00F8B504468F
:101AD0000CB90120F8BD207800F00100002878D072
:101AE000F848406800F00C0004280CD0F548406825
:101AF00000F00C00082811D1F248406800F4803052
:101B0000B0F5803F0AD1EF48006800F400300028AB
:101B10005FD0606800285CD10120DBE700BF60680F
:101B2000B0F5803F06D1E748006840F48030E549D1
:101B3000086028E0606858B9E248006820F4803006
:101B4000E04908600846006820F4802008601AE038
:101B50006068B0F5A02F0BD1DA48006840F480200F
:101B6000D84908600846006840F4803008600AE000
:101B7000D448006820F48030D249086008460068E4
:101B800020F48020086000BF606888B1FFF70AFD7C
:101B9000054606E0FFF706FD401B642801D9032037
:101BA00098E7C848006800F400300028F2D010E040
:101BB000FFF7F8FC054606E0FFF7F4FC401B64283D
:101BC00001D9032086E7BF48006800F400300028F0
:101BD000F2D1207800F00200022857D1B9484068BD
:101BE00000F00C0050B1B748406800F00C00082825
:101BF00018D1B448406800F4803098B9B148006802
:101C000000F0020020B12069012801D0012061E725
:101C1000AC48006820F0F800616940EAC100A949B9
:101C2000086033E02069E8B10120A7490860FFF7A8
:101C3000B9FC054606E0FFF7B5FC401B022801D9B8
:101C4000032047E79F48006800F002000028F2D018
:101C50009C48006820F0F800616940EAC100994999
:101C6000086013E0002098490860FFF79BFC0546D8
:101C700006E0FFF797FC401B022801D9032029E763
:101C80009048006800F002000028F2D1207800F0AF
:101C9000080008282DD1A069B8B101208B4908603F
:101CA000FFF780FC054606E0FFF77CFC401B02289E
:101CB00001D903200EE78348406A00F002000028A3
:101CC000F2D0012001F044F913E000207F490860C0
:101CD000FFF768FC054606E0FFF764FC401B02289E
:101CE00001D90320F6E67748406A00F00200002898
:101CF000F2D1207800F00400042873D10027714845
:101D0000C06900F0805070B900BF6E48C06940F0F3
:101D100080506C49C8610846C06900F0805000904E
:101D200000BF00BF01276A48006800F48070B0B9A6
:101D30006748006840F4807065490860FFF732FC2E
:101D4000054606E0FFF72EFC401B642801D903205E
:101D5000C0E65F48006800F480700028F2D000BF41
:101D6000E068012806D15748006A40F00100554953
:101D7000086227E0E06858B95248006A20F0010084
:101D8000504908620846006A20F00400086219E021
:101D9000E06805280BD14B48006A40F0040049492F
:101DA00008620846006A40F0010008620AE04548FF
:101DB000006A20F00100434908620846006A20F0EA
:101DC0000400086200BFE068A0B1FFF7EBFB054626
:101DD00009E0FFF7E7FB401B41F28831884202D956
:101DE000032077E622E03748006A00F0020000286E
:101DF000EFD012E0FFF7D6FB054608E0FFF7D2FB75
:101E0000401B41F28831884201D9032062E62D4807
:101E1000006A00F002000028F0D1012F05D1294806
:101E2000C06920F080502749C86100BFE069C8B38D
:101E30002448406800F00C00082860D0E0690228BF
:101E400048D1002020490866FFF7ACFB054606E0B4
:101E5000FFF7A8FB401B022801D903203AE61948E6
:101E6000006800F000700028F2D1206AB0F5803FD1
:101E700007D11448406820F40030A1680843114994
:101E80004860D4E9080108430E49496821F47411F7
:101E900008430C49486001200B490866FFF782FBA4
:101EA000054607E03DE0FFF77DFB401B022801D916
:101EB00003200FE60348006800F000700028F2D00D
:101EC0002FE0000000100240000042428004424225
:101ED00000700040002014490866FFF763FB0546C8
:101EE00006E0FFF75FFB401B022801D90320F1E564
:101EF0000E48006800F000700028F2D111E0E0699F
:101F0000012800D1E6E50948466806F48031206AD8
:101F1000814204D106F47011606A814201D001202F
:101F2000D8E50020D6E50000000042420010024043
:101F300010B504460CB9012010BD606A38B960685C
:101F4000B0F5827F00D105E00021E16102E00021CF
:101F5000216161610021A16294F8510028B900203B
:101F600084F85000204600F043F8022084F8510025
:101F70002068006820F0400021680860A08800F414
:101F80008270218901F404410843A18901F40061B0
:101F90000843217C01F002010843217D01F0010189
:101FA0000843218B01F400710843217F01F03801BF
:101FB00008432021095D01F080010843218D01F4CF
:101FC00000510843216808600421A06901EA10401B
:101FD000216848602068C06920F400602168C861F9
:101FE00000206065012084F851000020A4E7000073
:101FF00010B586B00446002002900390049005902E
:102000001949206888422DD100BF1848806940F4E2
:102010008050164988610846806900F4805001901C
:1020200000BF00BF00BF0846806940F0040088611F
:102030000846806900F00400019000BF00BFA020A6
:102040000290022003900320059002A90848FFF7A0
:102050000BF94020029000200390049002A904484C
:10206000FFF702F906B010BD003001400010024039
:10207000000801402DE9FF5F0446884691461D4651
:102080000E9E012002900020019000BF94F85000A5
:10209000012803D1022004B0BDE8F09F012084F89C
:1020A000500000BFFFF77EFA074694F851B0606811
:1020B0000390AA46BBF1010F0BD00398B0F5827FC5
:1020C00004D1A06810B9BBF1040F02D00220019026
:1020D000E9E0B8F1000F03D0B9F1000F00D015B955
:1020E00001200190DFE094F85100042802D005207F
:1020F00084F8510000206065C4F83890E587A58712
:10210000C4F83080E586A586206460642068006895
:1021100000F04000402805D02068006840F04000F2
:1021200021680860E068B0F5006F4DD1606810B1BB
:10213000BAF1010F09D1206B00882168C860206BBB
:10214000801C2063E08E401EE08636E020688068B8
:1021500000F00200022810D1E08E70B10298012830
:102160000BD1206B00882168C860206B801C206325
:10217000E08E401EE086002002902068806800F01B
:10218000010068B1E08F58B12068C068A16B088079
:10219000A06B801CA063E08F401EE08701200290AE
:1021A000FFF700FAC01BB04207D3701C28B1032010
:1021B0000190012084F8510075E0E08E0028C5D11F
:1021C000E08F0028C2D14DE0606810B1BAF1010F74
:1021D00009D1206B007821680873206B401C2063B4
:1021E000E08E401EE08637E02068806800F0020044
:1021F000022810D1E08E70B1029801280BD1206B1B
:10220000007821680873206B401C2063E08E401E1C
:10221000E086002002902068806800F0010068B12C
:10222000E08F58B12068C068A16B0870A06B401C9B
:10223000A063E08F401EE08701200290FFF7B2F913
:10224000C01BB04201D3701C00B92EB9032001900D
:10225000012084F8510026E0E08E0028C4D1E08FF0
:102260000028C1D13A463146204600F085FE20B113
:10227000012001902020606515E0A06850B900BFE2
:10228000002000902068C06800902068806800905E
:1022900000BF00BF606D10B10120019002E001207D
:1022A00084F8510000BF00BF002084F8500000BF38
:1022B0000198F0E670B504462546681EB0F1807FAF
:1022C00001D301200FE0681E4FF0E02148610F218B
:1022D0004FF0FF3001F038F800204FF0E021886126
:1022E00007200861002070BD10B504460CB901201C
:1022F00010BDA06900B100E000BF94F8410028B90A
:10230000002084F84000204600F02AF8242084F8B9
:1023100041002068C06820F400502168C860204651
:1023200000F030FF2068006920F4904021680861C7
:102330002068406920F02A00216848612068C06850
:1023400040F400502168C86000206064202084F8B8
:10235000410084F842000020606300BFC8E700002D
:1023600010B586B0044600200290039004900590BA
:102370001A49206888422ED100BF1948806940F46C
:102380008040174988610846806900F480400190C8
:1023900000BF00BF00BF0846806940F004008861AC
:1023A0000846806900F00400019000BF00BF481596
:1023B0000290022003900320059002A90948FEF72D
:1023C00053FF4FF48060029000200390049002A914
:1023D0000448FEF749FF06B010BD00000038014078
:1023E00000100240000801402DE9F84F04460E4657
:1023F000174699464FF0000A94F8410020284AD128
:1024000006B117B90120BDE8F88F002060642120D3
:1024100084F84100FFF7C6F88246A784E784A068E5
:10242000B0F5805F04D1206910B90025B04602E004
:1024300035464FF000081BE053460022802120461D
:10244000CDF8009000F01CFF08B10320DBE745B990
:10245000B8F80000C0F308002168486008F10208DD
:1024600003E02878216848606D1CE08C401EE08401
:10247000E08C0028E0D15346002240212046CDF8D0
:10248000009000F0FDFE08B10320BCE7202084F896
:1024900041000020B7E70220B5E700BFFEE70000DB
:1024A0000EB5002000900190029023482349086057
:1024B00081152248816001210173002101754FF4CB
:1024C0006021C16100201D49486004211B48016151
:1024D000FEF7ACFB08B1FEF7D9FA0020009001200E
:1024E0000190029069461548FEF7ECFA08B1FEF734
:1024F000CDFA012000900220019069460F48FEF7B6
:10250000E1FA08B1FEF7C2FA022000900320019020
:1025100069460A48FEF7D6FA08B1FEF7B7FA032073
:1025200000900420019069460448FEF7CBFA08B1F8
:10253000FEF7ACFA0EBD000000240140B8000020F8
:1025400008B500BF0A48406940F0010008494861E9
:102550000846406900F00100009000BF00BF002263
:1025600011460B20FFF7A4F80B20FFF791F808BDE8
:102570000010024000B585B0002001900290039049
:10258000049000BF3D48806940F010003B498861DD
:102590000846806900F01000009000BF00BF00BF37
:1025A0000846806940F0200088610846806900F094
:1025B0002000009000BF00BF00BF0846806940F0C7
:1025C000040088610846806900F00400009000BFA4
:1025D00000BF00BF0846806940F0080088610846D7
:1025E000806900F00800009000BF00BF012248F29F
:1025F00010012348FEF7D0FF01224FF4704121481B
:10260000FEF7CAFF48F2100001900120029000205E
:1026100003900320049001A91948FEF725FE4FF40A
:10262000704001900120029000200390032004904C
:1026300001A91448FEF718FE4FF4807001900020A5
:1026400002900120039001A90D48FEF70DFEF8202D
:102650000190002002900120039001A90948FEF793
:1026600003FE4FF48070019000200290039001A9B6
:102670000448FEF7F9FD05B000BD0000001002405F
:1026800000080140000C014010B50E480E490860DA
:102690004FF48270486000210B488160C160016185
:1026A00041614FF4007181611021C161002101621B
:1026B000416281620A21C162FFF73AFC08B1FEF76C
:1026C000E5F910BD003001402C01002010B50B4889
:1026D0000B4908604FF4E1304860002108488160F0
:1026E000C16001610C21416100218161C161FFF77D
:1026F000FBFD08B1FEF7CAF910BD0000003801402B
:102700008401002000BFFEE700BFFEE77FB519A1EE
:1027100003C9CDE9020100200090019000250522A7
:1027200002A9302000F0E0F805226946102000F0F0
:1027300037F8002415E01DF8042021460FA000F012
:10274000EBFD02A8025D214611A000F0E5FD1DF899
:10275000040002A9095D884201D1681CC5B2601C51
:10276000C4B2052CE7DB052D02D1002004B070BDFA
:102770000120FBE7A5A5A5A5A5000000726563657E
:102780006976655B25645D3D253032780D0A000071
:1027900073656E645B25645D3D253032780D0A00FB
:1027A0002DE9F04107460C461546002210210C4841
:1027B000FEF7F2FE3846FEF759F9002606E0002043
:1027C000FEF754F904F8010B701CC6B2AE42F6DBFA
:1027D000012210210248FEF7DFFE0020BDE8F08153
:1027E0000008014070B50446002500221021084869
:1027F000FEF7D2FE2046FEF739F90020FEF736F943
:102800000546012210210248FEF7C6FE284670BD8B
:102810000008014010B500224FF400411548FEF7B2
:10282000BBFE05221449302000F05EF80522134952
:102830002A2000F059F80121212000F079F8012127
:10284000222000F075F80A21242000F071F82821D8
:10285000252000F06DF80F21262000F069F80E21E8
:10286000202000F065F80122D1030248FEF794FE13
:10287000002010BD00080140180000201D000020AD
:1028800070B50546002400224FF400411548FEF7BC
:1028900083FE1C222946A02000F026F80122D10345
:1028A0001048FEF779FE03E00720FFF79BFF044680
:1028B00004F030000028F7D02146272000F038F837
:1028C00004F0100030B104F0010018B1FF21E12044
:1028D00000F02EF804F0200008B1002070BD0120A7
:1028E000FCE70000000801402DE9F04107460C46D6
:1028F00015464FF00008002210210C48FEF74CFE50
:102900003846FEF7B3F88046002605E014F8010BC0
:10291000FEF7ACF8701CC6B2AE42F7DB0122102104
:102920000248FEF739FE4046BDE8F081000801404C
:1029300070B505460C460026002210210848FEF717
:102940002BFE2846FEF792F806462046FEF78EF844
:10295000012210210248FEF71FFE304670BD000024
:102960000008014070B500240CE0002506E00020BE
:10297000074901EBC5010855681CC5B2802DF6DB7F
:10298000601CC4B2082CF0DB00F0B4F870BD00008D
:1029900004020020F0B5144600267F2801DC3F2900
:1029A00000DDF0BD0B46CF1701EB5777FF10C7F1E5
:1029B0000707FAB2CF1701EB5777FF10A1EBC70754
:1029C000FDB2C5F107070123BB40DEB24CB10A4B93
:1029D00003EBC0039B5C3343074F07EBC007BB54BB
:1029E00008E0054B03EBC0039B5CB343024F07EBCE
:1029F000C007BB5400BFD4E70402002010B500227A
:102A00004FF480413A48FEF7C7FD6420FEF718FCFA
:102A1000012291033648FEF7BFFD0021AE2000F0F1
:102A200051FA0021084600F04DFA0021102000F074
:102A300049FA0021402000F045FA0021812000F0F1
:102A400041FA0021CF2000F03DFA0021A12000F042
:102A500039FA0021C02000F035FA0021A62000F04C
:102A600031FA0021A82000F02DFA00213F2000F0CB
:102A700029FA0021D32000F025FA0021084600F0B1
:102A800021FA0021D52000F01DFA0021802000F05D
:102A900019FA0021D92000F015FA0021F12000F0E8
:102AA00011FA0021DA2000F00DFA0021122000F0C6
:102AB00009FA0021DB2000F005FA0021302000F0A7
:102AC00001FA0021202000F0FDF90021022000F091
:102AD000F9F900218D2000F0F5F90021142000F013
:102AE000F1F9FFF73FFF0021AF2000F0EBF910BD37
:102AF000000C014070B500241CE004F1B001C8B224
:102B0000002100F0DFF90021084600F0DBF9002188
:102B1000102000F0D7F9002508E0084901EBC501B5
:102B2000085D012100F0CEF9681CC5B2802DF4DBF0
:102B3000601CC4B2082CE0DB70BD00000402002061
:102B40002DE9F04F07460C4690461D46A346002649
:102B500034E008EB48001B4901EB800010F80690B8
:102B60004FF0000A24E009F0800028B121463846E1
:102B7000099AFFF70FFF09E0099808B9012000E062
:102B80000020024621463846FFF704FF4FEA49601D
:102B90004FEA1069601CC4B2A4EB0B00A84203D139
:102BA0005C46781CC7B206E00AF1010000F0FF0A9B
:102BB000BAF1080FD7DB00BF701CC6B2AE42C8DB4B
:102BC000BDE8F08FDA5300082DE9F04F80460C463F
:102BD00015461E46A346A5F12000C5B200273EE0DB
:102BE0000C2E07D105EB45001F4901EB800010F8C2
:102BF000079004E01D4800EB051010F807904FF017
:102C0000000A26E009F0800028B121464046099AD2
:102C1000FFF7C0FE09E0099808B9012000E0002094
:102C2000024621464046FFF7B5FE4FEA49604FEAAB
:102C30001069601CC4B2A4EB0B00B04205D15C4625
:102C400008F1010000F0FF0806E00AF1010000F0C1
:102C5000FF0ABAF1080FD5DB00BF781CC7B2B74234
:102C6000BEDBBDE8F08F000076490008EA4D0008A1
:102C70002DE9FF4F81B0074691461E460E9D4FF04D
:102C8000000A002439E0301B401EC1B20A2000F0C7
:102C90005DFEB9FBF0F00A21B0FBF1F201FB120876
:102CA000BAF1000F16D1701EA04213DDB8F1000F6B
:102CB0000ED10120AB4605EBDB71491001FB04711D
:102CC0000090C8B22B4620220299FFF77DFF12E048
:102CD0004FF0010A0120AB4605EBDB71491001FB07
:102CE00004710090C8B208F13001CAB22B460299B3
:102CF000FFF76AFF00BF601CC4B2B442C3DB05B07B
:102D0000BDE8F08F2DE9F84305460E4614461F46F0
:102D1000DDF8208018E07A2D03DD002506F1100093
:102D2000C6B23A2E04DD002005460646FFF71AFE1D
:102D3000CDF8008022783B4631462846FFF744FF15
:102D400005F10800C5B2641C20780028E3D1BDE875
:102D5000F8832DE9F84306460F4614461D46DDF874
:102D60002090012000906006020E2B463946304626
:102D7000FFF7E6FE0120A84605EBD87106EB6101DE
:102D80000090C8B2012101EB4401CAB22B4639467A
:102D9000FFF7D6FEBDE8F8832DE9F84F04460E464E
:102DA00090461F46DDE90B5ADDF828900D2C7ED2A7
:102DB000DFE804F0071019222B343D464F58616AB2
:102DC00074003019C2B22B46494638460095FFF7C9
:102DD000C0FF74E03019C2B22B4649463846009510
:102DE000FFF7B7FF6BE03019C2B22B4649463846B1
:102DF0000095FFF7AEFF62E03019C2B22B4649469C
:102E000038460095FFF7A5FF59E03019C2B22B46AE
:102E1000494638460095FFF79CFF50E03019C2B292
:102E20002B46494638460095FFF793FF47E0301997
:102E3000C2B22B46494638460095FFF78AFF3EE06E
:102E40003019C2B22B46494638460095FFF781FF3C
:102E500035E03019C2B22B46494638460095FFF797
:102E600078FF2CE03019C2B22B464946384600950F
:102E7000FFF76FFF23E03019C2B22B4649463846B0
:102E80000095FFF766FF1AE03019C2B22B4649469B
:102E900038460095FFF75DFF11E008E03019C2B237
:102EA0002B46494638460095FFF753FF07E02B466F
:102EB0004246494638460095FFF74BFF00BF00BF2A
:102EC000BDE8F88F70B504460E462EB101221103FD
:102ED0001D48FEF761FB05E000224FF480511A48BF
:102EE000FEF75AFB002210211848FEF755FB00257B
:102EF0001DE000224FF400511348FEF74DFB04F093
:102F0000800028B10122D1030F48FEF745FB05E000
:102F100000224FF400410C48FEF73EFB0122510312
:102F20000948FEF739FB6006040E681CC5B2082D7F
:102F3000DFDB012210210548FEF72EFB01221103E1
:102F40000148FEF729FB70BD000C0140000801405C
:102F500008B508490968C9084FF47A72B1FBF2F163
:102F60004143009100BF00BF00994A1E0092002912
:102F7000F9D108BD14000020F8B504460D461646E8
:102F80002B46002280212046009600F009F828B147
:102F9000606D40F0200060650320F8BD0020FCE774
:102FA0002DE9F84F04460D4690461E46DDF8289060
:102FB000FEF7F8FAA0EB0900371AFEF7F3FA82469B
:102FC0002C480068C0F3CB307843009045E0701C7B
:102FD000002842D0FEF7E6FAA0EB0A00B84200D281
:102FE000A7BB2068406820F0E00021684860606866
:102FF000B0F5827F0DD1A068B0F5004F03D0A06876
:10300000B0F5806F05D12068006820F0400021688D
:103010000860A06AB0F5005F0DD100BF20680068AD
:1030200020F40050216808602068006840F40050D7
:103030002168086000BF012084F8510000BF002013
:1030400084F8500000BF0320BDE8F88FFFE7009828
:1030500000B900270098401E009020688068284032
:10306000A84201D1012000E000204045AFD100205E
:10307000EAE70000140000201CB5044601F00CF93A
:103080000D48032100234FF48072CDE900100BA1FD
:103090000E4801F061FA0E4802210023CA01CDE971
:1030A00000100CA10F4801F057FA002001F048F978
:1030B00001F004F91CBD0000AC0000204170705FFD
:1030C0005461736B5F344D5300000000FD0900082C
:1030D000B00000204170705F5461736B5F32304DFF
:1030E00053000000DD09000810B5FEF761FA01F099
:1030F000A1FA012801D001F015FA10BD00B593B076
:10310000282109A8FDF771F8142104A8FDF76DF82E
:10311000002000900190029003900120099000048B
:103120000A9000200B9001200D9002201090C10306
:1031300011914FF4E011129109A8FEF7C7FC08B1F4
:10314000FDF7A4FC0F2004900220059000200690BB
:103150004FF48060079000200890022104A8FEF739
:1031600091FB08B1FDF792FC0220009080030290D1
:103170006846FEF7EFFA08B1FDF788FC13B000BD12
:103180007047000070B504462168096921F4405178
:10319000E2681143226811612269A16811436269E2
:1031A00041EA02052168C96841F20C629143294352
:1031B0002268D1602168496921F44071A2691143F4
:1031C000226851612D4A2168914202D1FEF736FCF6
:1031D00001E0FEF723FC00EBC00101EB0011626887
:1031E0009200B1FBF2F100EBC00202EB0012636847
:1031F0009B00B2FBF3F26423B2FBF3F202EBC203D7
:1032000003EB0212A1EB8201322202EB01116422D4
:10321000B1FBF2F101F0F00100EBC00202EB001291
:1032200063689B00B2FBF3F26423B2FBF3F201EBA1
:10323000021200EBC00101EB001163689B00B1FBBF
:10324000F3F100EBC00303EB00136668B600B3FBB9
:10325000F6F36426B3FBF6F303EBC30606EB0313A6
:10326000A1EB8301322303EB01116423B1FBF3F1E2
:1032700001F00F0111442268916070BD00380140D7
:103280002DE9F04104460D4617469846069E34E067
:10329000701C88B32EB1FEF785F9A0EB0800B04290
:1032A0002BD900BF00BF21680C3151E8001F21F469
:1032B000D07021680C3141E80002002AF3D100BF30
:1032C00000BF00BF2168143151E8001F21F0010048
:1032D0002168143141E80002002AF3D100BF202008
:1032E00084F8410084F8420000BF002084F84000C8
:1032F00000BF0320BDE8F081FFE720680068284098
:10330000A84201D1012000E00020B842C0D0002036
:10331000F0E700BFFEE700000FB4054B10B503A9AE
:10332000044A029800F034F810BC5DF814FB000069
:10333000F5370008B400002002480068C0F30220FE
:10334000704700000CED00E010B5002804DB0A0710
:10335000130E054A135406E00A07140E034A00F040
:103360000F031B1FD45410BD00E400E018ED00E073
:1033700002E008C8121F08C1002AFAD1704770473E
:10338000002001E001C1121F002AFBD1704700009C
:103390002DE9FF4F8DB00F460546002606E0252893
:1033A0000BD0DDE90F1290476D1C761C28780028A1
:1033B000F5D111B03046BDE8F08F0024A246A146F9
:1033C0000122EC4900E0044315F8013F203B02FADA
:1033D00003F00842F7D128782A2810D06FF02F0286
:1033E0002878A0F13001092914D80AEB8A0102EBF0
:1033F000410144F0020400EB010A6D1CF0E701CF2B
:103400005FEA000A03D544F40054CAF1000A44F00C
:1034100002046D1C28782E2817D115F8010F44F0EE
:1034200004042A280ED06FF02F022878A0F1300172
:1034300009290AD809EB890102EB410100EB0109D6
:103440006D1CF2E757F8049B6D1C28786C280FD090
:1034500006DC4C2817D068280DD06A2814D104E067
:10346000742810D07A280FD10DE044F400140AE03B
:1034700044F4801401E044F440146978814202D19C
:1034800004F580146D1C6D1C2A786E2A1FD00CDC8C
:10349000632A31D004DC002A8BD0582A11D1A3E052
:1034A000642A68D0692A0CD165E0732A2ED004DC26
:1034B0006F2A73D0702A04D19BE0752A6FD0782AC6
:1034C0006ED01046DDE90F129047761C50E1C4F330
:1034D0000250022806D0032809D0042801CF09D0C1
:1034E000066045E101CFF117C0E9006140E101CF7D
:1034F00006803DE106703BE117F8040B8DF80000F3
:1035000000208DF80100EB46012003E057F804BBD2
:103510004FF0FF3061074FF0000102D40DE008F1D9
:103520000101884649450FDA8045F8DB1BF8081091
:103530000029F4D108E008F1010188468142FADB54
:103540001BF808100029F6D1DDE90F23AAEB0800CB
:103550008146214600F036F9304400EB080604E0CD
:10356000DDE90F121BF8010B9047B8F10108F7D203
:1035700021464846F7E00A21C4F302534FF0000BFE
:103580000891022B04D001CFC117032B09D00AE008
:10359000FF1D27F00707F7E8020108E032E01FE00F
:1035A00020E000B2C117042B01D140B2C117031EA5
:1035B00071F1000307DA4FF0000CD0EB0C006CEB5C
:1035C00001012D2302E0230504D52B238DF824309F
:1035D000012303E0E30701D02023F7E7984658E0F2
:1035E0000A2110E010210EE010204FF0000B08908F
:1035F0000CE010214FF0000B44F004044FF00809D8
:10360000089103E008214FF0000B0891C4F3025326
:10361000022B04D001CF0021032B06D006E0FF1DB2
:1036200027F00707F7E8020103E080B2042B00D17E
:10363000C0B24FF0000823072BD5702A07D0DDF861
:1036400020C08CF0100C5CEA0B0C05D00EE040237F
:103650008DF82430012308E050EA010306D030231E
:103660008DF824308DF8252002239846DDF820C0FF
:103670008CF0080C5CEA0B0C0BD150EA010301D171
:10368000630706D530238DF824304FF00108A9F1E7
:103690000109582A04D038A20B9208AA0A920BE01A
:1036A0003AA2F9E75B46089AFCF7F5FD0B9B9B5C99
:1036B0000A9A521E0A92137050EA0102F2D10A9835
:1036C000ADEB000000F1200B600702D524F480343C
:1036D00001E04FF00109D94502DDA9EB0B0000E044
:1036E000002000EB0B0141440890AAEB010AE00323
:1036F00006D4DDE90F232146504600F063F8064466
:103700004FF0000908E009A911F80900DDE90F12DE
:10371000904709F10109761CC145F4DBE0030CD5A3
:10372000DDE90F232146504600F04CF8064404E042
:10373000DDE90F1230209047761C0899481E08904A
:103740000029F5DC08E00A980A990078491C0A91DA
:10375000DDE90F129047761CBBF10001ABF1010BC4
:10376000F1DC21465046DDE90F2300F019F806444C
:103770006D1C1BE6092801003031323334353637F1
:1037800038396162636465660000000030313233AD
:10379000343536373839414243444546000000004D
:1037A0002DE9F041044600251E461746880404D43E
:1037B00005E039462020B0476D1C641EF9D5284627
:1037C000BDE8F0812DE9F041044600251E469046F3
:1037D000C80301D5302700E02027880404D505E080
:1037E00041463846B0476D1C641EF9D52846BDE8F1
:1037F000F081000013B50C464FF47A73012269463C
:103800000248FEF7F1FD00981CBD00008401002075
:1038100088B0FDF7D9FEFFF771FCFEF7ABFEFEF7AF
:103820008FFEFEF731FFFEF751FFFEF739FE04224F
:1038300026492748FDF7F4FA02E026A0FFF76CFDC1
:10384000FEF764FF0028F8D129A0FFF765FDFEF719
:10385000E1FFFFF7D3F8FDF71DF91C2101A8FCF7E4
:10386000C4FC32E030E0FCF7B7FFFCF753FE26481B
:10387000B0F9001025A0FFF74FFD2348B0F906105E
:1038800025A0FFF749FD2048B0F9041025A0FFF757
:1038900043FD1D48B0F9021025A0FFF73DFD01A82A
:1038A000FCF700FF002407E001A8025D214623A0E9
:1038B000FFF732FD601CC4B21C2CF5DB01A8FEF73B
:1038C000DFFFC820FDF7BCFCCDE7CBE70000002000
:1038D000B80000204E524632344C303120436865E7
:1038E000636B204661696C6564210D0A000000006D
:1038F00072656D6F746520636865636B206F6B2EF6
:103900002E2E0D0A00000000E84400207468723D6D
:1039100025640D0A0000000070697463683D256429
:103920000D0A0000726F6C6C3D25640D0A000000EA
:103930007961773D25640D0A0000000073656E64AF
:103940005B25645D3D253032780D0A0010B50246D6
:10395000012000E050430B1EA1F10104E1B2F9D1B6
:1039600010BD00003EB5CB480078CB4909788842AD
:1039700005D0C8480078C8490870FEF7F3FF012059
:103980000C230022114600901D20FFF7E2F90120D0
:103990000C230246002100902920FFF7DAF90120CC
:1039A0000C230222002100903520FFF7D2F90120DC
:1039B0000C230322002100904120FFF7CAF90120C7
:1039C0000C230422002100904D20FFF7C2F90120B2
:1039D0000C230522002100905920FFF7BAF90C2092
:1039E00003232822002100900220FFF741F9012043
:1039F0000C23AAA21A2100900520FFF783F9A948F9
:103A0000B0F90000A0F57A70292190FBF1F0C4B262
:103A100001200C211A222423CDE900210290182232
:103A20002046FFF7B9F99F48B0F90000A0F2DC503A
:103A3000292190FBF1F0C4B201200C211A2230237D
:103A4000CDE9002102900A462046FFF7A5F90120A2
:103A50000C2395A21A2100904520FFF753F99148B5
:103A6000B0F90400A0F57A70292190FBF1F0C4B2FE
:103A700001200C211A226423CDE900210290182292
:103A80002046FFF789F98748B0F90400A0F2DC501E
:103A9000292190FBF1F0C4B201200C211A227023DD
:103AA000CDE9002102900A462046FFF775F9012072
:103AB0000C237FA2262100900520FFF723F97948E7
:103AC000B0F90200A0F57A70292190FBF1F0C4B2A0
:103AD00001200C2126222423CDE900210290182266
:103AE0002046FFF759F96F48B0F90200A0F2DC5008
:103AF000292190FBF1F0C4B201200C2126223023B1
:103B0000CDE9002102900A462046FFF745F9012041
:103B10000C2369A2262100904520FFF7F3F86148A5
:103B2000B0F90600A0F57A70292190FBF1F0C4B23B
:103B300001200C2126226423CDE9002102901822C5
:103B40002046FFF729F95748B0F90600A0F2DC50EB
:103B5000292190FBF1F0C4B201200C212622702310
:103B6000CDE9002102900A462046FFF715F9012011
:103B70000C2353A2322100900220FFF7C3F85148D2
:103B8000B0F90400A0F57A70292190FBF1F0C4B2DD
:103B900001200C2132221123CDE9002102901822AC
:103BA0002046FFF7F9F84748B0F90400A0F2DC50CE
:103BB000292190FBF1F0C4B201200C2132221D23F7
:103BC000CDE9002102900A462046FFF7E5F80120E2
:103BD0000C233DA2322100902E20FFF793F83948A4
:103BE000B0F90200A0F57A70292190FBF1F0C4B27F
:103BF00001200C2132223D23CDE900210290182220
:103C00002046FFF7C9F82F48B0F90200A0F2DC50B7
:103C1000292190FBF1F0C4B201200C21322249236A
:103C2000CDE9002102900A462046FFF7B5F80120B1
:103C30000C2326A2322100905A20FFF763F8214876
:103C4000B0F90600A0F57A70292190FBF1F0C4B21A
:103C500001200C2132226923CDE900210290182293
:103C60002046FFF799F81748B0F90600A0F2DC509B
:103C7000292190FBF1F0C4B201200C2132227523DE
:103C8000CDE9002102900A462046FFF785F8FEF7AD
:103C900031FF3EBD24000020250000205448523A48
:103CA00000000000E8440020524F4C3A00000000A1
:103CB0005941573A000000005049543A00000000B2
:103CC000523A000088000020593A0000503A0000A3
:103CD0002DE9F04105460E4626480768264800684B
:103CE000001D00F08FFA50B92348006890F82C109E
:103CF0000120884021490968814320480160681CEF
:103D0000D8B9D6B11E4948681B49096888601A4964
:103D100082680968CA6018490968091D826851608B
:103D200015490968091D8160154A134909684A61E6
:103D300011460968491C11601AE07C190E48006898
:103D40004460BC4207D20C480168091D0D48006858
:103D500000F07CFA0CE008480168091D0A48006878
:103D600000F074FA09480068844201D207480460F0
:103D7000BDE8F0813C000020280000204000002029
:103D8000D4080020300000202C0000205800002023
:103D900010B5044600F080FA2F480068401C2E49F8
:103DA00008602E48006840B92C4804600846006846
:103DB00001280DD100F016F90AE02948006838B949
:103DC00026480068C06AE16A884201D82348046036
:103DD00024480068401C2349086094F82C100120F6
:103DE00088402149096808431F490860E16A01EBDE
:103DF00081011E4A02EB81014868A0608268E2608E
:103E0000211D826851608160E16A01EB8101174ADE
:103E100002EB81026261E16A01EB8101134A52F80F
:103E20002110491CE26A02EB8202104B43F8221077
:103E300000F044FA0A48006868B108480068C06A9F
:103E4000E16A884207D24FF0805009490860BFF309
:103E50004F8FBFF36F8F10BD380000202800002067
:103E600044000020540000204000002004060020F0
:103E700004ED00E010B516E000F00EFA0C48C06842
:103E8000C468201D00F0BEF90A480068401E0949B8
:103E9000086009480068401E0749086000F00EFAF3
:103EA000204600F00BF8044800680028E4D110BD5B
:103EB000C0080020380000203400002010B504465F
:103EC000206B00F00BFA204600F008FA10BD00004D
:103ED00030B54FF47053154800F007042CB1C01DE5
:103EE00020F00700114C041B1B1B0246104C2260E3
:103EF00000240F4D6C60D018083820F007000D4CDE
:103F0000206000240B4D2D686C600A4D2D682C60DC
:103F10001146441A4C60074C24680C60064D4C68EE
:103F20002C60064D4C682C6030BD0000E808002075
:103F3000680000207000002078000020740000203D
:103F400000BFFFF797FF064800680128F9D94FF036
:103F5000805004490860BFF34F8FBFF36F8FF0E7C5
:103F60000406002004ED00E02DE9FF5F80460E46C8
:103F70009146DDE90E7A109CA9F10100216B01EB5D
:103F8000800B2BF0070B7EB1002507E0715D04F17B
:103F900034004155705D00B902E06D1C102DF5D361
:103FA00000BF002143200155202F00D31F27E762C7
:103FB000201D00F048F904F1180000F044F92461D4
:103FC000C7F12000A061646241465846039A00F0A0
:103FD00007F92060BAF1000F01D0CAF80040BDE82F
:103FE000FF9F000010B5002407E004EB84010F4A96
:103FF00002EB810000F01AF9641C202CF5D30C4868
:1040000000F014F90B4800F011F90B4800F00EF91C
:104010000A4800F00BF90A4800F008F90448094979
:10402000086004480849086010BD0000040600202C
:104030008408002098080020AC080020C008002058
:10404000D40800202C0000203000002010B50146CC
:10405000164800E0006803688B42FBD302464368C1
:1040600013448B4204D143684C68234443600146A7
:104070000A464B6813440468A34211D10C4C0368F0
:104080002468A34208D04B680468646823444B60EA
:1040900003681B680B6005E0054B1B680B6001E0C3
:1040A00003680B60884200D0016010BD68000020EA
:1040B0007000002009480068006808B9012000E08D
:1040C000002020B14FF0FF300549086005E00348AB
:1040D0000068C06800680249086070472C00002032
:1040E0005800002000BF502080F31188BFF34F8F8D
:1040F000BFF36F8F00BF00BFFEE700002DE9F04760
:1041000005464FF0000900F0BBF93048006808B9D7
:10411000FFF7DEFE75B105F00700C0F11008C8F129
:10412000FF30A84201D2012000E0002008B9454438
:1041300000E00025012000EBE570002841D0002DB3
:104140003FD02348006885423BD8224E3046046861
:1041500001E0264624686068A84202D22068002850
:10416000F7D11A48006884422BD0306800F1080962
:10417000206830606068401B102807D967196068A4
:10418000401B786065603846FFF760FF1049606843
:104190000968081A0E490860084600680E4909684F
:1041A000884203D20A4800680B490860606840F002
:1041B000004060600020206008480068401C0749FB
:1041C000086000F015FB4846BDE8F087700000204D
:1041D0007400002068000020780000207C0000208F
:1041E000001F4FF080730360001F21F00103036084
:1041F000001F034B03601438026020387047000032
:10420000E540000801460A69D1E901309860D1E92A
:10421000010358605068884201D1886850600020CE
:1042200008611068401E10601068704700F10801B6
:1042300041604FF0FF31816000F10801C160016110
:1042400000210160704700210161704710B50246EE
:104250000B685C1C0CB9106907E002F1080000E073
:104260004068446824689C42FAD944684C604C68B1
:10427000A160886041600A611468641C146010BD0C
:1042800042684A6093688B609368596091600861E6
:1042900003685B1C0360704700BF502080F31188E7
:1042A000BFF34F8FBFF36F8F00BF03480068401C00
:1042B000014908607047000084000020064800683B
:1042C000401E054908600846006820B9002080F3B8
:1042D000118800BF00BF70478400002070B50646FB
:1042E0003546E6B1083D2C466068C00FB8B120687D
:1042F000A8B9606820F00040606000F0C1F808498B
:10430000606809680844064908602046FFF79EFE79
:1043100004480068401C0349086000F069FA70BD59
:10432000740000208000002000204FF0E021086190
:104330008861024848610720086170473F19010001
:1043400070B50546FFF7A8FF15B92948006800E0D9
:1043500028460446201DFFF755FF78B9E06A00EBB8
:104360008000244951F8200040B994F82C10012015
:1043700088402149096881431F480160A06A18B13B
:1043800004F11800FFF73EFF1C480068401C1B4961
:10439000086017480068844209D1211D1848FFF7BA
:1043A0006FFF18480068401C1649086006E0164870
:1043B0000068401E14490860FFF77CFEFFF77EFF8F
:1043C0000B480068844202D02046FFF777FD0F4873
:1043D000006858B106480068844207D14FF0805009
:1043E0000B490860BFF34F8FBFF36F8F70BD0000A4
:1043F0002800002004060020400000205400002077
:10440000C0080020340000203800002044000020B4
:1044100004ED00E01CB5124800210B468022CDE9D6
:10442000001010A1114800F097F80446012C14D197
:1044300000BF502080F31188BFF34F8FBFF36F8F01
:1044400000BF4FF0FF300A490860012009490860A9
:1044500000200949086000F04BF8084800681CBDBE
:104460005C00002049444C4500000000413F00082A
:1044700058000020440000203C0000206000002084
:1044800002480068401C0149086070476400002031
:104490001248006818B10120114908601DE0002091
:1044A0000F4908600F480068B0FA80F0C0F11F01A2
:1044B00001EB81020C4B03EB8200426852684260C0
:1044C00000F108024368934202D142685268426098
:1044D0004268D268054B1A6000BF70476400002034
:1044E0004C0000204000002004060020280000208E
:1044F00010B50A48006840F4700008490860084692
:10450000006840F070400860FFF70EFF002004498B
:104510000860FBF707FE002010BD000020ED00E062
:104520008400002010B500BF502080F31188BFF335
:104530004F8FBFF36F8F00BF00F092F818B14FF0AC
:1045400080500449086000BF002080F3118800BF3C
:1045500010BD000004ED00E02DE9FF4F85B080465E
:1045600089461746DDE912ABB800FFF7C7FD0646DE
:1045700076B14C20FFF7C2FD04462CB14C212046F9
:10458000FBF733FE266304E03046FFF7A7FE00E0AA
:1045900000247CB10020CDE900ABCDE902403A46D1
:1045A00049464046089BFFF7DFFC2046FFF7F0FB3B
:1045B000012501E04FF0FF35284609B0BDE8F08F36
:1045C0002DE9F047044688464FF00009FFF758FFF1
:1045D00016480668206800EB08052068B04207D935
:1045E0002068A8420BD9B54209D94FF0010906E06D
:1045F0002068A84201D8B54201D94FF001092560D1
:10460000B9F1000F03D0A81B0021FFF761FB00F0F8
:10461000EFF807463FB94FF0805005490860BFF3F7
:104620004F8FBFF36F8F4846BDE8F0873C000020F6
:1046300004ED00E00549096809B9012005E00449D5
:10464000096809B9022000E00020704744000020FA
:104650006400002001490868704700003C00002009
:104660002DE9F04100275748006800287ED15648C0
:104670000068451C544805608DB95448D0F8008046
:1046800053480068514908605148C0F800805148BB
:104690000068401C4F490860FFF70CFD00BF4E4802
:1046A0000068854276D300BF48480068006808B9B2
:1046B000012000E0002020B14FF0FF3046490860A3
:1046C00067E042480068C068C4686668B54202D2C4
:1046D000414806605DE06069D4E902128A60D4E96D
:1046E00002214A60211D42688A4201D1E16841608D
:1046F000002262610168491E0160A06A98B1A06A47
:10470000D4E907128A60D4E907214A6004F118014C
:1047100042688A4201D1216A41600022A262016896
:10472000491E016000BF94F82C10012088402B49DD
:104730000968084329490860E16A01EB8101284AB8
:1047400002EB81014868A0608268E260211D8268F6
:1047500051608160E16A01EB8101214A02EB810233
:104760006261E16A01EB81011D4A00E022E052F83A
:104770002110491CE26A02EB8202194B43F8221015
:104780001849E06A0968C96A88428DD901278BE710
:1047900000E000BF13480068C06A00EB80001049C9
:1047A00051F82000012800D901270F48006800B106
:1047B000012704E00D480068401C0C490860384699
:1047C000BDE8F081640000203C0000202C000020A7
:1047D0003000002050000020580000204000002041
:1047E00004060020280000204C0000204800002083
:1047F00070B500240026FFF74FFD4B480068401EAF
:10480000494908600846006800287DD1474800688B
:10481000002879D05BE04648C068C468A06AD4E943
:1048200007128A60D4E907214A6004F1180142683E
:104830008A4201D1216A41600022A2620168491EB8
:1048400001606069D4E902128A60D4E902214A60F9
:10485000211D42688A4201D1E16841600022626103
:104860000168491E016094F82C10012088403149EC
:10487000096808432F490860E16A01EB81012E4A6B
:1048800002EB81014868A0608268E260211D8268B5
:1048900051608160E16A01EB8101274A02EB8102EC
:1048A0006261E16A01EB8101234A52F82110491C3F
:1048B000E26A02EB8202204B43F822101F49E06AB1
:1048C0000968C96A884202D301201D490860184856
:1048D000006808B9012000E0002000289BD00CB13E
:1048E000FFF7E8FB1748056865B100BFFFF7B8FEA2
:1048F00010B10120124908606D1E002DF6D1002074
:10490000104908600E4800E009E0006838B101264F
:1049100030070D490860BFF34F8FBFF36F8FFFF76C
:10492000CDFC304670BD000064000020380000203F
:10493000AC080020400000200406002028000020D1
:104940004C0000204800002004ED00E002030405B4
:10495000060708090A0B0C0D0E0F101001020000CB
:10496000000000000000010203040607080900001F
:10497000000001020304000000000000000000002D
:104980000000000000003F400000000000000000A8
:104990003000400030004000000009000BC03D0026
:1049A0000BC03D00090018C024407FE02240318048
:1049B0000000180024C01B000D80324001800380DD
:1049C0001C4027401C800740004010006000000091
:1049D0000000000000000000000000001F802040D8
:1049E00040200000402020401F80000000000900FF
:1049F00006001F80060009000000040004003F803C
:104A0000040004000000001000600000000000002E
:104A10000000040004000400040004000000000082
:104A200000400000000000000000002001C006005F
:104A30003800400000001F802040204020401F80A0
:104A40000000000010403FC000400000000018C0FF
:104A50002140224024401840000010802040244083
:104A600024401B80000002000D0011003FC00140E7
:104A700000003C80244024402440238000001F800C
:104A8000244024403440038000003000200027C030
:104A90003800200000001B802440244024401B805C
:104AA00000001C0022C0224022401F8000000000A5
:104AB000000008400000000000000000000004604A
:104AC000000000000000000004000A001100208027
:104AD0004040090009000900090009000000000029
:104AE0004040208011000A000400180020002340EC
:104AF0002400180000001F802040274029401F404C
:104B00000000004007C039000F0001C000402040F5
:104B10003FC0244024401B8000001F8020402040D4
:104B200020403080000020403FC0204020401F80B7
:104B3000000020403FC024402E4030C000002040F4
:104B40003FC024402E00300000000F0010802040A5
:104B500022403380020020403FC0040004003FC0D8
:104B60002040204020403FC0204020400000006006
:104B7000202020203FC02000200020403FC02440B3
:104B80000B0030C0204020403FC02040004000408B
:104B900000C03FC03C0003C03C003FC000002040BC
:104BA0003FC00C4023003FC020001F802040204019
:104BB00020401F80000020403FC0244024001800F7
:104BC00000001F802140214020E01FA00000204065
:104BD0003FC02440260019C0004018C02440244093
:104BE000224031800000300020403FC02040300093
:104BF000000020003F80004000403F802000200057
:104C00003E0001C0070038002000380007C03C000B
:104C100007C038000000204039C0060039C02040DD
:104C200000002000384007C038402000000030401D
:104C300021C02640384020C00000000000007FE076
:104C4000402040200000000070000C000380004065
:104C500000000000402040207FE000000000000035
:104C60002000400020000000000000100010001094
:104C700000100010001000000000400000000000C4
:104C80000000000002800540054003C000402000F5
:104C90003FC0044004400380000000000380044043
:104CA00004400640000000000380044024403FC050
:104CB0000040000003800540054003400000000064
:104CC00004401FC0244024402000000002E00550A2
:104CD00005500650042020403FC00440040003C09B
:104CE00000400000044027C0004000000000001009
:104CF0000010041027E00000000020403FC00140E9
:104D0000070004C00440204020403FC00040004055
:104D1000000007C0040007C0040003C000000440F6
:104D200007C00440040003C00040000003800440AA
:104D3000044003800000041007F004500440038086
:104D40000000000003800440045007F000100440FD
:104D500007C00240040004000000000006400540B7
:104D6000054004C00000000004001F800440004013
:104D70000000040007800040044007C00040040019
:104D8000070004C0018006000400060001C00700FF
:104D900001C006000000044006C0010006C0044037
:104DA00000000410071004E0018006000400000069
:104DB000044005C00640044000000000000004005C
:104DC0007BE040200000000000000000FFF0000039
:104DD0000000000040207BE00400000000004000D4
:104DE0008000400020002000400000000000000083
:104DF00000000000000000000000000000000000B3
:104E00001FCC000C00000000000000000800300073
:104E100060000800300060000000022003FC1E203B
:104E2000022003FC1E200220000000000E181104C6
:104E30003FFF10840C78000000000F0010840F3832
:104E400000C0077818840078000000780F8410C430
:104E500011240E9800E40084000808006800700027
:104E60000000000000000000000000000000000042
:104E700007E018182004400200000000400220044F
:104E8000181807E000000000000002400240018006
:104E90000FF001800240024000000080008000808E
:104EA0000FF800800080008000000001000D000E5F
:104EB00000000000000000000000000000800080F2
:104EC000008000800080008000800000000C000C4A
:104ED00000000000000000000000000000060018B4
:104EE00000600180060018002000000007F008089C
:104EF00010041004080807F000000000080408046B
:104F00001FFC000400040000000000000E0C101440
:104F10001024104411840E0C000000000C18100422
:104F20001104110412880C700000000000E003203E
:104F3000042408241FFC0024000000001F98108493
:104F400011041104108810700000000007F0088898
:104F50001104110418880070000000001C001000EB
:104F600010FC13001C001000000000000E3811445B
:104F70001084108411440E38000000000700088CD3
:104F800010441044088807F00000000000000000F2
:104F9000030C030C000000000000000000000001F2
:104FA0000106000000000000000000000080014039
:104FB0000220041008081004000002200220022031
:104FC0000220022002200220000000001004080835
:104FD0000410022001400080000000000E001200BA
:104FE000100C106C10800F00000003E00C1813E48C
:104FF000142417C4082807D000000004003C03C490
:105000001C40074000E4001C000410041FFC1104B5
:10501000110411040E880070000003E00C18100445
:105020001004100410081C10000010041FFC1004D1
:1050300010041004080807F0000010041FFC1104FD
:10504000110417C410040818000010041FFC1104F8
:10505000110017C010000800000003E00C18100435
:10506000100410441C780040000010041FFC108441
:105070000080008010841FFC100400001004100445
:105080001FFC1004100400000000000300011001C8
:1050900010011FFE10001000000010041FFC11047E
:1050A00003801464181C1004000010041FFC10047A
:1050B000000400040004000C000010041FFC1F008A
:1050C00000FC1F001FFC1004000010041FFC0C0457
:1050D000030000E010181FFC100007F0080810047F
:1050E00010041004080807F0000010041FFC1084CE
:1050F0001080108010800F00000007F008181024A6
:105100001024101C080A07F2000010041FFC1104F0
:10511000110011C011300E0C000400000E1C11040F
:105120001084108410441C38000018001000100473
:105130001FFC100410001800000010001FF81004DD
:105140000004000410041FF8100010001E0011E0FD
:10515000001C007013801C0010001FC0103C00E0F9
:105160001F0000E0103C1FC000001004180C163493
:1051700001C001C01634180C100410001C001304E8
:1051800000FC13041C00100000000804101C106434
:10519000108413041C04101800000000000000001C
:1051A0007FFE4002400240020000000030000C0080
:1051B00003800060001C0003000000004002400269
:1051C00040027FFE00000000000000000000200000
:1051D00040004000400020000000000100010001EC
:1051E000000100010001000100010000400040003A
:1051F00020000000000000000000000000980124D2
:1052000001440144014400FC000410001FFC00881C
:105210000104010400880070000000000070008894
:1052200001040104010400880000000000700088EF
:105230000104010411081FFC0004000000F80144EF
:1052400001440144014400C80000000001040104BD
:105250000FFC1104110411001800000000D60129F0
:105260000129012901C90106000010041FFC008466
:1052700001000100010400FC000400000104190405
:1052800019FC0004000400000000000000030001FD
:105290000101190119FE0000000010041FFC002488
:1052A000004001B4010C01040000000010041004CF
:1052B0001FFC0004000400000000010401FC0104C4
:1052C000010001FC0104010000FC010401FC008458
:1052D00001000100010400FC0004000000F80104CA
:1052E00001040104010400F80000010101FF008530
:1052F00001040104008800700000000000700088B4
:1053000001040104010501FF00010104010401FC85
:1053100000840104010001800000000000CC012491
:105320000124012401240198000000000100010073
:1053300007F80104010400000000010001F8000466
:1053400000040004010801FC000401000180017058
:10535000000C001001600180010001F0010C003020
:1053600001C00030010C01F0010000000104018CBB
:1053700000740170018C01040000010101810171C0
:10538000000E001801600180010000000184010C82
:10539000013401440184010C000000000000000001
:1053A000000001003EFC400240020000000000003E
:1053B0000000FFFF0000000000000000400240026B
:1053C0003EFC0100000000000000000060008000C2
:1053D00080004000400020002000442022400000C7
:1053E00027E0FC4027C000107FE0490049107FF013
:1053F000000040005FF050805A805680F3E05680F5
:105400005A9050905FF04000000000104010401093
:10541000401040107FF0401040104010401000102D
:1054200000003100A10069002910A91069F02B00CB
:105430002D006900A100310000007FF04880770056
:10544000000031102520A5C0650025E02510313071
:1054500000000000000000001080090006000600A7
:105460000900108000000000000000000030000073
:10547000000000000000000000000000000000002C
:10548000000000000030000000F0000000000000FC
:1054900000000000000000000000000000300000DC
:1054A00000F0000003F00000000000000000000019
:1054B000000000000030000000F0000003F00000D9
:1054C0000FF00000000000000000000000300000AD
:1054D00000F0000003F000000FF000003FF00000BB
:1054E00000000000000000000000000000000000BC
:1054F000000000000000000000007FE0000000004D
:10550000000000000000000000000000000000009B
:1055100000007FE07FE000000000000000000000CD
:10552000000000000000000000007FE07FE07FE05E
:10553000000000000000000000000000000000006B
:1055400000007FE07FE07FE07FE0000000000000DF
:10555000000000000000000000007FE07FE07FE02E
:105560007FE07FE00000000000000000000000007D
:1055700000007FE07FE07FE07FE07FE07FE00000F1
:10558000000000000000000000007FE07FE07FE0FE
:105590007FE07FE07FE07FE000000000000000008F
:1055A00000007FE07FE07FE07FE07FE07FE07FE062
:1055B0007FE000000000000000007FE07FE07FE06F
:1055C0007FE07FE07FE07FE07FE07FE000000000A1
:1055D00000007FE07FE07FE07FE07FE07FE07FE032
:1055E0007FE07FE07FE0000000007FE07FE07FE081
:1055F0007FE07FE07FE07FE07FE07FE07FE07FE0B3
:1056000000007FE07FE07FE07FE07FE07FE07FE001
:105610007FE07FE07FE07FE07FE0000000004C0063
:105620002A0009E02820282009E02A004C00000078
:10563000000000004020264015800DE016201620B6
:105640000DE015802640402000002100A2006FF0F0
:10565000340002107F2040C05F0040E07F10003027
:1056600000003810A0106FA02820A8406B80286090
:1056700028106F90A010383000003410242025C06E
:105680002420A41067F024902490249024903410B7
:10569000000008003FF0C0001010161011D090104C
:1056A000503010D017101010000011001600FFF03D
:1056B000120040505F50F56055C0F5605F5040509B
:1056C00000001040FFC010800210222022C0FF0006
:1056D00022C022203E1002100000000000000CC07A
:1056E0000CC00000000000000000000000000000EE
:1056F000000000001457000800000020B80000005F
:1057000070330008CC570008B8000020A8480000FB
:1057100080330008000000000000000000000000CE
:1057200010000000010000000024F4000A01070E30
:10573000010A01070E010100000000010000000045
:105740000000000000000000000000000000000059
:105750000000000000000000000000000000000049
:105760000000000000000000000000000000000039
:10577000000000001F00000000000000000000000A
:105780000000000000000000000000000000000019
:105790000000000000000000AAAAAAAA0000000061
:1057A00000000000000000000000000000000000F9
:1057B00000000000000000000000000000000000E9
:0C57C000000000000000000000000000DD
:04000005080000ED02
:00000001FF
