:020000040800F2
:100000007808002001010008191D0008D31A000813
:10001000151D000805030008731F000800000000FC
:10002000000000000000000000000000491D000862
:1000300045030008000000001D1D00084B1D0008BE
:100040001B0100081B0100081B0100081B01000820
:100050001B0100081B0100081B0100081B01000810
:100060001B0100081B0100081B0100080903000810
:100070001B0100081B0100081B0100081B010008F0
:100080001B0100081B0100081B0100081B010008E0
:100090001B0100081B0100081B0100081B010008D0
:1000A0001B0100081B0100081B0100081B010008C0
:1000B0001B0100081B0100081B0100081B010008B0
:1000C0001B0100081B0100081B0100081B010008A0
:1000D0001B0100081B0100081B0100081B01000890
:1000E0001B0100081B0100081B010008DFF80CD0F1
:1000F00000F040F80048004761210008780800201F
:100100000648804706480047FEE7FEE7FEE7FEE7B1
:10011000FEE7FEE7FEE7FEE7FEE7FEE7E31D000879
:10012000ED000008D2B201E000F8012B491EFBD21D
:1001300070470022F6E710B513460A4604461946F2
:10014000FFF7F0FF204610BD30B50B4601460020FA
:100150002022012409E021FA02F59D4205D303FA89
:1001600002F5491B04FA02F52844151EA2F101020A
:10017000F1DC30BD064C074D06E0E06840F00103BD
:1001800094E8070098471034AC42F6D3FFF7B2FF6B
:10019000102400083024000870B5044600252068AB
:1001A000806800F0010018B32068806820F001002A
:1001B0002168886000F032FE054613E000F02EFE54
:1001C000401B02280ED92068806800F0010048B169
:1001D000A06A40F01000A062E06A40F00100E06216
:1001E000012070BD2068806800F001000028E5D182
:1001F0000020F6E770B505466C6AA06A00F0500072
:10020000E0B9A06A40F40070A0622068806800F441
:100210006020B0F5602F0DD1207B58B9A06A20F482
:100220008070A062A06A00F4805018B9A06A40F003
:100230000100A062204600F039F903E0206A016B5A
:100240002846884770BD70B505466C6AA06A40F0C4
:100250004000A062E06A40F00400E062204600F046
:1002600027F970BD70B50446656A284600F01FF98D
:1002700070BD000038B504460025002000902068BD
:10028000806800F0010078BB2068806840F00100C1
:1002900021688860194800681949B0FBF1F00090A6
:1002A00002E00098401E009000980028F9D100F06C
:1002B000B5FD054619E000F0B1FD401B022814D938
:1002C0002068806800F0010078B9A06A40F0100052
:1002D000A062E06A40F00100E06200BF002084F804
:1002E000240000BF012038BD05E02068806800F0D0
:1002F00001000028DFD00020F5E700000C000020FE
:1003000040420F0000BFFEE710B5024800F08CFA33
:1003100010BD0000AC00002030B590F84050012422
:10032000AC40C56B6C60046863604468102C04D1F9
:100330000468A2600468E16003E00468A1600468E6
:10034000E26030BD704772B600BFFEE738B50246C6
:1003500000230020009000BF92F82400012801D162
:10036000022038BD012082F8240000BF4868072819
:1003700012D21068406B0C79641E04EB84051F24B4
:10038000AC40A0430D796D1E05EB85050C68AC40B3
:1003900020431468606327E048680D2812D2106873
:1003A000006B0C79E41F04EB84051F24AC40A043D0
:1003B0000D79ED1F05EB85050C68AC4020431468F2
:1003C000206311E01068C06A0C790D3C04EB8405D1
:1003D0001F24AC40A0430D790D3D05EB85050C684D
:1003E000AC4020431468E06208680A2812D3106801
:1003F000C0680C780A3C04EB44050724AC40A043D9
:100400000D780A3D05EB45058C68AC402043146827
:10041000E0600FE0106800690C7804EB44050724E5
:10042000AC40A0430D7805EB45058C68AC402043FB
:10043000146820610868102802D00868112827D1A4
:10044000174C1068A0421ED11068806800F40000AC
:10045000F0B91068806840F400001468A060086873
:10046000102815D10F4800680F4CB0FBF4F000EBDA
:1004700080004000009002E00098401E009000982C
:100480000028F9D104E0906A40F020009062012336
:1004900000BF002082F8240000BF184661E700007A
:1004A000002401400C00002040420F0070477047BC
:1004B000704700002DE9F041044600270025002682
:1004C000A84614B90120BDE8F081A06810B1207DD4
:1004D00000B100BFA06A30B90020E06284F82400B7
:1004E000204600F089F82046FFF756FE0746A06A2E
:1004F00000F01000002873D1002F71D1A06A20F401
:10050000885040F00200A062E16960680843217BE6
:1005100040EA41000643A068B0F5807F02D0A068A1
:10052000012802D14FF4807000E000200543207DB7
:10053000012811D1207B38B9A069401E4FF4006119
:1005400041EA4030054307E0A06A40F02000A06285
:10055000E06A40F00100E0622068406820F46940F1
:10056000284321684860206880682149084030435A
:1005700021688860A068B0F5807F02D0A06801285B
:1005800002D14FF4807000E00020B0F5807F03D1ED
:10059000208A401E4FEA00582068C06A20F470008C
:1005A00040EA08002168C862206880681149084054
:1005B000B04208D10020E062A06A20F0020040F0C2
:1005C0000100A06211E0A06A20F0020040F01000DB
:1005D000A062E06A40F00100E062012705E0FFE769
:1005E000A06A40F01000A062012738466BE70000C7
:1005F000FDF7E1FFFE0E1FFF10B586B00446002098
:1006000002900390049005902249206888423ED1D0
:1006100000BF2148806940F400701F498861084686
:10062000806900F40070019000BF00BF00BF084661
:10063000806940F0040088610846806900F0040089
:10064000019000BF00BF0F2002900320039002A979
:10065000124800F04DFA1248124908600020486024
:100660000021104881608021C1604900016189003A
:100670004161202181610902C16100F0A3F908B143
:10068000FFF761FE00BF07482062446200BF06B06A
:1006900010BD00000024014000100240000801408D
:1006A00008000240AC0000202DE9F04104460D4650
:1006B0001646002757492068884203D056492068CB
:1006C000884205D15348001D006800F4702000E006
:1006D000002000287ED100BF94F82400012802D118
:1006E0000220BDE8F081012084F8240000BF2046EC
:1006F000FFF7C0FD0746002F6DD1A06A40F60161EB
:10070000884340F48070A06243492068884209D140
:100710004048001D006800F4702008B9012002E084
:10072000002000E0012078B1A06A20F48010A062CF
:100730002068406800F4806000B3A06A20F4005094
:1007400040F48050A06219E0A06A40F48010A062DA
:1007500030492068884203D02F492068884205D15B
:100760002C48001D006800F4806000E0002028B1E3
:10077000A06A20F4005040F48050A062A06A00F407
:10078000805020B1E06A20F00600E06201E0002025
:10079000E06200BF002084F8240000BF1F48216AE7
:1007A00088621F48216AC8621E48216A08636FF088
:1007B0000200216808602068806840F48070216829
:1007C0008860226802F14C0133462A46206A00F014
:1007D0002DF901E01AE014E02068806800F4602040
:1007E000B0F5602F06D12068806840F4A000216831
:1007F00088600CE02068806840F480102168886080
:1008000005E000BF002084F8240000E001273846FE
:1008100067E700000024014000280140F5010008BE
:10082000650200084702000870B50446E06B0568E1
:100830002068066894F8401004208840284000286A
:1008400046D006F00400002842D02068006800F07E
:10085000200028B92068006820F0040021680860A2
:1008600057492068884201D1042027E054491431B7
:100870002068884201D1402020E051492831206879
:10088000884201D1001519E04D493C312068884269
:1008900002D14FF4804011E049495031206888422C
:1008A00002D14FF4802009E0454964312068884234
:1008B00002D14FF4800001E04FF0806040490839D8
:1008C0004860E06A00287AD02046E16A884776E0EE
:1008D00094F84010022088402840A0B306F002009F
:1008E00088B32068006800F0200040B920680068E4
:1008F00020F00A0021680860012084F821003049B6
:100900002068884201D1022028E02D491431206856
:10091000884201D1202021E02949283120688842DD
:1009200001D140151AE026493C312068884202D1A5
:100930004FF4005012E0224950312068884203D120
:100940004FF400300AE017E01D4964312068884206
:1009500002D14FF4001001E04FF00070184908393F
:10096000486000BF002084F8200000BFA06A30B3B8
:100970002046A16A884722E094F840100820884069
:100980002840E0B106F00800C8B12068006820F0F7
:100990000E002168086094F8401001208840E16B47
:1009A00048600120A06384F8210000BF002084F883
:1009B000200000BF206B10B12046216B884770BD1E
:1009C000080002400146002209B901207047164B79
:1009D0000868C01A1423B0FBF3F0800008641248C2
:1009E0000838C863022081F821000868026843F6CD
:1009F000F0708243D1E901031843CB6818430B69B7
:100A000018434B6918438B691843CB691843024359
:100A10000868026000208863012081F8210000201E
:100A200081F8200000BFD1E7080002402DE9F04125
:100A300004460D4616461F464FF0000800BF94F8C6
:100A40002000012802D10220BDE8F081012084F8B5
:100A5000200000BF94F8210001282CD1022084F846
:100A600021000020A0632068006820F001002168B8
:100A700008603B46324629462046FFF74DFCE06AB7
:100A800030B12068006840F00E00216808600BE07B
:100A90002068006820F00400216808602068006871
:100AA00040F00A00216808602068006840F00100FA
:100AB0002168086006E000BF002084F8200000BF25
:100AC0004FF002084046BFE770B5044600F0A6F9B3
:100AD00006462546681C10B104480078054400BF4E
:100AE00000F09CF9801BA842FAD370BD08000020DA
:100AF0002DE9F8470346002294466EE14FF00108C5
:100B000008FA02F4D1F8008008EA0400A0427DD17E
:100B1000DFF8DCA2D1F80480A8EB0A09D0453AD06E
:100B200014DCB8F1030F50D009DCB8F1000F31D05C
:100B3000B8F1010F1CD0B8F1020F49D120E0B8F193
:100B4000110F18D0B8F1120F42D11EE0B9F5881F6D
:100B500025D006DCB9F5803F20D0B9F5801F37D10C
:100B60001AE0B9F5001F18D0B9F5041F30D117E00D
:100B7000D1F80CC02DE0D1F80C8008F1040C28E06D
:100B8000D1F80C8008F1080C23E0D1F80C8008F1B2
:100B90000C0C1EE000BF00BF00BF00BF00BF00BFC5
:100BA000D1F80880B8F1000F02D14FF0040C0BE02F
:100BB000D1F80880B8F1010F03D14FF0080C1C6187
:100BC00002E04FF0080C5C6103E04FF0000C00E025
:100BD00000BF00BFFF2801D8984601E003F10408D8
:100BE0004646FF2802D84FEA820803E0A2F108082F
:100BF0004FEA88084746D6F800804FF00F0909FAF7
:100C000007F928EA09080CFA07F900E088E048EA41
:100C10000908C6F80080D1F8048008F08058B8F1BF
:100C2000805F7DD100BFDFF8CC81D8F8188048F014
:100C30000108DFF8C091C9F81880C846D8F81880B4
:100C400008F00108CDF8008000BF00BF4FEAB938B6
:100C50004FEA920958F829504FEA82784FEA1879FA
:100C60004FF00F0808FA09F825EA0805DFF888812F
:100C7000434502D14FF0000816E0DFF8808143457C
:100C800002D14FF001080FE0DFF87481434502D133
:100C90004FF0020808E0DFF86C81434502D14FF0C5
:100CA000030801E04FF004084FEA82794FEA19790E
:100CB00008FA09F848EA0505DFF84C814FEA92097D
:100CC00048F82950D1F8048008F48018B8F5801F3E
:100CD0000AD1DFF83881D8F8008048EA0008DFF848
:100CE0002C91C9F8008009E0DFF82081D8F8008055
:100CF00028EA0008DFF81491C9F80080D1F80480D0
:100D000008F40018B8F5001F10D1DFF8008108F1D1
:100D10000408D8F8008048EA0008DFF8F09000E006
:100D20005AE009F10409C9F800800DE0DFF8DC8021
:100D300008F10408D8F8008028EA0008DFF8CC9011
:100D400009F10409C9F80080D1F8048008F40038DA
:100D5000B8F5003F0ED1DFF8B480A8F10408D8F848
:100D6000008048EA0008DFF8A490A9F10409C9F856
:100D700000800DE0DFF89480A8F10408D8F8008026
:100D800028EA0008DFF88490A9F10409C9F8008076
:100D9000D1F8048008F48038B8F5803F0ED1DFF830
:100DA0006C80A8F10808D8F8008048EA0008DFF84D
:100DB0005C90A9F10809C9F800800DE0DFF84C80CB
:100DC000A8F10808D8F8008028EA0008DFF83C906D
:100DD000A9F10809C9F80080521CD1F8008028FA4E
:100DE00002F8B8F1000F7FF489AEBDE8F887000083
:100DF000000011100010024000080140000C0140EA
:100E000000100140001401400800014008040140A6
:100E10000AB1016101E00B040361704701480068F9
:100E2000704700000000002003480068034909786B
:100E300008440149086070470000002008000020B5
:100E400010B50848006840F010000649086003200B
:100E500000F0A8F80F2000F007F800F02BF80020B1
:100E600010BD00000020024070B504460E48007816
:100E70004FF47A71B1FBF0F00C490968B1FBF0F561
:100E8000284600F033FD08B1012070BD102C07D2B8
:100E900000222146501E00F047F80548046001E09A
:100EA0000120F2E70020F0E7080000200C000020FD
:100EB0000400002008B500BF1148806940F001001F
:100EC0000F4988610846806900F00100009000BF6A
:100ED00000BF00BF0846C06940F08050C8610846A6
:100EE000C06900F08050009000BF00BF00BF0549FE
:100EF000486820F0E06040F00070486000BF08BD26
:100F0000001002400000014001460846002809DBAD
:100F100000F01F0301229A4043099B0003F1E023E4
:100F2000C3F8002100BF70472DE9F05F80460D46F1
:100F30001646002701F030F8074639462A46334660
:100F400001F00700C0F1070ABAF1040F02D94FF00F
:100F5000040A01E0C0F1070AD14600F1040ABAF11F
:100F6000070F02D24FF0000A01E0A0F1030AD446B5
:100F70004FF0010A0AFA09FAAAF1010A0AEA020A7A
:100F80000AFA0CFA4FF0010B0BFA0CFBABF1010B58
:100F90000BEA030B4AEA0B042146404601F004F831
:100FA000BDE8F09F00BF00F00702064B19684FF63E
:100FB000FF031940044B0B4343EA0221014B196024
:100FC00000BF70470CED00E00000FA05F8B50446DC
:100FD00000260025207800F0010000286BD00027B3
:100FE0004348C06900F0805070B900BF4048C069F4
:100FF00040F080503E49C8610846C06900F080500A
:10100000009000BF00BF01273A48006800F48070DC
:10101000B0B93848006840F4807036490860FFF77E
:10102000FDFE064606E0FFF7F9FE801B642801D9A5
:101030000320F8BD2F48006800F480700028F2D02B
:101040002B48006A00F440752DB3A08800F440706E
:10105000A84220D02648006A20F440750120264985
:101060000860002008602248056205F0010090B188
:10107000FFF7D4FE064608E0FFF7D0FE801B41F2E2
:101080008831884201D90320D3E71948006A00F06B
:1010900002000028F0D01648006A20F44070616811
:1010A000084313490862012F04D10846C06920F0A3
:1010B0008050C86100BF207800F00200022807D1EC
:1010C0000B48406820F44040A16808430849486044
:1010D000207800F01000102807D10548406820F45F
:1010E0008000E1680843024948600020A1E7000051
:1010F00000100240007000404004424270B50446B7
:101100000D460CB9012070BD5A48006800F0070078
:10111000A8420ED25748006820F0070028435549DE
:1011200008600846006800F00700A84201D00120CE
:10113000E9E7207800F0020002281DD1207800F0B5
:101140000400042805D14C48406840F4E0604A4956
:101150004860207800F00800082805D1464840681B
:1011600040F46050444948604348406820F0F00033
:10117000A168084340494860207800F0010078B336
:101180006068012806D13C48006800F4003090B93E
:101190000120B8E76068022806D13748006800F0EF
:1011A000007040B90120AEE73348006800F002004B
:1011B00008B90120A7E73048406820F003006168C3
:1011C00008432D494860FFF729FE064609E0FFF76E
:1011D00025FE801B41F28831884202D9032092E724
:1011E00007E02548406800F00C006168B0EB810F13
:1011F000EDD12048006800F00700A8420ED91D4834
:10120000006820F0070028431A4908600846006873
:1012100000F00700A84201D0012074E7207800F018
:101220000400042807D11448406820F4E060E16815
:10123000084311494860207800F00800082808D1C8
:101240000D48406820F46050216940EAC1000A4915
:10125000486000F03FF808494968C1F30311074AA4
:10126000515CC8400649086006480068FFF7FCFD6D
:10127000002048E70020024000100240F62300084A
:101280000C000020040000200148006870470000A6
:101290000C00002000B5FFF7F7FF04494968C1F3CF
:1012A0000221034A515CC84000BD0000001002400A
:1012B0000624000800B5FFF7E7FF04494968C1F3B9
:1012C000C221034A515CC84000BD0000001002402A
:1012D0000624000870B5002100220024002300200D
:1012E000134D696801F00C05F5B1042D02D0082DED
:1012F00019D101E00F4819E00F4DC1F38346AB5DF2
:1013000001F4803555B10A4D6D68C5F340450B4E6B
:10131000725D084D5D43B5FBF2F402E0084D03FB3E
:1013200005F4204602E000BF024800BF00BF70BDC8
:101330000010024000127A00E4230008F4230008A1
:1013400000093D00F8B504460CB90120F8BD20782D
:1013500000F00100002878D0F848406800F00C0048
:1013600004280CD0F548406800F00C00082811D182
:10137000F248406800F48030B0F5803F0AD1EF4871
:10138000006800F4003000285FD0606800285CD15D
:101390000120DBE700BF6068B0F5803F06D1E74879
:1013A000006840F48030E549086028E0606858B97A
:1013B000E248006820F48030E04908600846006890
:1013C00020F4802008601AE06068B0F5A02F0BD1EF
:1013D000DA48006840F48020D84908600846006870
:1013E00040F4803008600AE0D448006820F480307F
:1013F000D24908600846006820F48020086000BFD9
:10140000606888B1FFF70AFD054606E0FFF706FDB4
:10141000401B642801D9032098E7C848006800F4FD
:1014200000300028F2D010E0FFF7F8FC054606E097
:10143000FFF7F4FC401B642801D9032086E7BF486E
:10144000006800F400300028F2D1207800F002009B
:10145000022857D1B948406800F00C0050B1B74895
:10146000406800F00C00082818D1B448406800F427
:10147000803098B9B148006800F0020020B12069BE
:10148000012801D0012061E7AC48006820F0F80095
:10149000616940EAC100A949086033E02069E8B108
:1014A0000120A7490860FFF7B9FC054606E0FFF7F1
:1014B000B5FC401B022801D9032047E79F4800687C
:1014C00000F002000028F2D09C48006820F0F800EC
:1014D000616940EAC1009949086013E00020984919
:1014E0000860FFF79BFC054606E0FFF797FC401BF2
:1014F000022801D9032029E79048006800F0020083
:101500000028F2D1207800F0080008282DD1A06929
:10151000B8B101208B490860FFF780FC054606E062
:10152000FFF77CFC401B022801D903200EE783480B
:10153000406A00F002000028F2D0012000F0F0FB29
:1015400013E000207F490860FFF768FC054606E0CD
:10155000FFF764FC401B022801D90320F6E6774818
:10156000406A00F002000028F2D1207800F0040068
:10157000042873D100277148C06900F0805070B909
:1015800000BF6E48C06940F080506C49C861084691
:10159000C06900F08050009000BF00BF01276A487A
:1015A000006800F48070B0B96748006840F480704B
:1015B00065490860FFF732FC054606E0FFF72EFCA0
:1015C000401B642801D90320C0E65F48006800F48E
:1015D00080700028F2D000BFE068012806D157488B
:1015E000006A40F001005549086227E0E06858B9F8
:1015F0005248006A20F00100504908620846006A1B
:1016000020F00400086219E0E06805280BD14B487F
:10161000006A40F00400494908620846006A40F048
:10162000010008620AE04548006A20F001004349D1
:1016300008620846006A20F00400086200BFE06803
:10164000A0B1FFF7EBFB054609E0FFF7E7FB401B06
:1016500041F28831884202D9032077E622E03748F8
:10166000006A00F002000028EFD012E0FFF7D6FB7E
:10167000054608E0FFF7D2FB401B41F28831884263
:1016800001D9032062E62D48006A00F0020000281C
:10169000F0D1012F05D12948C06920F08050274999
:1016A000C86100BFE069C8B32448406800F00C007E
:1016B000082860D0E069022848D100202049086647
:1016C000FFF7ACFB054606E0FFF7A8FB401B02282E
:1016D00001D903203AE61948006800F0007000289C
:1016E000F2D1206AB0F5803F07D11448406820F459
:1016F0000030A168084311494860D4E90801084353
:101700000E49496821F4741108430C4948600120CE
:101710000B490866FFF782FB054607E03DE0FFF74F
:101720007DFB401B022801D903200FE60348006817
:1017300000F000700028F2D02FE0000000100240FE
:1017400000004242800442420070004000201449E0
:101750000866FFF763FB054606E0FFF75FFB401BEB
:10176000022801D90320F1E50E48006800F000705E
:101770000028F2D111E0E069012800D1E6E509482E
:10178000466806F48031206A814204D106F4701163
:10179000606A814201D00120D8E50020D6E5000032
:1017A000000042420010024010B504460CB901206E
:1017B00010BD606A38B96068B0F5827F00D105E07D
:1017C0000021E16102E00021216161610021A1624B
:1017D00094F8510028B9002084F85000204600F009
:1017E00043F8022084F851002068006820F040008F
:1017F00021680860A08800F48270218901F4044106
:101800000843A18901F400610843217C01F0020131
:101810000843217D01F001010843218B01F400718F
:101820000843217F01F0380108432021095D01F0C0
:1018300080010843218D01F40051084321680860AC
:101840000421A06901EA1040216848602068C0694D
:1018500020F400602168C86100206065012084F8E0
:1018600051000020A4E7000010B586B00446002017
:1018700002900390049005901949206888422DD168
:1018800000BF1848806940F48050164988610846B6
:10189000806900F48050019000BF00BF00BF08467F
:1018A000806940F0040088610846806900F0040007
:1018B000019000BF00BFA0200290022003900320EF
:1018C000059002A90848FFF713F940200290002074
:1018D0000390049002A90448FFF70AF906B010BD6E
:1018E00000300140001002400008014070B504467D
:1018F0002546681EB0F1807F01D301200FE0681EED
:101900004FF0E02148610F214FF0FF3000F04CFB19
:1019100000204FF0E021886107200861002070BDA1
:1019200010B504460CB9012010BDA06900B100E05B
:1019300000BF94F8410028B9002084F840002046F8
:1019400000F02AF8242084F841002068C06820F4C0
:1019500000502168C860204600F044FA2068006901
:1019600020F49040216808612068406920F02A0036
:10197000216848612068C06840F400502168C86050
:1019800000206064202084F8410084F84200002098
:10199000606300BFC8E7000010B586B004460020B1
:1019A00002900390049005901A49206888422ED135
:1019B00000BF1948806940F4804017498861084693
:1019C000806900F48040019000BF00BF00BF08465E
:1019D000806940F0040088610846806900F00400D6
:1019E000019000BF00BF4815029002200390032021
:1019F000059002A90948FFF77BF84FF48060029038
:101A000000200390049002A90448FFF771F806B083
:101A100010BD0000003801400010024000080140E5
:101A20002DE9F84F04460E46174699464FF0000A36
:101A300094F8410020284AD106B117B90120BDE829
:101A4000F88F00206064212084F84100FFF7E6F958
:101A50008246A784E784A068B0F5805F04D120693E
:101A600010B90025B04602E035464FF000081BE0F3
:101A70005346002280212046CDF8009000F030FA35
:101A800008B10320DBE745B9B8F80000C0F308004F
:101A90002168486008F1020803E02878216848605E
:101AA0006D1CE08C401EE084E08C0028E0D15346A1
:101AB000002240212046CDF8009000F011FA08B134
:101AC0000320BCE7202084F841000020B7E7022073
:101AD000B5E700BFFEE700000EB5002000900190C2
:101AE0000290234823490860811522488160012122
:101AF0000173002101754FF46021C16100201D496F
:101B0000486004211B480161FEF7D4FC08B1FEF7D0
:101B10001AFC0020009001200190029069461548AF
:101B2000FEF714FC08B1FEF70EFC01200090022025
:101B3000019069460F48FEF709FC08B1FEF703FC67
:101B4000022000900320019069460A48FEF7FEFB40
:101B500008B1FEF7F8FB03200090042001906946CD
:101B60000448FEF7F3FB08B1FEF7EDFB0EBD0000E5
:101B7000002401407C00002008B500BF0A484069ED
:101B800040F00100084948610846406900F0010042
:101B9000009000BF00BF002211460B20FFF7C4F9E0
:101BA0000B20FFF7B1F908BD0010024000B585B069
:101BB0000020019002900390049000BF3348806998
:101BC00040F01000314988610846806900F010003B
:101BD000009000BF00BF00BF0846806940F02000B1
:101BE00088610846806900F02000009000BF00BFB7
:101BF00000BF0846806940F004008861084680699B
:101C000000F00400009000BF00BF00BF08468069DC
:101C100040F0080088610846806900F008000090E4
:101C200000BF00BF012248F210011948FFF7F0F889
:101C300048F2100001900120029000200390032040
:101C4000049001A91248FEF753FF4FF480700190F1
:101C5000002002900120039001A90D48FEF748FFE3
:101C6000F8200190002002900120039001A909486A
:101C7000FEF73EFF4FF48070019000200290039029
:101C800001A90448FEF734FF05B000BD0010024072
:101C900000080140000C014010B50E480E490860D4
:101CA0004FF48270486000210B488160C16001617F
:101CB00041614FF4007181611021C1610021016215
:101CC000416281620A21C162FFF76EFD08B1FEF731
:101CD0003AFB10BD00300140F000002010B50B4869
:101CE0000B4908604FF4E1304860002108488160EA
:101CF000C16001610C21416100218161C161FFF777
:101D00000FFE08B1FEF71FFB10BD000000380140B8
:101D10004801002000BFFEE700BFFEE7704700005B
:101D200008B508490968C9084FF47A72B1FBF2F1A5
:101D30004143009100BF00BF00994A1E0092002954
:101D4000F9D108BD0C000020704710B5FFF76CF802
:101D500000F070FA012801D000F052FA10BD00B571
:101D600093B0282109A8FEF7E4F9142104A8FEF78E
:101D7000E0F900200090019002900390012009906A
:101D800000040A9000200B9001200D90022010907A
:101D9000C10311914FF4E011129109A8FFF7D2FA93
:101DA00008B1FEF7D0FA0F20049002200590002021
:101DB00006904FF48060079000200890022104A84C
:101DC000FFF79CF908B1FEF7BEFA022000908003ED
:101DD00002906846FFF7FAF808B1FEF7B4FA13B0BC
:101DE00000BD704770B504462168096921F440516F
:101DF000E2681143226811612269A1681143626996
:101E000041EA02052168C96841F20C629143294305
:101E10002268D1602168496921F44071A2691143A7
:101E2000226851612D4A2168914202D1FFF742FA9E
:101E300001E0FFF72FFA00EBC00101EB001162682F
:101E40009200B1FBF2F100EBC00202EB00126368FA
:101E50009B00B2FBF3F26423B2FBF3F202EBC2038A
:101E600003EB0212A1EB8201322202EB0111642288
:101E7000B1FBF2F101F0F00100EBC00202EB001245
:101E800063689B00B2FBF3F26423B2FBF3F201EB55
:101E9000021200EBC00101EB001163689B00B1FB73
:101EA000F3F100EBC00303EB00136668B600B3FB6D
:101EB000F6F36426B3FBF6F303EBC30606EB03135A
:101EC000A1EB8301322303EB01116423B1FBF3F196
:101ED00001F00F0111442268916070BD003801408B
:101EE0002DE9F04104460D4617469846069E34E01B
:101EF000701C88B32EB1FEF791FFA0EB0800B04232
:101F00002BD900BF00BF21680C3151E8001F21F41C
:101F1000D07021680C3141E80002002AF3D100BFE3
:101F200000BF00BF2168143151E8001F21F00100FB
:101F30002168143141E80002002AF3D100BF2020BB
:101F400084F8410084F8420000BF002084F840007B
:101F500000BF0320BDE8F081FFE72068006828404B
:101F6000A84201D1012000E00020B842C0D00020EA
:101F7000F0E700BFFEE700000FB4054B10B503A962
:101F8000044A029800F034F810BC5DF814FB00001D
:101F9000452100085000002002480068C0F30220DC
:101FA000704700000CED00E010B5002804DB0A07C4
:101FB000130E054A135406E00A07140E034A00F0F4
:101FC0000F031B1FD45410BD00E400E018ED00E027
:101FD00002E008C8121F08C1002AFAD170477047F2
:101FE000002001E001C1121F002AFBD17047000050
:101FF0002DE9FF4F89B09B460446002506E02528C1
:102000000BD05A460B999047641C6D1C2078002811
:10201000F5D10DB02846BDE8F08F0027B846012263
:10202000474900E0074314F8013F203B02FA03F060
:102030000842F7D120782E2819D114F8010F47F063
:1020400004072A280ED06FF02F022078A0F130016B
:1020500009290CD808EB880102EB410100EB0108CB
:10206000641CF2E70A98641C50F8048B0A902078EC
:102070000028CED0642808D0692806D075281ED044
:102080005A460B9990476D1C58E00A994FF00A097F
:1020900001C90A91002802DA40422D2102E03905E7
:1020A00004D52B218DF82010012103E0F90704D07D
:1020B0002021F7E78A4608AE0DE00021FAE70A99E9
:1020C0004FF00A0901C90A91F7E74946FEF73CF8C3
:1020D000303106F8011D0028F7D1ADEB060000F104
:1020E0002009780701D44FF00108C84502DDA8EBAC
:1020F000090000E000208046002706E008A85A46B4
:10210000C05D0B9990476D1C7F1C5745F6DB04E0C2
:1021100030205A460B9990476D1CB8F10001A8F188
:102120000108F5DC05E016F8010B5A460B999047BB
:102130006D1CB9F10001A9F10109F4DC641C65E72B
:102140000928010013B50C464FF47A730122694641
:102150000248FFF765FC00981CBD00004801002004
:1021600088B0FEF76DFEFFF7FAFDFFF71FFDFFF7E2
:1021700003FDFFF791FDFFF7B1FDFFF7ADFC0A226C
:102180000B490C48FEF790FA1C2101A8FDF7D1FF7E
:102190000DE00BE008A0FFF7EFFE0548016809A07D
:1021A000FFF7EAFE4FF47A70FEF78EFCF2E7F0E7F5
:1021B000540000207C0000204369616C6C6F7E0D30
:1021C0000A0000006C6566746C723D25640D0A009F
:1021D00009480068006808B9012000E0002020B12B
:1021E0004FF0FF300549086005E003480068C0680B
:1021F0000068024908607047140000204000002079
:1022000010B500BF502080F31188BFF34F8FBFF38C
:102210006F8F00BF00F01EF818B14FF080500449D6
:10222000086000BF002080F3118800BF10BD0000CF
:1022300004ED00E00549096809B9012005E00449F9
:10224000096809B9022000E0002070472C00002036
:102250004C0000202DE9F041002757480068002875
:102260007ED156480068451C544805608DB95448D5
:10227000D0F8008053480068514908605148C0F8C0
:10228000008051480068401C4F490860FFF7A0FFDC
:1022900000BF4E480068854276D300BF48480068BA
:1022A000006808B9012000E0002020B14FF0FF30A5
:1022B0004649086067E042480068C068C4686668CC
:1022C000B54202D2414806605DE06069D4E902127D
:1022D0008A60D4E902214A60211D42688A4201D104
:1022E000E1684160002262610168491E0160A06AE4
:1022F00098B1A06AD4E907128A60D4E907214A603C
:1023000004F1180142688A4201D1216A4160002229
:10231000A2620168491E016000BF94F82C100120E0
:1023200088402B490968084329490860E16A01EBA4
:102330008101284A02EB81014868A0608268E2605E
:10234000211D826851608160E16A01EB8101214AAF
:1023500002EB81026261E16A01EB81011D4A00E04A
:1023600022E052F82110491CE26A02EB8202194B6A
:1023700043F822101849E06A0968C96A88428DD971
:1023800001278BE700E000BF13480068C06A00EB3C
:102390008000104951F82000012800D901270F487A
:1023A000006800B1012704E00D480068401C0C499A
:1023B00008603846BDE8F0814C0000202400002071
:1023C00014000020180000203800002040000020E9
:1023D0002800002090010020100000203400002080
:1023E0003000002002030405060708090A0B0C0D43
:1023F0000E0F10100102000000000000000001029A
:10240000030406070809000000000102030400009D
:10241000302400080000002054000000D01F0008F5
:10242000842400085400002024080000E01F000855
:102430000000000010000000010000000024F40073
:10244000000000000000000000000000000000008C
:10245000000000000000000000000000000000007C
:10246000000000000000000000000000000000006C
:1024700000000000000000001F000000000000003D
:042480000000000058
:04000005080000ED02
:00000001FF
